{
  "contractName": "DemetraPresale",
  "abi": [
    {
      "inputs": [
        {
          "internalType": "uint256",
          "name": "_saleStartTime",
          "type": "uint256"
        },
        {
          "internalType": "uint256",
          "name": "_saleEndTime",
          "type": "uint256"
        },
        {
          "internalType": "address payable",
          "name": "_projectOwner",
          "type": "address"
        },
        {
          "internalType": "uint256",
          "name": "_tierOneValue",
          "type": "uint256"
        },
        {
          "internalType": "uint256",
          "name": "_tierTwoValue",
          "type": "uint256"
        }
      ],
      "stateMutability": "nonpayable",
      "type": "constructor"
    },
    {
      "anonymous": false,
      "inputs": [
        {
          "indexed": true,
          "internalType": "address",
          "name": "previousOwner",
          "type": "address"
        },
        {
          "indexed": true,
          "internalType": "address",
          "name": "newOwner",
          "type": "address"
        }
      ],
      "name": "OwnershipTransferred",
      "type": "event"
    },
    {
      "inputs": [],
      "name": "NAME",
      "outputs": [
        {
          "internalType": "string",
          "name": "",
          "type": "string"
        }
      ],
      "stateMutability": "view",
      "type": "function"
    },
    {
      "inputs": [
        {
          "internalType": "address",
          "name": "",
          "type": "address"
        }
      ],
      "name": "buyInTierOne",
      "outputs": [
        {
          "internalType": "uint256",
          "name": "",
          "type": "uint256"
        }
      ],
      "stateMutability": "view",
      "type": "function"
    },
    {
      "inputs": [
        {
          "internalType": "address",
          "name": "",
          "type": "address"
        }
      ],
      "name": "buyInTierTwo",
      "outputs": [
        {
          "internalType": "uint256",
          "name": "",
          "type": "uint256"
        }
      ],
      "stateMutability": "view",
      "type": "function"
    },
    {
      "inputs": [
        {
          "internalType": "address",
          "name": "",
          "type": "address"
        }
      ],
      "name": "buyInTierZero",
      "outputs": [
        {
          "internalType": "uint256",
          "name": "",
          "type": "uint256"
        }
      ],
      "stateMutability": "view",
      "type": "function"
    },
    {
      "inputs": [],
      "name": "isPublic",
      "outputs": [
        {
          "internalType": "bool",
          "name": "",
          "type": "bool"
        }
      ],
      "stateMutability": "view",
      "type": "function"
    },
    {
      "inputs": [],
      "name": "maxAllocaPerUserTierOne",
      "outputs": [
        {
          "internalType": "uint256",
          "name": "",
          "type": "uint256"
        }
      ],
      "stateMutability": "view",
      "type": "function"
    },
    {
      "inputs": [],
      "name": "maxAllocaPerUserTierTwo",
      "outputs": [
        {
          "internalType": "uint256",
          "name": "",
          "type": "uint256"
        }
      ],
      "stateMutability": "view",
      "type": "function"
    },
    {
      "inputs": [],
      "name": "maxAllocaPerUserTierZero",
      "outputs": [
        {
          "internalType": "uint256",
          "name": "",
          "type": "uint256"
        }
      ],
      "stateMutability": "view",
      "type": "function"
    },
    {
      "inputs": [],
      "name": "maxCap",
      "outputs": [
        {
          "internalType": "uint256",
          "name": "",
          "type": "uint256"
        }
      ],
      "stateMutability": "view",
      "type": "function"
    },
    {
      "inputs": [],
      "name": "minAllocaPerUserTierOne",
      "outputs": [
        {
          "internalType": "uint256",
          "name": "",
          "type": "uint256"
        }
      ],
      "stateMutability": "view",
      "type": "function"
    },
    {
      "inputs": [],
      "name": "minAllocaPerUserTierTwo",
      "outputs": [
        {
          "internalType": "uint256",
          "name": "",
          "type": "uint256"
        }
      ],
      "stateMutability": "view",
      "type": "function"
    },
    {
      "inputs": [],
      "name": "minAllocaPerUserTierZero",
      "outputs": [
        {
          "internalType": "uint256",
          "name": "",
          "type": "uint256"
        }
      ],
      "stateMutability": "view",
      "type": "function"
    },
    {
      "inputs": [],
      "name": "owner",
      "outputs": [
        {
          "internalType": "address",
          "name": "",
          "type": "address"
        }
      ],
      "stateMutability": "view",
      "type": "function"
    },
    {
      "inputs": [],
      "name": "projectOwner",
      "outputs": [
        {
          "internalType": "address payable",
          "name": "",
          "type": "address"
        }
      ],
      "stateMutability": "view",
      "type": "function"
    },
    {
      "inputs": [],
      "name": "renounceOwnership",
      "outputs": [],
      "stateMutability": "nonpayable",
      "type": "function"
    },
    {
      "inputs": [],
      "name": "saleEndTime",
      "outputs": [
        {
          "internalType": "uint256",
          "name": "",
          "type": "uint256"
        }
      ],
      "stateMutability": "view",
      "type": "function"
    },
    {
      "inputs": [],
      "name": "saleStartTime",
      "outputs": [
        {
          "internalType": "uint256",
          "name": "",
          "type": "uint256"
        }
      ],
      "stateMutability": "view",
      "type": "function"
    },
    {
      "inputs": [],
      "name": "tierOneMaxCap",
      "outputs": [
        {
          "internalType": "uint256",
          "name": "",
          "type": "uint256"
        }
      ],
      "stateMutability": "view",
      "type": "function"
    },
    {
      "inputs": [],
      "name": "tierTwoMaxCap",
      "outputs": [
        {
          "internalType": "uint256",
          "name": "",
          "type": "uint256"
        }
      ],
      "stateMutability": "view",
      "type": "function"
    },
    {
      "inputs": [],
      "name": "tierZeroMaxCap",
      "outputs": [
        {
          "internalType": "uint256",
          "name": "",
          "type": "uint256"
        }
      ],
      "stateMutability": "view",
      "type": "function"
    },
    {
      "inputs": [],
      "name": "totalBnbInTierOne",
      "outputs": [
        {
          "internalType": "uint256",
          "name": "",
          "type": "uint256"
        }
      ],
      "stateMutability": "view",
      "type": "function"
    },
    {
      "inputs": [],
      "name": "totalBnbInTierTwo",
      "outputs": [
        {
          "internalType": "uint256",
          "name": "",
          "type": "uint256"
        }
      ],
      "stateMutability": "view",
      "type": "function"
    },
    {
      "inputs": [],
      "name": "totalBnbInTierZero",
      "outputs": [
        {
          "internalType": "uint256",
          "name": "",
          "type": "uint256"
        }
      ],
      "stateMutability": "view",
      "type": "function"
    },
    {
      "inputs": [],
      "name": "totalBnbReceivedInAllTier",
      "outputs": [
        {
          "internalType": "uint256",
          "name": "",
          "type": "uint256"
        }
      ],
      "stateMutability": "view",
      "type": "function"
    },
    {
      "inputs": [],
      "name": "totalparticipants",
      "outputs": [
        {
          "internalType": "uint256",
          "name": "",
          "type": "uint256"
        }
      ],
      "stateMutability": "view",
      "type": "function"
    },
    {
      "inputs": [
        {
          "internalType": "address",
          "name": "newOwner",
          "type": "address"
        }
      ],
      "name": "transferOwnership",
      "outputs": [],
      "stateMutability": "nonpayable",
      "type": "function"
    },
    {
      "stateMutability": "payable",
      "type": "receive"
    },
    {
      "inputs": [
        {
          "internalType": "uint256",
          "name": "_tierZeroValue",
          "type": "uint256"
        },
        {
          "internalType": "uint256",
          "name": "_tierOneValue",
          "type": "uint256"
        },
        {
          "internalType": "uint256",
          "name": "_tierTwoValue",
          "type": "uint256"
        }
      ],
      "name": "updateTierCaps",
      "outputs": [],
      "stateMutability": "nonpayable",
      "type": "function"
    },
    {
      "inputs": [
        {
          "internalType": "bool",
          "name": "_isPublic",
          "type": "bool"
        },
        {
          "internalType": "uint256",
          "name": "_salesStartTime",
          "type": "uint256"
        },
        {
          "internalType": "uint256",
          "name": "_salesEndTime",
          "type": "uint256"
        }
      ],
      "name": "changeTier",
      "outputs": [],
      "stateMutability": "nonpayable",
      "type": "function"
    },
    {
      "inputs": [
        {
          "internalType": "address",
          "name": "_address",
          "type": "address"
        }
      ],
      "name": "addWhitelistOne",
      "outputs": [],
      "stateMutability": "nonpayable",
      "type": "function"
    },
    {
      "inputs": [
        {
          "internalType": "address",
          "name": "_address",
          "type": "address"
        }
      ],
      "name": "addWhitelistTwo",
      "outputs": [],
      "stateMutability": "nonpayable",
      "type": "function"
    },
    {
      "inputs": [
        {
          "internalType": "address",
          "name": "_address",
          "type": "address"
        }
      ],
      "name": "getWhitelistOne",
      "outputs": [
        {
          "internalType": "bool",
          "name": "",
          "type": "bool"
        }
      ],
      "stateMutability": "view",
      "type": "function"
    },
    {
      "inputs": [
        {
          "internalType": "address",
          "name": "_address",
          "type": "address"
        }
      ],
      "name": "getWhitelistTwo",
      "outputs": [
        {
          "internalType": "bool",
          "name": "",
          "type": "bool"
        }
      ],
      "stateMutability": "view",
      "type": "function"
    }
  ],
  "bytecode": "0x6080604052681b1ae4d6e2ef5000006001553480156200001e57600080fd5b5060405162002e3638038062002e3683398181016040528101906200004491906200031c565b6200006462000058620001ab60201b60201c565b620001b360201b60201c565b60008060146101000a81548160ff021916908315150217905550846002819055508360038190555082600960006101000a81548173ffffffffffffffffffffffffffffffffffffffff021916908373ffffffffffffffffffffffffffffffffffffffff1602179055506064600154620000de919062000402565b82620000eb91906200043a565b600b81905550606460015462000102919062000402565b816200010f91906200043a565b600c81905550600c54600b546001546200012a91906200049b565b6200013691906200049b565b600a8190555067016345785d8a000060108190555067016345785d8a0000601181905550674563918244f400006012819055506801158e460913d00000600d81905550674563918244f40000600e819055506801158e460913d00000600f8190555060006008819055505050505050620004d6565b600033905090565b60008060009054906101000a900473ffffffffffffffffffffffffffffffffffffffff169050816000806101000a81548173ffffffffffffffffffffffffffffffffffffffff021916908373ffffffffffffffffffffffffffffffffffffffff1602179055508173ffffffffffffffffffffffffffffffffffffffff168173ffffffffffffffffffffffffffffffffffffffff167f8be0079c531659141344cd1fd0a4f28419497f9722a3daafe3b4186f6b6457e060405160405180910390a35050565b600080fd5b6000819050919050565b62000291816200027c565b81146200029d57600080fd5b50565b600081519050620002b18162000286565b92915050565b600073ffffffffffffffffffffffffffffffffffffffff82169050919050565b6000620002e482620002b7565b9050919050565b620002f681620002d7565b81146200030257600080fd5b50565b6000815190506200031681620002eb565b92915050565b600080600080600060a086880312156200033b576200033a62000277565b5b60006200034b88828901620002a0565b95505060206200035e88828901620002a0565b9450506040620003718882890162000305565b93505060606200038488828901620002a0565b92505060806200039788828901620002a0565b9150509295509295909350565b7f4e487b7100000000000000000000000000000000000000000000000000000000600052601260045260246000fd5b7f4e487b7100000000000000000000000000000000000000000000000000000000600052601160045260246000fd5b60006200040f826200027c565b91506200041c836200027c565b9250826200042f576200042e620003a4565b5b828204905092915050565b600062000447826200027c565b915062000454836200027c565b9250817fffffffffffffffffffffffffffffffffffffffffffffffffffffffffffffffff048311821515161562000490576200048f620003d3565b5b828202905092915050565b6000620004a8826200027c565b9150620004b5836200027c565b925082821015620004cb57620004ca620003d3565b5b828203905092915050565b61295080620004e66000396000f3fe6080604052600436106101e75760003560e01c8063823276c311610102578063b8307a3f11610095578063e8891b7d11610064578063e8891b7d146111df578063ed338ff11461120a578063f2fde38b14611235578063f78d950f1461125e57610ce6565b8063b8307a3f14611121578063b9ec0dde1461114c578063c1d5521014611189578063dc9a1535146111b457610ce6565b8063a3f4df7e116100d1578063a3f4df7e14611077578063a4475ce4146110a2578063a9cf27cf146110cd578063ae4fdad9146110f857610ce6565b8063823276c314610fb95780638da5cb5b14610fe4578063902576441461100f57806391ef119a1461103a57610ce6565b80634c0d8e8d1161017a5780635a81a53c116101495780635a81a53c14610f115780635c65c6ba14610f3c57806362ace63f14610f79578063715018a614610fa257610ce6565b80634c0d8e8d14610e535780634dce516814610e7e5780634e6ac05914610ebb57806350dd3b3814610ee657610ce6565b80631de07dc8116101b65780631de07dc814610d9557806323548b8b14610dd2578063244c4f1014610dfd578063434800fc14610e2857610ce6565b80630109988514610ceb5780630228ee6814610d1657806313f1328c14610d415780631cbaee2d14610d6a57610ce6565b36610ce657600254421015610231576040517f08c379a000000000000000000000000000000000000000000000000000000000815260040161022890611cdf565b60405180910390fd5b600354421115610276576040517f08c379a000000000000000000000000000000000000000000000000000000000815260040161026d90611d4b565b60405180910390fd5b600154346004546102879190611da4565b11156102c8576040517f08c379a00000000000000000000000000000000000000000000000000000000081526004016102bf90611e6c565b60405180910390fd5b600060149054906101000a900460ff16156106295760105434601560003373ffffffffffffffffffffffffffffffffffffffff1673ffffffffffffffffffffffffffffffffffffffff1681526020019081526020016000205461032b9190611da4565b101561036c576040517f08c379a000000000000000000000000000000000000000000000000000000000815260040161036390611ed8565b60405180910390fd5b600d5434601560003373ffffffffffffffffffffffffffffffffffffffff1673ffffffffffffffffffffffffffffffffffffffff168152602001908152602001600020546103ba9190611da4565b11156103fb576040517f08c379a00000000000000000000000000000000000000000000000000000000081526004016103f290611f6a565b60405180910390fd5b600a543460055461040c9190611da4565b111561044d576040517f08c379a000000000000000000000000000000000000000000000000000000000815260040161044490611ffc565b60405180910390fd5b600d5434601760003373ffffffffffffffffffffffffffffffffffffffff1673ffffffffffffffffffffffffffffffffffffffff16815260200190815260200160002054601660003373ffffffffffffffffffffffffffffffffffffffff1673ffffffffffffffffffffffffffffffffffffffff16815260200190815260200160002054601560003373ffffffffffffffffffffffffffffffffffffffff1673ffffffffffffffffffffffffffffffffffffffff1681526020019081526020016000205461051b9190611da4565b6105259190611da4565b61052f9190611da4565b1115610570576040517f08c379a00000000000000000000000000000000000000000000000000000000081526004016105679061208e565b60405180910390fd5b34601560003373ffffffffffffffffffffffffffffffffffffffff1673ffffffffffffffffffffffffffffffffffffffff16815260200190815260200160002060008282546105bf9190611da4565b9250508190555034600460008282546105d89190611da4565b9250508190555034600560008282546105f19190611da4565b92505081905550610624600960009054906101000a900473ffffffffffffffffffffffffffffffffffffffff1647611287565b610ce4565b6106323361137b565b156109835760115434601660003373ffffffffffffffffffffffffffffffffffffffff1673ffffffffffffffffffffffffffffffffffffffff168152602001908152602001600020546106859190611da4565b10156106c6576040517f08c379a00000000000000000000000000000000000000000000000000000000081526004016106bd90611ed8565b60405180910390fd5b600b54346006546106d79190611da4565b1115610718576040517f08c379a000000000000000000000000000000000000000000000000000000000815260040161070f90612120565b60405180910390fd5b600e5434601660003373ffffffffffffffffffffffffffffffffffffffff1673ffffffffffffffffffffffffffffffffffffffff168152602001908152602001600020546107669190611da4565b11156107a7576040517f08c379a000000000000000000000000000000000000000000000000000000000815260040161079e906121b2565b60405180910390fd5b600e5434601760003373ffffffffffffffffffffffffffffffffffffffff1673ffffffffffffffffffffffffffffffffffffffff16815260200190815260200160002054601660003373ffffffffffffffffffffffffffffffffffffffff1673ffffffffffffffffffffffffffffffffffffffff16815260200190815260200160002054601560003373ffffffffffffffffffffffffffffffffffffffff1673ffffffffffffffffffffffffffffffffffffffff168152602001908152602001600020546108759190611da4565b61087f9190611da4565b6108899190611da4565b11156108ca576040517f08c379a00000000000000000000000000000000000000000000000000000000081526004016108c19061208e565b60405180910390fd5b34601660003373ffffffffffffffffffffffffffffffffffffffff1673ffffffffffffffffffffffffffffffffffffffff16815260200190815260200160002060008282546109199190611da4565b9250508190555034600460008282546109329190611da4565b92505081905550346006600082825461094b9190611da4565b9250508190555061097e600960009054906101000a900473ffffffffffffffffffffffffffffffffffffffff1647611287565b610ce3565b61098c33611431565b15610cdd5760125434601760003373ffffffffffffffffffffffffffffffffffffffff1673ffffffffffffffffffffffffffffffffffffffff168152602001908152602001600020546109df9190611da4565b1015610a20576040517f08c379a0000000000000000000000000000000000000000000000000000000008152600401610a1790611ed8565b60405180910390fd5b600f5434601760003373ffffffffffffffffffffffffffffffffffffffff1673ffffffffffffffffffffffffffffffffffffffff16815260200190815260200160002054610a6e9190611da4565b1115610aaf576040517f08c379a0000000000000000000000000000000000000000000000000000000008152600401610aa690612244565b60405180910390fd5b600c5434600754610ac09190611da4565b1115610b01576040517f08c379a0000000000000000000000000000000000000000000000000000000008152600401610af8906122d6565b60405180910390fd5b600f5434601760003373ffffffffffffffffffffffffffffffffffffffff1673ffffffffffffffffffffffffffffffffffffffff16815260200190815260200160002054601660003373ffffffffffffffffffffffffffffffffffffffff1673ffffffffffffffffffffffffffffffffffffffff16815260200190815260200160002054601560003373ffffffffffffffffffffffffffffffffffffffff1673ffffffffffffffffffffffffffffffffffffffff16815260200190815260200160002054610bcf9190611da4565b610bd99190611da4565b610be39190611da4565b1115610c24576040517f08c379a0000000000000000000000000000000000000000000000000000000008152600401610c1b9061208e565b60405180910390fd5b34601760003373ffffffffffffffffffffffffffffffffffffffff1673ffffffffffffffffffffffffffffffffffffffff1681526020019081526020016000206000828254610c739190611da4565b925050819055503460046000828254610c8c9190611da4565b925050819055503460076000828254610ca59190611da4565b92505081905550610cd8600960009054906101000a900473ffffffffffffffffffffffffffffffffffffffff1647611287565b610ce2565b600080fd5b5b5b005b600080fd5b348015610cf757600080fd5b50610d006114e7565b604051610d0d9190612305565b60405180910390f35b348015610d2257600080fd5b50610d2b6114ed565b604051610d389190612305565b60405180910390f35b348015610d4d57600080fd5b50610d686004803603810190610d639190612389565b6114f3565b005b348015610d7657600080fd5b50610d7f61159c565b604051610d8c9190612305565b60405180910390f35b348015610da157600080fd5b50610dbc6004803603810190610db7919061243a565b6115a2565b604051610dc99190612305565b60405180910390f35b348015610dde57600080fd5b50610de76115ba565b604051610df49190612305565b60405180910390f35b348015610e0957600080fd5b50610e126115c0565b604051610e1f9190612305565b60405180910390f35b348015610e3457600080fd5b50610e3d6115c6565b604051610e4a9190612305565b60405180910390f35b348015610e5f57600080fd5b50610e686115cc565b604051610e759190612305565b60405180910390f35b348015610e8a57600080fd5b50610ea56004803603810190610ea0919061243a565b61137b565b604051610eb29190612476565b60405180910390f35b348015610ec757600080fd5b50610ed06115d2565b604051610edd9190612305565b60405180910390f35b348015610ef257600080fd5b50610efb6115d8565b604051610f089190612305565b60405180910390f35b348015610f1d57600080fd5b50610f266115de565b604051610f339190612305565b60405180910390f35b348015610f4857600080fd5b50610f636004803603810190610f5e919061243a565b6115e4565b604051610f709190612305565b60405180910390f35b348015610f8557600080fd5b50610fa06004803603810190610f9b919061243a565b6115fc565b005b348015610fae57600080fd5b50610fb761174e565b005b348015610fc557600080fd5b50610fce6117d6565b604051610fdb9190612305565b60405180910390f35b348015610ff057600080fd5b50610ff96117dc565b60405161100691906124a0565b60405180910390f35b34801561101b57600080fd5b50611024611805565b6040516110319190612305565b60405180910390f35b34801561104657600080fd5b50611061600480360381019061105c919061243a565b61180b565b60405161106e9190612305565b60405180910390f35b34801561108357600080fd5b5061108c611823565b6040516110999190612543565b60405180910390f35b3480156110ae57600080fd5b506110b761185c565b6040516110c49190612586565b60405180910390f35b3480156110d957600080fd5b506110e2611882565b6040516110ef9190612305565b60405180910390f35b34801561110457600080fd5b5061111f600480360381019061111a919061243a565b611888565b005b34801561112d57600080fd5b506111366119da565b6040516111439190612305565b60405180910390f35b34801561115857600080fd5b50611173600480360381019061116e919061243a565b611431565b6040516111809190612476565b60405180910390f35b34801561119557600080fd5b5061119e6119e0565b6040516111ab9190612305565b60405180910390f35b3480156111c057600080fd5b506111c96119e6565b6040516111d69190612476565b60405180910390f35b3480156111eb57600080fd5b506111f46119f9565b6040516112019190612305565b60405180910390f35b34801561121657600080fd5b5061121f6119ff565b60405161122c9190612305565b60405180910390f35b34801561124157600080fd5b5061125c6004803603810190611257919061243a565b611a05565b005b34801561126a57600080fd5b50611285600480360381019061128091906125a1565b611afd565b005b804710156112ca576040517f08c379a00000000000000000000000000000000000000000000000000000000081526004016112c190612640565b60405180910390fd5b60008273ffffffffffffffffffffffffffffffffffffffff16826040516112f090612691565b60006040518083038185875af1925050503d806000811461132d576040519150601f19603f3d011682016040523d82523d6000602084013e611332565b606091505b5050905080611376576040517f08c379a000000000000000000000000000000000000000000000000000000000815260040161136d90612718565b60405180910390fd5b505050565b60008060006013805490509050600091505b80821015611425578373ffffffffffffffffffffffffffffffffffffffff16601383815481106113c0576113bf612738565b5b9060005260206000200160009054906101000a900473ffffffffffffffffffffffffffffffffffffffff1673ffffffffffffffffffffffffffffffffffffffff1614156114125760019250505061142c565b818061141d90612767565b92505061138d565b6000925050505b919050565b60008060006014805490509050600091505b808210156114db578373ffffffffffffffffffffffffffffffffffffffff166014838154811061147657611475612738565b5b9060005260206000200160009054906101000a900473ffffffffffffffffffffffffffffffffffffffff1673ffffffffffffffffffffffffffffffffffffffff1614156114c8576001925050506114e2565b81806114d390612767565b925050611443565b6000925050505b919050565b60085481565b60105481565b6114fb611bb6565b73ffffffffffffffffffffffffffffffffffffffff166115196117dc565b73ffffffffffffffffffffffffffffffffffffffff161461156f576040517f08c379a0000000000000000000000000000000000000000000000000000000008152600401611566906127fc565b60405180910390fd5b82600060146101000a81548160ff0219169083151502179055508160028190555080600381905550505050565b60025481565b60156020528060005260406000206000915090505481565b60015481565b600c5481565b60125481565b60065481565b60115481565b60055481565b60075481565b60166020528060005260406000206000915090505481565b611604611bb6565b73ffffffffffffffffffffffffffffffffffffffff166116226117dc565b73ffffffffffffffffffffffffffffffffffffffff1614611678576040517f08c379a000000000000000000000000000000000000000000000000000000000815260040161166f906127fc565b60405180910390fd5b600073ffffffffffffffffffffffffffffffffffffffff168173ffffffffffffffffffffffffffffffffffffffff1614156116e8576040517f08c379a00000000000000000000000000000000000000000000000000000000081526004016116df90612868565b60405180910390fd5b6013819080600181540180825580915050600190039060005260206000200160009091909190916101000a81548173ffffffffffffffffffffffffffffffffffffffff021916908373ffffffffffffffffffffffffffffffffffffffff16021790555050565b611756611bb6565b73ffffffffffffffffffffffffffffffffffffffff166117746117dc565b73ffffffffffffffffffffffffffffffffffffffff16146117ca576040517f08c379a00000000000000000000000000000000000000000000000000000000081526004016117c1906127fc565b60405180910390fd5b6117d46000611bbe565b565b600b5481565b60008060009054906101000a900473ffffffffffffffffffffffffffffffffffffffff16905090565b600e5481565b60176020528060005260406000206000915090505481565b6040518060400160405280601081526020017f444d5420507269766174652053616c650000000000000000000000000000000081525081565b600960009054906101000a900473ffffffffffffffffffffffffffffffffffffffff1681565b600d5481565b611890611bb6565b73ffffffffffffffffffffffffffffffffffffffff166118ae6117dc565b73ffffffffffffffffffffffffffffffffffffffff1614611904576040517f08c379a00000000000000000000000000000000000000000000000000000000081526004016118fb906127fc565b60405180910390fd5b600073ffffffffffffffffffffffffffffffffffffffff168173ffffffffffffffffffffffffffffffffffffffff161415611974576040517f08c379a000000000000000000000000000000000000000000000000000000000815260040161196b90612868565b60405180910390fd5b6014819080600181540180825580915050600190039060005260206000200160009091909190916101000a81548173ffffffffffffffffffffffffffffffffffffffff021916908373ffffffffffffffffffffffffffffffffffffffff16021790555050565b60045481565b600a5481565b600060149054906101000a900460ff1681565b600f5481565b60035481565b611a0d611bb6565b73ffffffffffffffffffffffffffffffffffffffff16611a2b6117dc565b73ffffffffffffffffffffffffffffffffffffffff1614611a81576040517f08c379a0000000000000000000000000000000000000000000000000000000008152600401611a78906127fc565b60405180910390fd5b600073ffffffffffffffffffffffffffffffffffffffff168173ffffffffffffffffffffffffffffffffffffffff161415611af1576040517f08c379a0000000000000000000000000000000000000000000000000000000008152600401611ae8906128fa565b60405180910390fd5b611afa81611bbe565b50565b611b05611bb6565b73ffffffffffffffffffffffffffffffffffffffff16611b236117dc565b73ffffffffffffffffffffffffffffffffffffffff1614611b79576040517f08c379a0000000000000000000000000000000000000000000000000000000008152600401611b70906127fc565b60405180910390fd5b82600a8190555081600b8190555080600c81905550600c54600b54600a54611ba19190611da4565b611bab9190611da4565b600181905550505050565b600033905090565b60008060009054906101000a900473ffffffffffffffffffffffffffffffffffffffff169050816000806101000a81548173ffffffffffffffffffffffffffffffffffffffff021916908373ffffffffffffffffffffffffffffffffffffffff1602179055508173ffffffffffffffffffffffffffffffffffffffff168173ffffffffffffffffffffffffffffffffffffffff167f8be0079c531659141344cd1fd0a4f28419497f9722a3daafe3b4186f6b6457e060405160405180910390a35050565b600082825260208201905092915050565b7f5468652073616c65206973206e6f742073746172746564207965742000000000600082015250565b6000611cc9601c83611c82565b9150611cd482611c93565b602082019050919050565b60006020820190508181036000830152611cf881611cbc565b9050919050565b7f5468652073616c6520697320636c6f7365640000000000000000000000000000600082015250565b6000611d35601283611c82565b9150611d4082611cff565b602082019050919050565b60006020820190508181036000830152611d6481611d28565b9050919050565b6000819050919050565b7f4e487b7100000000000000000000000000000000000000000000000000000000600052601160045260246000fd5b6000611daf82611d6b565b9150611dba83611d6b565b9250827fffffffffffffffffffffffffffffffffffffffffffffffffffffffffffffffff03821115611def57611dee611d75565b5b828201905092915050565b7f627579546f6b656e733a20707572636861736520776f756c642065786365656460008201527f206d617820636170000000000000000000000000000000000000000000000000602082015250565b6000611e56602883611c82565b9150611e6182611dfa565b604082019050919050565b60006020820190508181036000830152611e8581611e49565b9050919050565b7f796f75722070757263686173696e6720506f77657220697320736f204c6f7700600082015250565b6000611ec2601f83611c82565b9150611ecd82611e8c565b602082019050919050565b60006020820190508181036000830152611ef181611eb5565b9050919050565b7f796f752061726520696e76657374696e67206d6f7265207468616e20796f757260008201527f205469657220302e30206c696d69742100000000000000000000000000000000602082015250565b6000611f54603083611c82565b9150611f5f82611ef8565b604082019050919050565b60006020820190508181036000830152611f8381611f47565b9050919050565b7f627579546f6b656e733a20707572636861736520776f756c642065786365656460008201527f2054696572206f6e65206d617820636170000000000000000000000000000000602082015250565b6000611fe6603183611c82565b9150611ff182611f8a565b604082019050919050565b6000602082019050818103600083015261201581611fd9565b9050919050565b7f627579546f6b656e733a596f752061726520696e76657374696e67206d6f726560008201527f207468616e20796f757220616c6c205469657273206c696d6974210000000000602082015250565b6000612078603b83611c82565b91506120838261201c565b604082019050919050565b600060208201905081810360008301526120a78161206b565b9050919050565b7f627579546f6b656e733a20707572636861736520776f756c642065786365656460008201527f205469657220312e30206d617820636170000000000000000000000000000000602082015250565b600061210a603183611c82565b9150612115826120ae565b604082019050919050565b60006020820190508181036000830152612139816120fd565b9050919050565b7f627579546f6b656e733a596f752061726520696e76657374696e67206d6f726560008201527f207468616e20796f7572205469657220312e30206c696d697421000000000000602082015250565b600061219c603a83611c82565b91506121a782612140565b604082019050919050565b600060208201905081810360008301526121cb8161218f565b9050919050565b7f627579546f6b656e733a596f752061726520696e76657374696e67206d6f726560008201527f207468616e20796f757220746965722d33206c696d6974210000000000000000602082015250565b600061222e603883611c82565b9150612239826121d2565b604082019050919050565b6000602082019050818103600083015261225d81612221565b9050919050565b7f627579546f6b656e733a20707572636861736520776f756c642065786365656460008201527f2054696572207468726565206d61782063617000000000000000000000000000602082015250565b60006122c0603383611c82565b91506122cb82612264565b604082019050919050565b600060208201905081810360008301526122ef816122b3565b9050919050565b6122ff81611d6b565b82525050565b600060208201905061231a60008301846122f6565b92915050565b600080fd5b60008115159050919050565b61233a81612325565b811461234557600080fd5b50565b60008135905061235781612331565b92915050565b61236681611d6b565b811461237157600080fd5b50565b6000813590506123838161235d565b92915050565b6000806000606084860312156123a2576123a1612320565b5b60006123b086828701612348565b93505060206123c186828701612374565b92505060406123d286828701612374565b9150509250925092565b600073ffffffffffffffffffffffffffffffffffffffff82169050919050565b6000612407826123dc565b9050919050565b612417816123fc565b811461242257600080fd5b50565b6000813590506124348161240e565b92915050565b6000602082840312156124505761244f612320565b5b600061245e84828501612425565b91505092915050565b61247081612325565b82525050565b600060208201905061248b6000830184612467565b92915050565b61249a816123fc565b82525050565b60006020820190506124b56000830184612491565b92915050565b600081519050919050565b60005b838110156124e45780820151818401526020810190506124c9565b838111156124f3576000848401525b50505050565b6000601f19601f8301169050919050565b6000612515826124bb565b61251f8185611c82565b935061252f8185602086016124c6565b612538816124f9565b840191505092915050565b6000602082019050818103600083015261255d818461250a565b905092915050565b6000612570826123dc565b9050919050565b61258081612565565b82525050565b600060208201905061259b6000830184612577565b92915050565b6000806000606084860312156125ba576125b9612320565b5b60006125c886828701612374565b93505060206125d986828701612374565b92505060406125ea86828701612374565b9150509250925092565b7f416464726573733a20696e73756666696369656e742062616c616e6365000000600082015250565b600061262a601d83611c82565b9150612635826125f4565b602082019050919050565b600060208201905081810360008301526126598161261d565b9050919050565b600081905092915050565b50565b600061267b600083612660565b91506126868261266b565b600082019050919050565b600061269c8261266e565b9150819050919050565b7f416464726573733a20756e61626c6520746f2073656e642076616c75652c207260008201527f6563697069656e74206d61792068617665207265766572746564000000000000602082015250565b6000612702603a83611c82565b915061270d826126a6565b604082019050919050565b60006020820190508181036000830152612731816126f5565b9050919050565b7f4e487b7100000000000000000000000000000000000000000000000000000000600052603260045260246000fd5b600061277282611d6b565b91507fffffffffffffffffffffffffffffffffffffffffffffffffffffffffffffffff8214156127a5576127a4611d75565b5b600182019050919050565b7f4f776e61626c653a2063616c6c6572206973206e6f7420746865206f776e6572600082015250565b60006127e6602083611c82565b91506127f1826127b0565b602082019050919050565b60006020820190508181036000830152612815816127d9565b9050919050565b7f496e76616c696420616464726573730000000000000000000000000000000000600082015250565b6000612852600f83611c82565b915061285d8261281c565b602082019050919050565b6000602082019050818103600083015261288181612845565b9050919050565b7f4f776e61626c653a206e6577206f776e657220697320746865207a65726f206160008201527f6464726573730000000000000000000000000000000000000000000000000000602082015250565b60006128e4602683611c82565b91506128ef82612888565b604082019050919050565b60006020820190508181036000830152612913816128d7565b905091905056fea2646970667358221220f8451b0edcc21bb792162a5992864823870c6d6da24d38f048fe3b384054d22f64736f6c63430008090033",
  "immutableReferences": {},
  "source": "// SPDX-License-Identifier: MIT\npragma solidity >=0.4.22 <0.9.0;\n\n/*\n *Demetra.finance\n *Security Provider\n *Inheritance protocol eliminates concerns about loss of crypto assets even after the death with assigning backup wallet or setup a will\n *Private sale contract with 3 Tiers with different allocation\n *Tier 0.0 -> public\n *Tier 1.0 -> 0.1 - 5 BNB\n *Tier 2.0 -> 5 - 20 BNB\n */\n\nimport \"@openzeppelin/contracts/utils/Address.sol\";\nimport \"@openzeppelin/contracts/access/Ownable.sol\";\n\ncontract DemetraPresale is Ownable {\n    \n    bool public isPublic;\n    //token attributes\n    string public constant NAME = \"DMT Private Sale\"; //name of the contract\n    uint256 public  maxCap = 500 * (10**18); // Max cap in BNB\n\n    uint256 public saleStartTime; // start sale time\n    uint256 public saleEndTime; // end sale time in tier 1\n\n    uint256 public totalBnbReceivedInAllTier; // total bnd received\n\n    uint256 public totalBnbInTierZero; // total bnb for tier Zero\n    uint256 public totalBnbInTierOne; // total bnb for tier one\n    uint256 public totalBnbInTierTwo; // total bnb for tier two\n\n    uint256 public totalparticipants; // total participants\n    address payable public projectOwner; // project Owner\n\n    // max cap per tier\n\n    uint256 public tierZeroMaxCap;\n    uint256 public tierOneMaxCap;\n    uint256 public tierTwoMaxCap;\n\n    //max allocations per user in a tier\n\n    uint256 public maxAllocaPerUserTierZero;\n    uint256 public maxAllocaPerUserTierOne;\n    uint256 public maxAllocaPerUserTierTwo;\n\n    //min allocation per user in a tier\n\n    uint256 public minAllocaPerUserTierZero;\n    uint256 public minAllocaPerUserTierOne;\n    uint256 public minAllocaPerUserTierTwo;\n\n    //tier 1 is public no whitelist\n    // address array for tier one whitelist\n    //address[] private whitelistTierOne;\n    address[] private whitelistTierOne;\n    address[] private whitelistTierTwo;\n\n    //mapping the user purchase per tier\n\n    mapping(address => uint256) public buyInTierZero;\n    mapping(address => uint256) public buyInTierOne;\n    mapping(address => uint256) public buyInTierTwo;\n\n    \n\n    // CONSTRUCTOR\n    constructor(\n        uint256 _saleStartTime,\n        uint256 _saleEndTime,\n        address payable _projectOwner,\n        uint256 _tierOneValue, //percentage eg = 30\n        uint256 _tierTwoValue //percentage eg = 70\n      ) {\n        isPublic = false; //whitelist\n\n        saleStartTime = _saleStartTime;\n        saleEndTime = _saleEndTime;\n\n        projectOwner = _projectOwner;\n\n        tierOneMaxCap = _tierOneValue * (maxCap / 100);\n        tierTwoMaxCap = _tierTwoValue * (maxCap / 100);\n        tierZeroMaxCap = maxCap - tierOneMaxCap - tierTwoMaxCap; //public\n\n        minAllocaPerUserTierZero = 10 **17;\n        minAllocaPerUserTierOne = 10**17;\n        minAllocaPerUserTierTwo = 5 * (10**18);\n\n        maxAllocaPerUserTierZero = 20 * 10**18;\n        maxAllocaPerUserTierOne = 5 * 10**18;\n        maxAllocaPerUserTierTwo = 20 * 10**18;\n\n        totalparticipants = 0;\n    }\n\n    // function to update the tiers value manually\n    function updateTierCaps(\n        uint256 _tierZeroValue,\n        uint256 _tierOneValue,\n        uint256 _tierTwoValue\n      ) external onlyOwner {\n        tierZeroMaxCap = _tierZeroValue;\n        tierOneMaxCap = _tierOneValue;\n        tierTwoMaxCap = _tierTwoValue;\n        maxCap = tierZeroMaxCap + tierOneMaxCap + tierTwoMaxCap;\n\n        //maxAllocaPerUserTierOne = tierOneMaxCap / totalUserInTierOne;\n        //maxAllocaPerUserTierTwo = tierTwoMaxCap / totalUserInTierTwo;\n    }\n\n     //function to set tier manually\n    function changeTier(\n        bool _isPublic,\n        uint256 _salesStartTime,\n        uint256 _salesEndTime\n    ) external onlyOwner {\n        isPublic = _isPublic;\n        saleStartTime = _salesStartTime;\n        saleEndTime = _salesEndTime;\n    }\n\n    //add the address in Whitelist tier one to invest\n    function addWhitelistOne(address _address) external onlyOwner {\n        require(_address != address(0), \"Invalid address\");\n        whitelistTierOne.push(_address);\n    }\n\n    //add the address in Whitelist tier two to invest\n    function addWhitelistTwo(address _address) external onlyOwner {\n        require(_address != address(0), \"Invalid address\");\n        whitelistTierTwo.push(_address);\n    }\n\n   \n\n    // check the address in whitelist tier two\n    function getWhitelistOne(address _address) public view returns (bool) {\n        uint256 i;\n        uint256 length = whitelistTierOne.length;\n        for (i = 0; i < length; i++) {\n            if (whitelistTierOne[i] == _address) {\n                return true;\n            }\n        }\n        return false;\n    }\n\n    // check the address in whitelist tier three\n    function getWhitelistTwo(address _address) public view returns (bool) {\n        uint256 i;\n        uint256 length = whitelistTierTwo.length;\n        for (i = 0; i < length; i++) {\n            if (whitelistTierTwo[i] == _address) {\n                return true;\n            }\n        }\n        return false;\n    }\n\n    \n\n    // send bnb to the contract address\n    receive() external payable {\n        require(\n            block.timestamp >= saleStartTime,\n            \"The sale is not started yet \"\n        ); // solhint-disable\n        require(block.timestamp <= saleEndTime, \"The sale is closed\"); // solhint-disable\n        require(\n            totalBnbReceivedInAllTier + msg.value <= maxCap,\n            \"buyTokens: purchase would exceed max cap\"\n        );\n\n        if (isPublic) {\n            require(\n                buyInTierZero[msg.sender] + msg.value >= minAllocaPerUserTierZero,\n                \"your purchasing Power is so Low\"\n            );\n            require(\n                buyInTierZero[msg.sender] + msg.value <= maxAllocaPerUserTierZero,\n                \"you are investing more than your Tier 0.0 limit!\"\n            );\n            require(\n                totalBnbInTierZero + msg.value <= tierZeroMaxCap,\n                \"buyTokens: purchase would exceed Tier one max cap\"\n            );\n            require(\n                buyInTierZero[msg.sender] +buyInTierOne[msg.sender] +buyInTierTwo[msg.sender] + msg.value <= maxAllocaPerUserTierZero,\n                \"buyTokens:You are investing more than your all Tiers limit!\"\n            );\n\n            \n\n            buyInTierZero[msg.sender] += msg.value;\n            totalBnbReceivedInAllTier += msg.value;\n            totalBnbInTierZero += msg.value;\n            \n             //payable(projectOwner).transfer(address(this).balance);\n             Address.sendValue(payable(projectOwner), address(this).balance);\n             //payable(projectOwner).sendValue(projectOwner,address(this).balance);\n        } else if (getWhitelistOne(msg.sender)) {\n            require(\n                buyInTierOne[msg.sender] + msg.value >= minAllocaPerUserTierOne,\n                \"your purchasing Power is so Low\"\n            );\n            require(\n                totalBnbInTierOne + msg.value <= tierOneMaxCap,\n                \"buyTokens: purchase would exceed Tier 1.0 max cap\"\n            );\n            require(\n                buyInTierOne[msg.sender] + msg.value <= maxAllocaPerUserTierOne,\n                \"buyTokens:You are investing more than your Tier 1.0 limit!\"\n            );\n            require(\n                buyInTierZero[msg.sender] +buyInTierOne[msg.sender] +buyInTierTwo[msg.sender] + msg.value <= maxAllocaPerUserTierOne,\n                \"buyTokens:You are investing more than your all Tiers limit!\"\n            );\n\n            buyInTierOne[msg.sender] += msg.value;\n            totalBnbReceivedInAllTier += msg.value;\n            totalBnbInTierOne += msg.value;\n            //sendValue(projectOwner, address(this).balance);\n            //payable(projectOwner).transfer(address(this).balance);\n            Address.sendValue(payable(projectOwner), address(this).balance);\n        } else if (getWhitelistTwo(msg.sender)) {\n            require(\n                buyInTierTwo[msg.sender] + msg.value >=\n                    minAllocaPerUserTierTwo,\n                \"your purchasing Power is so Low\"\n            );\n            require(\n                buyInTierTwo[msg.sender] + msg.value <=\n                    maxAllocaPerUserTierTwo,\n                \"buyTokens:You are investing more than your tier-3 limit!\"\n            );\n            require(\n                totalBnbInTierTwo + msg.value <= tierTwoMaxCap,\n                \"buyTokens: purchase would exceed Tier three max cap\"\n            );\n            require(\n                buyInTierZero[msg.sender] +buyInTierOne[msg.sender] +buyInTierTwo[msg.sender] + msg.value <= maxAllocaPerUserTierTwo,\n                \"buyTokens:You are investing more than your all Tiers limit!\"\n            );\n            buyInTierTwo[msg.sender] += msg.value;\n            totalBnbReceivedInAllTier += msg.value;\n            totalBnbInTierTwo += msg.value;\n            //payable(projectOwner).transfer(address(this).balance);\n            Address.sendValue(payable(projectOwner), address(this).balance);\n        } else {\n            revert();\n        }\n    }\n}\n\n",
  "sourcePath": "/Users/home/Desktop/DemetraFinance/Contracts/PreSale Contract/contracts/DemetraPresale.sol",
  "compiler": {
    "name": "solc",
    "version": "0.8.9+commit.e5eed63a.Emscripten.clang"
  },
  "schemaVersion": "3.4.3",
  "updatedAt": "2022-04-08T09:43:03.577Z",
  "devdoc": {
    "kind": "dev",
    "methods": {
      "owner()": {
        "details": "Returns the address of the current owner."
      },
      "renounceOwnership()": {
        "details": "Leaves the contract without owner. It will not be possible to call `onlyOwner` functions anymore. Can only be called by the current owner. NOTE: Renouncing ownership will leave the contract without an owner, thereby removing any functionality that is only available to the owner."
      },
      "transferOwnership(address)": {
        "details": "Transfers ownership of the contract to a new account (`newOwner`). Can only be called by the current owner."
      }
    },
    "version": 1
  },
  "userdoc": {
    "kind": "user",
    "methods": {},
    "version": 1
  }
}