{
  "contractName": "DemetraPrivateSale",
  "abi": [
    {
      "inputs": [
        {
          "internalType": "uint256",
          "name": "_saleStartTime",
          "type": "uint256"
        },
        {
          "internalType": "uint256",
          "name": "_saleEndTime",
          "type": "uint256"
        },
        {
          "internalType": "address payable",
          "name": "_projectOwner",
          "type": "address"
        },
        {
          "internalType": "uint256",
          "name": "_tierOneValue",
          "type": "uint256"
        },
        {
          "internalType": "uint256",
          "name": "_tierTwoValue",
          "type": "uint256"
        },
        {
          "internalType": "address[]",
          "name": "_whitelistTierOne",
          "type": "address[]"
        },
        {
          "internalType": "address[]",
          "name": "_whitelistTierTwo",
          "type": "address[]"
        }
      ],
      "stateMutability": "nonpayable",
      "type": "constructor"
    },
    {
      "anonymous": false,
      "inputs": [
        {
          "indexed": true,
          "internalType": "address",
          "name": "previousOwner",
          "type": "address"
        },
        {
          "indexed": true,
          "internalType": "address",
          "name": "newOwner",
          "type": "address"
        }
      ],
      "name": "OwnershipTransferred",
      "type": "event"
    },
    {
      "inputs": [],
      "name": "NAME",
      "outputs": [
        {
          "internalType": "string",
          "name": "",
          "type": "string"
        }
      ],
      "stateMutability": "view",
      "type": "function",
      "constant": true
    },
    {
      "inputs": [
        {
          "internalType": "address",
          "name": "",
          "type": "address"
        }
      ],
      "name": "buyInTierOne",
      "outputs": [
        {
          "internalType": "uint256",
          "name": "",
          "type": "uint256"
        }
      ],
      "stateMutability": "view",
      "type": "function",
      "constant": true
    },
    {
      "inputs": [
        {
          "internalType": "address",
          "name": "",
          "type": "address"
        }
      ],
      "name": "buyInTierTwo",
      "outputs": [
        {
          "internalType": "uint256",
          "name": "",
          "type": "uint256"
        }
      ],
      "stateMutability": "view",
      "type": "function",
      "constant": true
    },
    {
      "inputs": [
        {
          "internalType": "address",
          "name": "",
          "type": "address"
        }
      ],
      "name": "buyInTierZero",
      "outputs": [
        {
          "internalType": "uint256",
          "name": "",
          "type": "uint256"
        }
      ],
      "stateMutability": "view",
      "type": "function",
      "constant": true
    },
    {
      "inputs": [],
      "name": "isPublic",
      "outputs": [
        {
          "internalType": "bool",
          "name": "",
          "type": "bool"
        }
      ],
      "stateMutability": "view",
      "type": "function",
      "constant": true
    },
    {
      "inputs": [],
      "name": "maxAllocaPerUserTierOne",
      "outputs": [
        {
          "internalType": "uint256",
          "name": "",
          "type": "uint256"
        }
      ],
      "stateMutability": "view",
      "type": "function",
      "constant": true
    },
    {
      "inputs": [],
      "name": "maxAllocaPerUserTierTwo",
      "outputs": [
        {
          "internalType": "uint256",
          "name": "",
          "type": "uint256"
        }
      ],
      "stateMutability": "view",
      "type": "function",
      "constant": true
    },
    {
      "inputs": [],
      "name": "maxAllocaPerUserTierZero",
      "outputs": [
        {
          "internalType": "uint256",
          "name": "",
          "type": "uint256"
        }
      ],
      "stateMutability": "view",
      "type": "function",
      "constant": true
    },
    {
      "inputs": [],
      "name": "maxCap",
      "outputs": [
        {
          "internalType": "uint256",
          "name": "",
          "type": "uint256"
        }
      ],
      "stateMutability": "view",
      "type": "function",
      "constant": true
    },
    {
      "inputs": [],
      "name": "minAllocaPerUserTierOne",
      "outputs": [
        {
          "internalType": "uint256",
          "name": "",
          "type": "uint256"
        }
      ],
      "stateMutability": "view",
      "type": "function",
      "constant": true
    },
    {
      "inputs": [],
      "name": "minAllocaPerUserTierTwo",
      "outputs": [
        {
          "internalType": "uint256",
          "name": "",
          "type": "uint256"
        }
      ],
      "stateMutability": "view",
      "type": "function",
      "constant": true
    },
    {
      "inputs": [],
      "name": "minAllocaPerUserTierZero",
      "outputs": [
        {
          "internalType": "uint256",
          "name": "",
          "type": "uint256"
        }
      ],
      "stateMutability": "view",
      "type": "function",
      "constant": true
    },
    {
      "inputs": [],
      "name": "owner",
      "outputs": [
        {
          "internalType": "address",
          "name": "",
          "type": "address"
        }
      ],
      "stateMutability": "view",
      "type": "function",
      "constant": true
    },
    {
      "inputs": [],
      "name": "projectOwner",
      "outputs": [
        {
          "internalType": "address payable",
          "name": "",
          "type": "address"
        }
      ],
      "stateMutability": "view",
      "type": "function",
      "constant": true
    },
    {
      "inputs": [],
      "name": "renounceOwnership",
      "outputs": [],
      "stateMutability": "nonpayable",
      "type": "function"
    },
    {
      "inputs": [],
      "name": "saleEndTime",
      "outputs": [
        {
          "internalType": "uint256",
          "name": "",
          "type": "uint256"
        }
      ],
      "stateMutability": "view",
      "type": "function",
      "constant": true
    },
    {
      "inputs": [],
      "name": "saleStartTime",
      "outputs": [
        {
          "internalType": "uint256",
          "name": "",
          "type": "uint256"
        }
      ],
      "stateMutability": "view",
      "type": "function",
      "constant": true
    },
    {
      "inputs": [],
      "name": "tierOneMaxCap",
      "outputs": [
        {
          "internalType": "uint256",
          "name": "",
          "type": "uint256"
        }
      ],
      "stateMutability": "view",
      "type": "function",
      "constant": true
    },
    {
      "inputs": [
        {
          "internalType": "uint256",
          "name": "",
          "type": "uint256"
        }
      ],
      "name": "tierOneParticipants",
      "outputs": [
        {
          "internalType": "address",
          "name": "",
          "type": "address"
        }
      ],
      "stateMutability": "view",
      "type": "function",
      "constant": true
    },
    {
      "inputs": [],
      "name": "tierTwoMaxCap",
      "outputs": [
        {
          "internalType": "uint256",
          "name": "",
          "type": "uint256"
        }
      ],
      "stateMutability": "view",
      "type": "function",
      "constant": true
    },
    {
      "inputs": [
        {
          "internalType": "uint256",
          "name": "",
          "type": "uint256"
        }
      ],
      "name": "tierTwoParticipants",
      "outputs": [
        {
          "internalType": "address",
          "name": "",
          "type": "address"
        }
      ],
      "stateMutability": "view",
      "type": "function",
      "constant": true
    },
    {
      "inputs": [],
      "name": "tierZeroMaxCap",
      "outputs": [
        {
          "internalType": "uint256",
          "name": "",
          "type": "uint256"
        }
      ],
      "stateMutability": "view",
      "type": "function",
      "constant": true
    },
    {
      "inputs": [
        {
          "internalType": "uint256",
          "name": "",
          "type": "uint256"
        }
      ],
      "name": "tierZeroParticipants",
      "outputs": [
        {
          "internalType": "address",
          "name": "",
          "type": "address"
        }
      ],
      "stateMutability": "view",
      "type": "function",
      "constant": true
    },
    {
      "inputs": [],
      "name": "totalBnbInTierOne",
      "outputs": [
        {
          "internalType": "uint256",
          "name": "",
          "type": "uint256"
        }
      ],
      "stateMutability": "view",
      "type": "function",
      "constant": true
    },
    {
      "inputs": [],
      "name": "totalBnbInTierTwo",
      "outputs": [
        {
          "internalType": "uint256",
          "name": "",
          "type": "uint256"
        }
      ],
      "stateMutability": "view",
      "type": "function",
      "constant": true
    },
    {
      "inputs": [],
      "name": "totalBnbInTierZero",
      "outputs": [
        {
          "internalType": "uint256",
          "name": "",
          "type": "uint256"
        }
      ],
      "stateMutability": "view",
      "type": "function",
      "constant": true
    },
    {
      "inputs": [],
      "name": "totalBnbReceivedInAllTier",
      "outputs": [
        {
          "internalType": "uint256",
          "name": "",
          "type": "uint256"
        }
      ],
      "stateMutability": "view",
      "type": "function",
      "constant": true
    },
    {
      "inputs": [],
      "name": "totalparticipants",
      "outputs": [
        {
          "internalType": "uint256",
          "name": "",
          "type": "uint256"
        }
      ],
      "stateMutability": "view",
      "type": "function",
      "constant": true
    },
    {
      "inputs": [
        {
          "internalType": "address",
          "name": "newOwner",
          "type": "address"
        }
      ],
      "name": "transferOwnership",
      "outputs": [],
      "stateMutability": "nonpayable",
      "type": "function"
    },
    {
      "stateMutability": "payable",
      "type": "receive",
      "payable": true
    },
    {
      "inputs": [
        {
          "internalType": "bool",
          "name": "_isPublic",
          "type": "bool"
        },
        {
          "internalType": "uint256",
          "name": "_tierOneValue",
          "type": "uint256"
        },
        {
          "internalType": "uint256",
          "name": "_tierTwoValue",
          "type": "uint256"
        }
      ],
      "name": "changeTier",
      "outputs": [],
      "stateMutability": "nonpayable",
      "type": "function"
    },
    {
      "inputs": [
        {
          "internalType": "uint256",
          "name": "start",
          "type": "uint256"
        }
      ],
      "name": "setStartTime",
      "outputs": [],
      "stateMutability": "nonpayable",
      "type": "function"
    },
    {
      "inputs": [
        {
          "internalType": "uint256",
          "name": "end",
          "type": "uint256"
        }
      ],
      "name": "setEndTime",
      "outputs": [],
      "stateMutability": "nonpayable",
      "type": "function"
    },
    {
      "inputs": [
        {
          "internalType": "address",
          "name": "_address",
          "type": "address"
        }
      ],
      "name": "addWhitelistOne",
      "outputs": [],
      "stateMutability": "nonpayable",
      "type": "function"
    },
    {
      "inputs": [
        {
          "internalType": "address",
          "name": "_address",
          "type": "address"
        }
      ],
      "name": "addWhitelistTwo",
      "outputs": [],
      "stateMutability": "nonpayable",
      "type": "function"
    },
    {
      "inputs": [],
      "name": "getTierOneParticipants",
      "outputs": [
        {
          "internalType": "address[]",
          "name": "tier1",
          "type": "address[]"
        }
      ],
      "stateMutability": "view",
      "type": "function",
      "constant": true
    },
    {
      "inputs": [],
      "name": "getTierTwoParticipants",
      "outputs": [
        {
          "internalType": "address[]",
          "name": "tier2",
          "type": "address[]"
        }
      ],
      "stateMutability": "view",
      "type": "function",
      "constant": true
    },
    {
      "inputs": [
        {
          "internalType": "address",
          "name": "_address",
          "type": "address"
        }
      ],
      "name": "getWhitelistOne",
      "outputs": [
        {
          "internalType": "bool",
          "name": "",
          "type": "bool"
        }
      ],
      "stateMutability": "view",
      "type": "function",
      "constant": true
    },
    {
      "inputs": [
        {
          "internalType": "address",
          "name": "_address",
          "type": "address"
        }
      ],
      "name": "getWhitelistTwo",
      "outputs": [
        {
          "internalType": "bool",
          "name": "",
          "type": "bool"
        }
      ],
      "stateMutability": "view",
      "type": "function",
      "constant": true
    }
  ],
  "bytecode": "0x60806040526815af1d78b58c4000006001553480156200001e57600080fd5b50604051620039213803806200392183398181016040528101906200004491906200062f565b6200006462000058620002f560201b60201c565b620002fd60201b60201c565b60008060146101000a81548160ff021916908315150217905550866002819055508560038190555084600960006101000a81548173ffffffffffffffffffffffffffffffffffffffff021916908373ffffffffffffffffffffffffffffffffffffffff1602179055506064600154620000de91906200077e565b84620000eb9190620007b6565b600b8190555060646001546200010291906200077e565b836200010f9190620007b6565b600c81905550600c54600b546001546200012a919062000817565b62000136919062000817565b600a8190555067016345785d8a000060108190555067016345785d8a0000601181905550674563918244f400006012819055506801158e460913d00000600d81905550674563918244f40000600e819055506801158e460913d00000600f8190555060005b82518110156200023b576013838281518110620001bd57620001bc62000852565b5b60200260200101519080600181540180825580915050600190039060005260206000200160009091909190916101000a81548173ffffffffffffffffffffffffffffffffffffffff021916908373ffffffffffffffffffffffffffffffffffffffff1602179055508080620002329062000881565b9150506200019b565b5060005b8151811015620002df57601482828151811062000261576200026062000852565b5b60200260200101519080600181540180825580915050600190039060005260206000200160009091909190916101000a81548173ffffffffffffffffffffffffffffffffffffffff021916908373ffffffffffffffffffffffffffffffffffffffff1602179055508080620002d69062000881565b9150506200023f565b50600060088190555050505050505050620008cf565b600033905090565b60008060009054906101000a900473ffffffffffffffffffffffffffffffffffffffff169050816000806101000a81548173ffffffffffffffffffffffffffffffffffffffff021916908373ffffffffffffffffffffffffffffffffffffffff1602179055508173ffffffffffffffffffffffffffffffffffffffff168173ffffffffffffffffffffffffffffffffffffffff167f8be0079c531659141344cd1fd0a4f28419497f9722a3daafe3b4186f6b6457e060405160405180910390a35050565b6000604051905090565b600080fd5b600080fd5b6000819050919050565b620003ea81620003d5565b8114620003f657600080fd5b50565b6000815190506200040a81620003df565b92915050565b600073ffffffffffffffffffffffffffffffffffffffff82169050919050565b60006200043d8262000410565b9050919050565b6200044f8162000430565b81146200045b57600080fd5b50565b6000815190506200046f8162000444565b92915050565b600080fd5b6000601f19601f8301169050919050565b7f4e487b7100000000000000000000000000000000000000000000000000000000600052604160045260246000fd5b620004c5826200047a565b810181811067ffffffffffffffff82111715620004e757620004e66200048b565b5b80604052505050565b6000620004fc620003c1565b90506200050a8282620004ba565b919050565b600067ffffffffffffffff8211156200052d576200052c6200048b565b5b602082029050602081019050919050565b600080fd5b6000620005508262000410565b9050919050565b620005628162000543565b81146200056e57600080fd5b50565b600081519050620005828162000557565b92915050565b60006200059f62000599846200050f565b620004f0565b90508083825260208201905060208402830185811115620005c557620005c46200053e565b5b835b81811015620005f25780620005dd888262000571565b845260208401935050602081019050620005c7565b5050509392505050565b600082601f83011262000614576200061362000475565b5b81516200062684826020860162000588565b91505092915050565b600080600080600080600060e0888a031215620006515762000650620003cb565b5b6000620006618a828b01620003f9565b9750506020620006748a828b01620003f9565b9650506040620006878a828b016200045e565b95505060606200069a8a828b01620003f9565b9450506080620006ad8a828b01620003f9565b93505060a088015167ffffffffffffffff811115620006d157620006d0620003d0565b5b620006df8a828b01620005fc565b92505060c088015167ffffffffffffffff811115620007035762000702620003d0565b5b620007118a828b01620005fc565b91505092959891949750929550565b7f4e487b7100000000000000000000000000000000000000000000000000000000600052601260045260246000fd5b7f4e487b7100000000000000000000000000000000000000000000000000000000600052601160045260246000fd5b60006200078b82620003d5565b91506200079883620003d5565b925082620007ab57620007aa62000720565b5b828204905092915050565b6000620007c382620003d5565b9150620007d083620003d5565b9250817fffffffffffffffffffffffffffffffffffffffffffffffffffffffffffffffff04831182151516156200080c576200080b6200074f565b5b828202905092915050565b60006200082482620003d5565b91506200083183620003d5565b9250828210156200084757620008466200074f565b5b828203905092915050565b7f4e487b7100000000000000000000000000000000000000000000000000000000600052603260045260246000fd5b60006200088e82620003d5565b91507fffffffffffffffffffffffffffffffffffffffffffffffffffffffffffffffff821415620008c457620008c36200074f565b5b600182019050919050565b61304280620008df6000396000f3fe6080604052600436106102295760003560e01c8063823276c311610123578063ae4fdad9116100ab578063ccb98ffc1161006f578063ccb98ffc14611455578063dc9a15351461147e578063e8891b7d146114a9578063ed338ff1146114d4578063f2fde38b146114ff57610e51565b8063ae4fdad91461136e578063b6fe677a14611397578063b8307a3f146113c2578063b9ec0dde146113ed578063c1d552101461142a57610e51565b806391ef119a116100f257806391ef119a14611273578063a3f4df7e146112b0578063a4475ce4146112db578063a9cf27cf14611306578063aa5baf211461133157610e51565b8063823276c3146111b55780638d8fcbb6146111e05780638da5cb5b1461121d578063902576441461124857610e51565b8063434800fc116101b157806350dd3b381161017557806350dd3b38146110e25780635a81a53c1461110d5780635c65c6ba1461113857806362ace63f14611175578063715018a61461119e57610e51565b8063434800fc14610fe75780634c0d8e8d146110125780634dce51681461103d5780634e6ac0591461107a578063507eb813146110a557610e51565b80631cbaee2d116101f85780631cbaee2d14610f005780631de07dc814610f2b57806323548b8b14610f68578063244c4f1014610f935780633e0a322d14610fbe57610e51565b80630109988514610e565780630228ee6814610e815780630859ecf614610eac57806313f1328c14610ed757610e51565b36610e5157600254421015610273576040517f08c379a000000000000000000000000000000000000000000000000000000000815260040161026a90612229565b60405180910390fd5b6003544211156102b8576040517f08c379a00000000000000000000000000000000000000000000000000000000081526004016102af90612295565b60405180910390fd5b600154346004546102c991906122ee565b111561030a576040517f08c379a0000000000000000000000000000000000000000000000000000000008152600401610301906123b6565b60405180910390fd5b600060149054906101000a900460ff16156106ce5760105434601560003373ffffffffffffffffffffffffffffffffffffffff1673ffffffffffffffffffffffffffffffffffffffff1681526020019081526020016000205461036d91906122ee565b10156103ae576040517f08c379a00000000000000000000000000000000000000000000000000000000081526004016103a590612422565b60405180910390fd5b600d5434601560003373ffffffffffffffffffffffffffffffffffffffff1673ffffffffffffffffffffffffffffffffffffffff168152602001908152602001600020546103fc91906122ee565b111561043d576040517f08c379a0000000000000000000000000000000000000000000000000000000008152600401610434906124b4565b60405180910390fd5b600a543460055461044e91906122ee565b111561048f576040517f08c379a000000000000000000000000000000000000000000000000000000000815260040161048690612546565b60405180910390fd5b600d5434601760003373ffffffffffffffffffffffffffffffffffffffff1673ffffffffffffffffffffffffffffffffffffffff16815260200190815260200160002054601660003373ffffffffffffffffffffffffffffffffffffffff1673ffffffffffffffffffffffffffffffffffffffff16815260200190815260200160002054601560003373ffffffffffffffffffffffffffffffffffffffff1673ffffffffffffffffffffffffffffffffffffffff1681526020019081526020016000205461055d91906122ee565b61056791906122ee565b61057191906122ee565b11156105b2576040517f08c379a00000000000000000000000000000000000000000000000000000000081526004016105a9906125d8565b60405180910390fd5b34601560003373ffffffffffffffffffffffffffffffffffffffff1673ffffffffffffffffffffffffffffffffffffffff168152602001908152602001600020600082825461060191906122ee565b925050819055506018339080600181540180825580915050600190039060005260206000200160009091909190916101000a81548173ffffffffffffffffffffffffffffffffffffffff021916908373ffffffffffffffffffffffffffffffffffffffff160217905550346004600082825461067d91906122ee565b92505081905550346005600082825461069691906122ee565b925050819055506106c9600960009054906101000a900473ffffffffffffffffffffffffffffffffffffffff1647611528565b610e4f565b6106d73361161c565b15610a8b5760115434601660003373ffffffffffffffffffffffffffffffffffffffff1673ffffffffffffffffffffffffffffffffffffffff1681526020019081526020016000205461072a91906122ee565b101561076b576040517f08c379a000000000000000000000000000000000000000000000000000000000815260040161076290612422565b60405180910390fd5b600b543460065461077c91906122ee565b11156107bd576040517f08c379a00000000000000000000000000000000000000000000000000000000081526004016107b49061266a565b60405180910390fd5b600e5434601660003373ffffffffffffffffffffffffffffffffffffffff1673ffffffffffffffffffffffffffffffffffffffff1681526020019081526020016000205461080b91906122ee565b111561084c576040517f08c379a0000000000000000000000000000000000000000000000000000000008152600401610843906126fc565b60405180910390fd5b600e5434601760003373ffffffffffffffffffffffffffffffffffffffff1673ffffffffffffffffffffffffffffffffffffffff16815260200190815260200160002054601660003373ffffffffffffffffffffffffffffffffffffffff1673ffffffffffffffffffffffffffffffffffffffff16815260200190815260200160002054601560003373ffffffffffffffffffffffffffffffffffffffff1673ffffffffffffffffffffffffffffffffffffffff1681526020019081526020016000205461091a91906122ee565b61092491906122ee565b61092e91906122ee565b111561096f576040517f08c379a0000000000000000000000000000000000000000000000000000000008152600401610966906125d8565b60405180910390fd5b34601660003373ffffffffffffffffffffffffffffffffffffffff1673ffffffffffffffffffffffffffffffffffffffff16815260200190815260200160002060008282546109be91906122ee565b925050819055506019339080600181540180825580915050600190039060005260206000200160009091909190916101000a81548173ffffffffffffffffffffffffffffffffffffffff021916908373ffffffffffffffffffffffffffffffffffffffff1602179055503460046000828254610a3a91906122ee565b925050819055503460066000828254610a5391906122ee565b92505081905550610a86600960009054906101000a900473ffffffffffffffffffffffffffffffffffffffff1647611528565b610e4e565b610a94336116d2565b15610e485760125434601760003373ffffffffffffffffffffffffffffffffffffffff1673ffffffffffffffffffffffffffffffffffffffff16815260200190815260200160002054610ae791906122ee565b1015610b28576040517f08c379a0000000000000000000000000000000000000000000000000000000008152600401610b1f90612422565b60405180910390fd5b600f5434601760003373ffffffffffffffffffffffffffffffffffffffff1673ffffffffffffffffffffffffffffffffffffffff16815260200190815260200160002054610b7691906122ee565b1115610bb7576040517f08c379a0000000000000000000000000000000000000000000000000000000008152600401610bae9061278e565b60405180910390fd5b600c5434600754610bc891906122ee565b1115610c09576040517f08c379a0000000000000000000000000000000000000000000000000000000008152600401610c0090612820565b60405180910390fd5b600f5434601760003373ffffffffffffffffffffffffffffffffffffffff1673ffffffffffffffffffffffffffffffffffffffff16815260200190815260200160002054601660003373ffffffffffffffffffffffffffffffffffffffff1673ffffffffffffffffffffffffffffffffffffffff16815260200190815260200160002054601560003373ffffffffffffffffffffffffffffffffffffffff1673ffffffffffffffffffffffffffffffffffffffff16815260200190815260200160002054610cd791906122ee565b610ce191906122ee565b610ceb91906122ee565b1115610d2c576040517f08c379a0000000000000000000000000000000000000000000000000000000008152600401610d23906125d8565b60405180910390fd5b34601760003373ffffffffffffffffffffffffffffffffffffffff1673ffffffffffffffffffffffffffffffffffffffff1681526020019081526020016000206000828254610d7b91906122ee565b92505081905550601a339080600181540180825580915050600190039060005260206000200160009091909190916101000a81548173ffffffffffffffffffffffffffffffffffffffff021916908373ffffffffffffffffffffffffffffffffffffffff1602179055503460046000828254610df791906122ee565b925050819055503460076000828254610e1091906122ee565b92505081905550610e43600960009054906101000a900473ffffffffffffffffffffffffffffffffffffffff1647611528565b610e4d565b600080fd5b5b5b005b600080fd5b348015610e6257600080fd5b50610e6b611788565b604051610e78919061284f565b60405180910390f35b348015610e8d57600080fd5b50610e9661178e565b604051610ea3919061284f565b60405180910390f35b348015610eb857600080fd5b50610ec1611794565b604051610ece919061295a565b60405180910390f35b348015610ee357600080fd5b50610efe6004803603810190610ef991906129e5565b611822565b005b348015610f0c57600080fd5b50610f15611948565b604051610f22919061284f565b60405180910390f35b348015610f3757600080fd5b50610f526004803603810190610f4d9190612a64565b61194e565b604051610f5f919061284f565b60405180910390f35b348015610f7457600080fd5b50610f7d611966565b604051610f8a919061284f565b60405180910390f35b348015610f9f57600080fd5b50610fa861196c565b604051610fb5919061284f565b60405180910390f35b348015610fca57600080fd5b50610fe56004803603810190610fe09190612a91565b611972565b005b348015610ff357600080fd5b50610ffc6119f8565b604051611009919061284f565b60405180910390f35b34801561101e57600080fd5b506110276119fe565b604051611034919061284f565b60405180910390f35b34801561104957600080fd5b50611064600480360381019061105f9190612a64565b61161c565b6040516110719190612acd565b60405180910390f35b34801561108657600080fd5b5061108f611a04565b60405161109c919061284f565b60405180910390f35b3480156110b157600080fd5b506110cc60048036038101906110c79190612a91565b611a0a565b6040516110d99190612af7565b60405180910390f35b3480156110ee57600080fd5b506110f7611a49565b604051611104919061284f565b60405180910390f35b34801561111957600080fd5b50611122611a4f565b60405161112f919061284f565b60405180910390f35b34801561114457600080fd5b5061115f600480360381019061115a9190612a64565b611a55565b60405161116c919061284f565b60405180910390f35b34801561118157600080fd5b5061119c60048036038101906111979190612a64565b611a6d565b005b3480156111aa57600080fd5b506111b3611bbf565b005b3480156111c157600080fd5b506111ca611c47565b6040516111d7919061284f565b60405180910390f35b3480156111ec57600080fd5b5061120760048036038101906112029190612a91565b611c4d565b6040516112149190612af7565b60405180910390f35b34801561122957600080fd5b50611232611c8c565b60405161123f9190612af7565b60405180910390f35b34801561125457600080fd5b5061125d611cb5565b60405161126a919061284f565b60405180910390f35b34801561127f57600080fd5b5061129a60048036038101906112959190612a64565b611cbb565b6040516112a7919061284f565b60405180910390f35b3480156112bc57600080fd5b506112c5611cd3565b6040516112d29190612b9a565b60405180910390f35b3480156112e757600080fd5b506112f0611d0c565b6040516112fd9190612bdd565b60405180910390f35b34801561131257600080fd5b5061131b611d32565b604051611328919061284f565b60405180910390f35b34801561133d57600080fd5b5061135860048036038101906113539190612a91565b611d38565b6040516113659190612af7565b60405180910390f35b34801561137a57600080fd5b5061139560048036038101906113909190612a64565b611d77565b005b3480156113a357600080fd5b506113ac611ec9565b6040516113b9919061295a565b60405180910390f35b3480156113ce57600080fd5b506113d7611f57565b6040516113e4919061284f565b60405180910390f35b3480156113f957600080fd5b50611414600480360381019061140f9190612a64565b6116d2565b6040516114219190612acd565b60405180910390f35b34801561143657600080fd5b5061143f611f5d565b60405161144c919061284f565b60405180910390f35b34801561146157600080fd5b5061147c60048036038101906114779190612a91565b611f63565b005b34801561148a57600080fd5b50611493611fe9565b6040516114a09190612acd565b60405180910390f35b3480156114b557600080fd5b506114be611ffc565b6040516114cb919061284f565b60405180910390f35b3480156114e057600080fd5b506114e9612002565b6040516114f6919061284f565b60405180910390f35b34801561150b57600080fd5b5061152660048036038101906115219190612a64565b612008565b005b8047101561156b576040517f08c379a000000000000000000000000000000000000000000000000000000000815260040161156290612c44565b60405180910390fd5b60008273ffffffffffffffffffffffffffffffffffffffff168260405161159190612c95565b60006040518083038185875af1925050503d80600081146115ce576040519150601f19603f3d011682016040523d82523d6000602084013e6115d3565b606091505b5050905080611617576040517f08c379a000000000000000000000000000000000000000000000000000000000815260040161160e90612d1c565b60405180910390fd5b505050565b60008060006013805490509050600091505b808210156116c6578373ffffffffffffffffffffffffffffffffffffffff166013838154811061166157611660612d3c565b5b9060005260206000200160009054906101000a900473ffffffffffffffffffffffffffffffffffffffff1673ffffffffffffffffffffffffffffffffffffffff1614156116b3576001925050506116cd565b81806116be90612d6b565b92505061162e565b6000925050505b919050565b60008060006014805490509050600091505b8082101561177c578373ffffffffffffffffffffffffffffffffffffffff166014838154811061171757611716612d3c565b5b9060005260206000200160009054906101000a900473ffffffffffffffffffffffffffffffffffffffff1673ffffffffffffffffffffffffffffffffffffffff16141561176957600192505050611783565b818061177490612d6b565b9250506116e4565b6000925050505b919050565b60085481565b60105481565b6060601980548060200260200160405190810160405280929190818152602001828054801561181857602002820191906000526020600020905b8160009054906101000a900473ffffffffffffffffffffffffffffffffffffffff1673ffffffffffffffffffffffffffffffffffffffff16815260200190600101908083116117ce575b5050505050905090565b61182a612100565b73ffffffffffffffffffffffffffffffffffffffff16611848611c8c565b73ffffffffffffffffffffffffffffffffffffffff161461189e576040517f08c379a000000000000000000000000000000000000000000000000000000000815260040161189590612e00565b60405180910390fd5b82600060146101000a81548160ff021916908315150217905550600060149054906101000a900460ff16156118fa576004546001546118dd9190612e20565b600a81905550600654600b81905550600754600c81905550611943565b6000600a8190555060646001546119119190612e83565b8261191c9190612eb4565b600b8190555060646001546119319190612e83565b8161193c9190612eb4565b600c819055505b505050565b60025481565b60156020528060005260406000206000915090505481565b60015481565b600c5481565b61197a612100565b73ffffffffffffffffffffffffffffffffffffffff16611998611c8c565b73ffffffffffffffffffffffffffffffffffffffff16146119ee576040517f08c379a00000000000000000000000000000000000000000000000000000000081526004016119e590612e00565b60405180910390fd5b8060028190555050565b60125481565b60065481565b60115481565b60188181548110611a1a57600080fd5b906000526020600020016000915054906101000a900473ffffffffffffffffffffffffffffffffffffffff1681565b60055481565b60075481565b60166020528060005260406000206000915090505481565b611a75612100565b73ffffffffffffffffffffffffffffffffffffffff16611a93611c8c565b73ffffffffffffffffffffffffffffffffffffffff1614611ae9576040517f08c379a0000000000000000000000000000000000000000000000000000000008152600401611ae090612e00565b60405180910390fd5b600073ffffffffffffffffffffffffffffffffffffffff168173ffffffffffffffffffffffffffffffffffffffff161415611b59576040517f08c379a0000000000000000000000000000000000000000000000000000000008152600401611b5090612f5a565b60405180910390fd5b6013819080600181540180825580915050600190039060005260206000200160009091909190916101000a81548173ffffffffffffffffffffffffffffffffffffffff021916908373ffffffffffffffffffffffffffffffffffffffff16021790555050565b611bc7612100565b73ffffffffffffffffffffffffffffffffffffffff16611be5611c8c565b73ffffffffffffffffffffffffffffffffffffffff1614611c3b576040517f08c379a0000000000000000000000000000000000000000000000000000000008152600401611c3290612e00565b60405180910390fd5b611c456000612108565b565b600b5481565b601a8181548110611c5d57600080fd5b906000526020600020016000915054906101000a900473ffffffffffffffffffffffffffffffffffffffff1681565b60008060009054906101000a900473ffffffffffffffffffffffffffffffffffffffff16905090565b600e5481565b60176020528060005260406000206000915090505481565b6040518060400160405280601081526020017f444d5420507269766174652053616c650000000000000000000000000000000081525081565b600960009054906101000a900473ffffffffffffffffffffffffffffffffffffffff1681565b600d5481565b60198181548110611d4857600080fd5b906000526020600020016000915054906101000a900473ffffffffffffffffffffffffffffffffffffffff1681565b611d7f612100565b73ffffffffffffffffffffffffffffffffffffffff16611d9d611c8c565b73ffffffffffffffffffffffffffffffffffffffff1614611df3576040517f08c379a0000000000000000000000000000000000000000000000000000000008152600401611dea90612e00565b60405180910390fd5b600073ffffffffffffffffffffffffffffffffffffffff168173ffffffffffffffffffffffffffffffffffffffff161415611e63576040517f08c379a0000000000000000000000000000000000000000000000000000000008152600401611e5a90612f5a565b60405180910390fd5b6014819080600181540180825580915050600190039060005260206000200160009091909190916101000a81548173ffffffffffffffffffffffffffffffffffffffff021916908373ffffffffffffffffffffffffffffffffffffffff16021790555050565b6060601a805480602002602001604051908101604052809291908181526020018280548015611f4d57602002820191906000526020600020905b8160009054906101000a900473ffffffffffffffffffffffffffffffffffffffff1673ffffffffffffffffffffffffffffffffffffffff1681526020019060010190808311611f03575b5050505050905090565b60045481565b600a5481565b611f6b612100565b73ffffffffffffffffffffffffffffffffffffffff16611f89611c8c565b73ffffffffffffffffffffffffffffffffffffffff1614611fdf576040517f08c379a0000000000000000000000000000000000000000000000000000000008152600401611fd690612e00565b60405180910390fd5b8060038190555050565b600060149054906101000a900460ff1681565b600f5481565b60035481565b612010612100565b73ffffffffffffffffffffffffffffffffffffffff1661202e611c8c565b73ffffffffffffffffffffffffffffffffffffffff1614612084576040517f08c379a000000000000000000000000000000000000000000000000000000000815260040161207b90612e00565b60405180910390fd5b600073ffffffffffffffffffffffffffffffffffffffff168173ffffffffffffffffffffffffffffffffffffffff1614156120f4576040517f08c379a00000000000000000000000000000000000000000000000000000000081526004016120eb90612fec565b60405180910390fd5b6120fd81612108565b50565b600033905090565b60008060009054906101000a900473ffffffffffffffffffffffffffffffffffffffff169050816000806101000a81548173ffffffffffffffffffffffffffffffffffffffff021916908373ffffffffffffffffffffffffffffffffffffffff1602179055508173ffffffffffffffffffffffffffffffffffffffff168173ffffffffffffffffffffffffffffffffffffffff167f8be0079c531659141344cd1fd0a4f28419497f9722a3daafe3b4186f6b6457e060405160405180910390a35050565b600082825260208201905092915050565b7f5468652073616c65206973206e6f742073746172746564207965742000000000600082015250565b6000612213601c836121cc565b915061221e826121dd565b602082019050919050565b6000602082019050818103600083015261224281612206565b9050919050565b7f5468652073616c6520697320636c6f7365640000000000000000000000000000600082015250565b600061227f6012836121cc565b915061228a82612249565b602082019050919050565b600060208201905081810360008301526122ae81612272565b9050919050565b6000819050919050565b7f4e487b7100000000000000000000000000000000000000000000000000000000600052601160045260246000fd5b60006122f9826122b5565b9150612304836122b5565b9250827fffffffffffffffffffffffffffffffffffffffffffffffffffffffffffffffff03821115612339576123386122bf565b5b828201905092915050565b7f627579546f6b656e733a20707572636861736520776f756c642065786365656460008201527f206d617820636170000000000000000000000000000000000000000000000000602082015250565b60006123a06028836121cc565b91506123ab82612344565b604082019050919050565b600060208201905081810360008301526123cf81612393565b9050919050565b7f796f75722070757263686173696e6720506f77657220697320736f204c6f7700600082015250565b600061240c601f836121cc565b9150612417826123d6565b602082019050919050565b6000602082019050818103600083015261243b816123ff565b9050919050565b7f796f752061726520696e76657374696e67206d6f7265207468616e20796f757260008201527f205469657220302e30206c696d69742100000000000000000000000000000000602082015250565b600061249e6030836121cc565b91506124a982612442565b604082019050919050565b600060208201905081810360008301526124cd81612491565b9050919050565b7f627579546f6b656e733a20707572636861736520776f756c642065786365656460008201527f2054696572206f6e65206d617820636170000000000000000000000000000000602082015250565b60006125306031836121cc565b915061253b826124d4565b604082019050919050565b6000602082019050818103600083015261255f81612523565b9050919050565b7f627579546f6b656e733a596f752061726520696e76657374696e67206d6f726560008201527f207468616e20796f757220616c6c205469657273206c696d6974210000000000602082015250565b60006125c2603b836121cc565b91506125cd82612566565b604082019050919050565b600060208201905081810360008301526125f1816125b5565b9050919050565b7f627579546f6b656e733a20707572636861736520776f756c642065786365656460008201527f205469657220312e30206d617820636170000000000000000000000000000000602082015250565b60006126546031836121cc565b915061265f826125f8565b604082019050919050565b6000602082019050818103600083015261268381612647565b9050919050565b7f627579546f6b656e733a596f752061726520696e76657374696e67206d6f726560008201527f207468616e20796f7572205469657220312e30206c696d697421000000000000602082015250565b60006126e6603a836121cc565b91506126f18261268a565b604082019050919050565b60006020820190508181036000830152612715816126d9565b9050919050565b7f627579546f6b656e733a596f752061726520696e76657374696e67206d6f726560008201527f207468616e20796f757220746965722d33206c696d6974210000000000000000602082015250565b60006127786038836121cc565b91506127838261271c565b604082019050919050565b600060208201905081810360008301526127a78161276b565b9050919050565b7f627579546f6b656e733a20707572636861736520776f756c642065786365656460008201527f2054696572207468726565206d61782063617000000000000000000000000000602082015250565b600061280a6033836121cc565b9150612815826127ae565b604082019050919050565b60006020820190508181036000830152612839816127fd565b9050919050565b612849816122b5565b82525050565b60006020820190506128646000830184612840565b92915050565b600081519050919050565b600082825260208201905092915050565b6000819050602082019050919050565b600073ffffffffffffffffffffffffffffffffffffffff82169050919050565b60006128c182612896565b9050919050565b6128d1816128b6565b82525050565b60006128e383836128c8565b60208301905092915050565b6000602082019050919050565b60006129078261286a565b6129118185612875565b935061291c83612886565b8060005b8381101561294d57815161293488826128d7565b975061293f836128ef565b925050600181019050612920565b5085935050505092915050565b6000602082019050818103600083015261297481846128fc565b905092915050565b600080fd5b60008115159050919050565b61299681612981565b81146129a157600080fd5b50565b6000813590506129b38161298d565b92915050565b6129c2816122b5565b81146129cd57600080fd5b50565b6000813590506129df816129b9565b92915050565b6000806000606084860312156129fe576129fd61297c565b5b6000612a0c868287016129a4565b9350506020612a1d868287016129d0565b9250506040612a2e868287016129d0565b9150509250925092565b612a41816128b6565b8114612a4c57600080fd5b50565b600081359050612a5e81612a38565b92915050565b600060208284031215612a7a57612a7961297c565b5b6000612a8884828501612a4f565b91505092915050565b600060208284031215612aa757612aa661297c565b5b6000612ab5848285016129d0565b91505092915050565b612ac781612981565b82525050565b6000602082019050612ae26000830184612abe565b92915050565b612af1816128b6565b82525050565b6000602082019050612b0c6000830184612ae8565b92915050565b600081519050919050565b60005b83811015612b3b578082015181840152602081019050612b20565b83811115612b4a576000848401525b50505050565b6000601f19601f8301169050919050565b6000612b6c82612b12565b612b7681856121cc565b9350612b86818560208601612b1d565b612b8f81612b50565b840191505092915050565b60006020820190508181036000830152612bb48184612b61565b905092915050565b6000612bc782612896565b9050919050565b612bd781612bbc565b82525050565b6000602082019050612bf26000830184612bce565b92915050565b7f416464726573733a20696e73756666696369656e742062616c616e6365000000600082015250565b6000612c2e601d836121cc565b9150612c3982612bf8565b602082019050919050565b60006020820190508181036000830152612c5d81612c21565b9050919050565b600081905092915050565b50565b6000612c7f600083612c64565b9150612c8a82612c6f565b600082019050919050565b6000612ca082612c72565b9150819050919050565b7f416464726573733a20756e61626c6520746f2073656e642076616c75652c207260008201527f6563697069656e74206d61792068617665207265766572746564000000000000602082015250565b6000612d06603a836121cc565b9150612d1182612caa565b604082019050919050565b60006020820190508181036000830152612d3581612cf9565b9050919050565b7f4e487b7100000000000000000000000000000000000000000000000000000000600052603260045260246000fd5b6000612d76826122b5565b91507fffffffffffffffffffffffffffffffffffffffffffffffffffffffffffffffff821415612da957612da86122bf565b5b600182019050919050565b7f4f776e61626c653a2063616c6c6572206973206e6f7420746865206f776e6572600082015250565b6000612dea6020836121cc565b9150612df582612db4565b602082019050919050565b60006020820190508181036000830152612e1981612ddd565b9050919050565b6000612e2b826122b5565b9150612e36836122b5565b925082821015612e4957612e486122bf565b5b828203905092915050565b7f4e487b7100000000000000000000000000000000000000000000000000000000600052601260045260246000fd5b6000612e8e826122b5565b9150612e99836122b5565b925082612ea957612ea8612e54565b5b828204905092915050565b6000612ebf826122b5565b9150612eca836122b5565b9250817fffffffffffffffffffffffffffffffffffffffffffffffffffffffffffffffff0483118215151615612f0357612f026122bf565b5b828202905092915050565b7f496e76616c696420616464726573730000000000000000000000000000000000600082015250565b6000612f44600f836121cc565b9150612f4f82612f0e565b602082019050919050565b60006020820190508181036000830152612f7381612f37565b9050919050565b7f4f776e61626c653a206e6577206f776e657220697320746865207a65726f206160008201527f6464726573730000000000000000000000000000000000000000000000000000602082015250565b6000612fd66026836121cc565b9150612fe182612f7a565b604082019050919050565b6000602082019050818103600083015261300581612fc9565b905091905056fea26469706673582212205ca4f5c76afc864d4b3ebb8644f54f60ef635e7d0ef02576656b0f89e36c523164736f6c63430008090033",
  "immutableReferences": {},
  "source": "// SPDX-License-Identifier: MIT\npragma solidity >=0.4.22 <0.9.0;\n\n/*\n *Demetra.finance\n *Security Provider\n *Inheritance protocol eliminates concerns about loss of crypto assets even after the death with assigning backup wallet or setup a will\n *Private sale contract with 3 Tiers with different allocation\n *Tier 0.0 -> public\n *Tier 1.0 -> 0.1 - 5 BNB\n *Tier 2.0 -> 5 - 20 BNB\n */\n\nimport \"@openzeppelin/contracts/utils/Address.sol\";\nimport \"@openzeppelin/contracts/access/Ownable.sol\";\n\ncontract DemetraPrivateSale is Ownable {\n    \n    bool public isPublic;\n    //token attributes\n    string public constant NAME = \"DMT Private Sale\"; //name of the contract\n    uint256 public  maxCap = 400 * (10**18); // Max cap in BNB\n\n    uint256 public saleStartTime; // start sale time\n    uint256 public saleEndTime; // end sale time in tier 1\n\n    uint256 public totalBnbReceivedInAllTier; // total bnd received\n\n    uint256 public totalBnbInTierZero; // total bnb for tier Zero\n    uint256 public totalBnbInTierOne; // total bnb for tier one\n    uint256 public totalBnbInTierTwo; // total bnb for tier two\n\n    uint256 public totalparticipants; // total participants\n    address payable public projectOwner; // project Owner\n\n    // max cap per tier\n\n    uint256 public tierZeroMaxCap;\n    uint256 public tierOneMaxCap;\n    uint256 public tierTwoMaxCap;\n\n    //max allocations per user in a tier\n\n    uint256 public maxAllocaPerUserTierZero;\n    uint256 public maxAllocaPerUserTierOne;\n    uint256 public maxAllocaPerUserTierTwo;\n\n    //min allocation per user in a tier\n\n    uint256 public minAllocaPerUserTierZero;\n    uint256 public minAllocaPerUserTierOne;\n    uint256 public minAllocaPerUserTierTwo;\n\n    //tier 1 is public no whitelist\n    // address array for tier one whitelist\n    //address[] private whitelistTierOne;\n    address[] private whitelistTierOne;\n    address[] private whitelistTierTwo;\n\n    //mapping the user purchase per tier\n\n    mapping(address => uint256) public buyInTierZero;\n    mapping(address => uint256) public buyInTierOne;\n    mapping(address => uint256) public buyInTierTwo;\n\n    address[] public tierZeroParticipants;\n    address[] public tierOneParticipants;\n    address[] public tierTwoParticipants;\n    \n\n    // CONSTRUCTOR\n    constructor(\n        uint256 _saleStartTime,\n        uint256 _saleEndTime,\n        address payable _projectOwner,\n        uint256 _tierOneValue, //percentage eg = 30\n        uint256 _tierTwoValue, //percentage eg = 70\n        address[] memory _whitelistTierOne,\n        address[] memory _whitelistTierTwo\n      ) {\n        isPublic = false; //whitelist\n\n        saleStartTime = _saleStartTime;\n        saleEndTime = _saleEndTime;\n\n        projectOwner = _projectOwner;\n\n        tierOneMaxCap = _tierOneValue * (maxCap / 100);\n        tierTwoMaxCap = _tierTwoValue * (maxCap / 100);\n        tierZeroMaxCap = maxCap - tierOneMaxCap - tierTwoMaxCap; //public\n\n        minAllocaPerUserTierZero = 10 **17;\n        minAllocaPerUserTierOne = 10**17;\n        minAllocaPerUserTierTwo = 5 * (10**18);\n\n        maxAllocaPerUserTierZero = 20 * 10**18;\n        maxAllocaPerUserTierOne = 5 * 10**18;\n        maxAllocaPerUserTierTwo = 20 * 10**18;\n\n        for (uint256 index = 0; index < _whitelistTierOne.length; index++) {\n            whitelistTierOne.push(_whitelistTierOne[index]);\n        }\n\n        for (uint256 index = 0; index < _whitelistTierTwo.length; index++) {\n            whitelistTierTwo.push(_whitelistTierTwo[index]);\n        }\n\n        totalparticipants = 0;\n    }\n\n    \n\n     //function to set tier manually\n    function changeTier(\n        bool _isPublic,\n        uint256 _tierOneValue,\n        uint256 _tierTwoValue\n    ) external onlyOwner {\n        isPublic = _isPublic;\n        if(isPublic){\n            tierZeroMaxCap = maxCap - totalBnbReceivedInAllTier;\n            tierOneMaxCap = totalBnbInTierOne;\n            tierTwoMaxCap=totalBnbInTierTwo;\n        }\n        else{\n            tierZeroMaxCap = 0;\n            tierOneMaxCap = _tierOneValue * (maxCap / 100);\n            tierTwoMaxCap = _tierTwoValue * (maxCap / 100);\n        }\n    }\n\n    function setStartTime(uint256 start) external onlyOwner{\n        saleStartTime = start;\n    }\n    function setEndTime(uint256 end) external onlyOwner{\n        saleEndTime = end;\n    }\n    //add the address in Whitelist tier one to invest\n    function addWhitelistOne(address _address) external onlyOwner {\n        require(_address != address(0), \"Invalid address\");\n        whitelistTierOne.push(_address);\n    }\n\n    //add the address in Whitelist tier two to invest\n    function addWhitelistTwo(address _address) external onlyOwner {\n        require(_address != address(0), \"Invalid address\");\n        whitelistTierTwo.push(_address);\n    }\n\n   \n   function getTierOneParticipants() external view returns (address[] memory tier1) {\n       return tierOneParticipants;\n   }\n\n   function getTierTwoParticipants() external view returns (address[] memory tier2) {\n       return tierTwoParticipants;\n   }\n\n    // check the address in whitelist tier two\n    function getWhitelistOne(address _address) public view returns (bool) {\n        uint256 i;\n        uint256 length = whitelistTierOne.length;\n        for (i = 0; i < length; i++) {\n            if (whitelistTierOne[i] == _address) {\n                return true;\n            }\n        }\n        return false;\n    }\n\n    // check the address in whitelist tier three\n    function getWhitelistTwo(address _address) public view returns (bool) {\n        uint256 i;\n        uint256 length = whitelistTierTwo.length;\n        for (i = 0; i < length; i++) {\n            if (whitelistTierTwo[i] == _address) {\n                return true;\n            }\n        }\n        return false;\n    }\n\n    \n\n    // send bnb to the contract address\n    receive() external payable {\n        require(\n            block.timestamp >= saleStartTime,\n            \"The sale is not started yet \"\n        ); // solhint-disable\n        require(block.timestamp <= saleEndTime, \"The sale is closed\"); // solhint-disable\n        require(\n            totalBnbReceivedInAllTier + msg.value <= maxCap,\n            \"buyTokens: purchase would exceed max cap\"\n        );\n\n        if (isPublic) {\n            require(\n                buyInTierZero[msg.sender] + msg.value >= minAllocaPerUserTierZero,\n                \"your purchasing Power is so Low\"\n            );\n            require(\n                buyInTierZero[msg.sender] + msg.value <= maxAllocaPerUserTierZero,\n                \"you are investing more than your Tier 0.0 limit!\"\n            );\n            require(\n                totalBnbInTierZero + msg.value <= tierZeroMaxCap,\n                \"buyTokens: purchase would exceed Tier one max cap\"\n            );\n            require(\n                buyInTierZero[msg.sender] +buyInTierOne[msg.sender] +buyInTierTwo[msg.sender] + msg.value <= maxAllocaPerUserTierZero,\n                \"buyTokens:You are investing more than your all Tiers limit!\"\n            );\n\n            \n\n            buyInTierZero[msg.sender] += msg.value;\n            tierZeroParticipants.push(msg.sender);\n            totalBnbReceivedInAllTier += msg.value;\n            totalBnbInTierZero += msg.value;\n            \n             //payable(projectOwner).transfer(address(this).balance);\n             Address.sendValue(payable(projectOwner), address(this).balance);\n             //payable(projectOwner).sendValue(projectOwner,address(this).balance);\n        } else if (getWhitelistOne(msg.sender)) {\n            require(\n                buyInTierOne[msg.sender] + msg.value >= minAllocaPerUserTierOne,\n                \"your purchasing Power is so Low\"\n            );\n            require(\n                totalBnbInTierOne + msg.value <= tierOneMaxCap,\n                \"buyTokens: purchase would exceed Tier 1.0 max cap\"\n            );\n            require(\n                buyInTierOne[msg.sender] + msg.value <= maxAllocaPerUserTierOne,\n                \"buyTokens:You are investing more than your Tier 1.0 limit!\"\n            );\n            require(\n                buyInTierZero[msg.sender] +buyInTierOne[msg.sender] +buyInTierTwo[msg.sender] + msg.value <= maxAllocaPerUserTierOne,\n                \"buyTokens:You are investing more than your all Tiers limit!\"\n            );\n\n            buyInTierOne[msg.sender] += msg.value;\n            tierOneParticipants.push(msg.sender);\n            totalBnbReceivedInAllTier += msg.value;\n            totalBnbInTierOne += msg.value;\n            //sendValue(projectOwner, address(this).balance);\n            //payable(projectOwner).transfer(address(this).balance);\n            Address.sendValue(payable(projectOwner), address(this).balance);\n        } else if (getWhitelistTwo(msg.sender)) {\n            require(\n                buyInTierTwo[msg.sender] + msg.value >=\n                    minAllocaPerUserTierTwo,\n                \"your purchasing Power is so Low\"\n            );\n            require(\n                buyInTierTwo[msg.sender] + msg.value <=\n                    maxAllocaPerUserTierTwo,\n                \"buyTokens:You are investing more than your tier-3 limit!\"\n            );\n            require(\n                totalBnbInTierTwo + msg.value <= tierTwoMaxCap,\n                \"buyTokens: purchase would exceed Tier three max cap\"\n            );\n            require(\n                buyInTierZero[msg.sender] +buyInTierOne[msg.sender] +buyInTierTwo[msg.sender] + msg.value <= maxAllocaPerUserTierTwo,\n                \"buyTokens:You are investing more than your all Tiers limit!\"\n            );\n            buyInTierTwo[msg.sender] += msg.value;\n            tierTwoParticipants.push(msg.sender);\n            totalBnbReceivedInAllTier += msg.value;\n            totalBnbInTierTwo += msg.value;\n            //payable(projectOwner).transfer(address(this).balance);\n            Address.sendValue(payable(projectOwner), address(this).balance);\n        } else {\n            revert();\n        }\n    }\n}\n\n",
  "sourcePath": "/Users/home/Desktop/DemetraFinance/Contracts/PreSale Contract/contracts/DemetraPrivateSale.sol",
  "compiler": {
    "name": "solc",
    "version": "0.8.9+commit.e5eed63a.Emscripten.clang"
  },
  "schemaVersion": "3.4.7",
  "updatedAt": "2022-04-11T09:01:13.233Z",
  "networkType": "ethereum",
  "devdoc": {
    "kind": "dev",
    "methods": {
      "owner()": {
        "details": "Returns the address of the current owner."
      },
      "renounceOwnership()": {
        "details": "Leaves the contract without owner. It will not be possible to call `onlyOwner` functions anymore. Can only be called by the current owner. NOTE: Renouncing ownership will leave the contract without an owner, thereby removing any functionality that is only available to the owner."
      },
      "transferOwnership(address)": {
        "details": "Transfers ownership of the contract to a new account (`newOwner`). Can only be called by the current owner."
      }
    },
    "version": 1
  },
  "userdoc": {
    "kind": "user",
    "methods": {},
    "version": 1
  }
}