{
  "contractName": "DemetraPrivateSale",
  "abi": [
    {
      "inputs": [
        {
          "internalType": "uint256",
          "name": "_saleStartTime",
          "type": "uint256"
        },
        {
          "internalType": "uint256",
          "name": "_saleEndTime",
          "type": "uint256"
        },
        {
          "internalType": "address payable",
          "name": "_projectOwner",
          "type": "address"
        },
        {
          "internalType": "uint256",
          "name": "_tierOneValue",
          "type": "uint256"
        },
        {
          "internalType": "uint256",
          "name": "_tierTwoValue",
          "type": "uint256"
        }
      ],
      "stateMutability": "nonpayable",
      "type": "constructor"
    },
    {
      "anonymous": false,
      "inputs": [
        {
          "indexed": true,
          "internalType": "address",
          "name": "previousOwner",
          "type": "address"
        },
        {
          "indexed": true,
          "internalType": "address",
          "name": "newOwner",
          "type": "address"
        }
      ],
      "name": "OwnershipTransferred",
      "type": "event"
    },
    {
      "inputs": [],
      "name": "NAME",
      "outputs": [
        {
          "internalType": "string",
          "name": "",
          "type": "string"
        }
      ],
      "stateMutability": "view",
      "type": "function",
      "constant": true
    },
    {
      "inputs": [
        {
          "internalType": "address",
          "name": "",
          "type": "address"
        }
      ],
      "name": "buyInTierOne",
      "outputs": [
        {
          "internalType": "uint256",
          "name": "",
          "type": "uint256"
        }
      ],
      "stateMutability": "view",
      "type": "function",
      "constant": true
    },
    {
      "inputs": [
        {
          "internalType": "address",
          "name": "",
          "type": "address"
        }
      ],
      "name": "buyInTierTwo",
      "outputs": [
        {
          "internalType": "uint256",
          "name": "",
          "type": "uint256"
        }
      ],
      "stateMutability": "view",
      "type": "function",
      "constant": true
    },
    {
      "inputs": [
        {
          "internalType": "address",
          "name": "",
          "type": "address"
        }
      ],
      "name": "buyInTierZero",
      "outputs": [
        {
          "internalType": "uint256",
          "name": "",
          "type": "uint256"
        }
      ],
      "stateMutability": "view",
      "type": "function",
      "constant": true
    },
    {
      "inputs": [],
      "name": "isPublic",
      "outputs": [
        {
          "internalType": "bool",
          "name": "",
          "type": "bool"
        }
      ],
      "stateMutability": "view",
      "type": "function",
      "constant": true
    },
    {
      "inputs": [],
      "name": "maxAllocaPerUserTierOne",
      "outputs": [
        {
          "internalType": "uint256",
          "name": "",
          "type": "uint256"
        }
      ],
      "stateMutability": "view",
      "type": "function",
      "constant": true
    },
    {
      "inputs": [],
      "name": "maxAllocaPerUserTierTwo",
      "outputs": [
        {
          "internalType": "uint256",
          "name": "",
          "type": "uint256"
        }
      ],
      "stateMutability": "view",
      "type": "function",
      "constant": true
    },
    {
      "inputs": [],
      "name": "maxAllocaPerUserTierZero",
      "outputs": [
        {
          "internalType": "uint256",
          "name": "",
          "type": "uint256"
        }
      ],
      "stateMutability": "view",
      "type": "function",
      "constant": true
    },
    {
      "inputs": [],
      "name": "maxCap",
      "outputs": [
        {
          "internalType": "uint256",
          "name": "",
          "type": "uint256"
        }
      ],
      "stateMutability": "view",
      "type": "function",
      "constant": true
    },
    {
      "inputs": [],
      "name": "minAllocaPerUserTierOne",
      "outputs": [
        {
          "internalType": "uint256",
          "name": "",
          "type": "uint256"
        }
      ],
      "stateMutability": "view",
      "type": "function",
      "constant": true
    },
    {
      "inputs": [],
      "name": "minAllocaPerUserTierTwo",
      "outputs": [
        {
          "internalType": "uint256",
          "name": "",
          "type": "uint256"
        }
      ],
      "stateMutability": "view",
      "type": "function",
      "constant": true
    },
    {
      "inputs": [],
      "name": "minAllocaPerUserTierZero",
      "outputs": [
        {
          "internalType": "uint256",
          "name": "",
          "type": "uint256"
        }
      ],
      "stateMutability": "view",
      "type": "function",
      "constant": true
    },
    {
      "inputs": [],
      "name": "owner",
      "outputs": [
        {
          "internalType": "address",
          "name": "",
          "type": "address"
        }
      ],
      "stateMutability": "view",
      "type": "function",
      "constant": true
    },
    {
      "inputs": [],
      "name": "projectOwner",
      "outputs": [
        {
          "internalType": "address payable",
          "name": "",
          "type": "address"
        }
      ],
      "stateMutability": "view",
      "type": "function",
      "constant": true
    },
    {
      "inputs": [],
      "name": "renounceOwnership",
      "outputs": [],
      "stateMutability": "nonpayable",
      "type": "function"
    },
    {
      "inputs": [],
      "name": "saleEndTime",
      "outputs": [
        {
          "internalType": "uint256",
          "name": "",
          "type": "uint256"
        }
      ],
      "stateMutability": "view",
      "type": "function",
      "constant": true
    },
    {
      "inputs": [],
      "name": "saleStartTime",
      "outputs": [
        {
          "internalType": "uint256",
          "name": "",
          "type": "uint256"
        }
      ],
      "stateMutability": "view",
      "type": "function",
      "constant": true
    },
    {
      "inputs": [],
      "name": "tierOneMaxCap",
      "outputs": [
        {
          "internalType": "uint256",
          "name": "",
          "type": "uint256"
        }
      ],
      "stateMutability": "view",
      "type": "function",
      "constant": true
    },
    {
      "inputs": [
        {
          "internalType": "uint256",
          "name": "",
          "type": "uint256"
        }
      ],
      "name": "tierOneParticipants",
      "outputs": [
        {
          "internalType": "address",
          "name": "",
          "type": "address"
        }
      ],
      "stateMutability": "view",
      "type": "function",
      "constant": true
    },
    {
      "inputs": [],
      "name": "tierTwoMaxCap",
      "outputs": [
        {
          "internalType": "uint256",
          "name": "",
          "type": "uint256"
        }
      ],
      "stateMutability": "view",
      "type": "function",
      "constant": true
    },
    {
      "inputs": [
        {
          "internalType": "uint256",
          "name": "",
          "type": "uint256"
        }
      ],
      "name": "tierTwoParticipants",
      "outputs": [
        {
          "internalType": "address",
          "name": "",
          "type": "address"
        }
      ],
      "stateMutability": "view",
      "type": "function",
      "constant": true
    },
    {
      "inputs": [],
      "name": "tierZeroMaxCap",
      "outputs": [
        {
          "internalType": "uint256",
          "name": "",
          "type": "uint256"
        }
      ],
      "stateMutability": "view",
      "type": "function",
      "constant": true
    },
    {
      "inputs": [
        {
          "internalType": "uint256",
          "name": "",
          "type": "uint256"
        }
      ],
      "name": "tierZeroParticipants",
      "outputs": [
        {
          "internalType": "address",
          "name": "",
          "type": "address"
        }
      ],
      "stateMutability": "view",
      "type": "function",
      "constant": true
    },
    {
      "inputs": [],
      "name": "totalBnbInTierOne",
      "outputs": [
        {
          "internalType": "uint256",
          "name": "",
          "type": "uint256"
        }
      ],
      "stateMutability": "view",
      "type": "function",
      "constant": true
    },
    {
      "inputs": [],
      "name": "totalBnbInTierTwo",
      "outputs": [
        {
          "internalType": "uint256",
          "name": "",
          "type": "uint256"
        }
      ],
      "stateMutability": "view",
      "type": "function",
      "constant": true
    },
    {
      "inputs": [],
      "name": "totalBnbInTierZero",
      "outputs": [
        {
          "internalType": "uint256",
          "name": "",
          "type": "uint256"
        }
      ],
      "stateMutability": "view",
      "type": "function",
      "constant": true
    },
    {
      "inputs": [],
      "name": "totalBnbReceivedInAllTier",
      "outputs": [
        {
          "internalType": "uint256",
          "name": "",
          "type": "uint256"
        }
      ],
      "stateMutability": "view",
      "type": "function",
      "constant": true
    },
    {
      "inputs": [],
      "name": "totalparticipants",
      "outputs": [
        {
          "internalType": "uint256",
          "name": "",
          "type": "uint256"
        }
      ],
      "stateMutability": "view",
      "type": "function",
      "constant": true
    },
    {
      "inputs": [
        {
          "internalType": "address",
          "name": "newOwner",
          "type": "address"
        }
      ],
      "name": "transferOwnership",
      "outputs": [],
      "stateMutability": "nonpayable",
      "type": "function"
    },
    {
      "stateMutability": "payable",
      "type": "receive",
      "payable": true
    },
    {
      "inputs": [
        {
          "internalType": "bool",
          "name": "_isPublic",
          "type": "bool"
        },
        {
          "internalType": "uint256",
          "name": "_tierOneValue",
          "type": "uint256"
        },
        {
          "internalType": "uint256",
          "name": "_tierTwoValue",
          "type": "uint256"
        }
      ],
      "name": "changeTier",
      "outputs": [],
      "stateMutability": "nonpayable",
      "type": "function"
    },
    {
      "inputs": [
        {
          "internalType": "uint256",
          "name": "start",
          "type": "uint256"
        }
      ],
      "name": "setStartTime",
      "outputs": [],
      "stateMutability": "nonpayable",
      "type": "function"
    },
    {
      "inputs": [
        {
          "internalType": "uint256",
          "name": "end",
          "type": "uint256"
        }
      ],
      "name": "setEndTime",
      "outputs": [],
      "stateMutability": "nonpayable",
      "type": "function"
    },
    {
      "inputs": [
        {
          "internalType": "address",
          "name": "_address",
          "type": "address"
        }
      ],
      "name": "addWhitelistOne",
      "outputs": [],
      "stateMutability": "nonpayable",
      "type": "function"
    },
    {
      "inputs": [
        {
          "internalType": "address",
          "name": "_address",
          "type": "address"
        }
      ],
      "name": "addWhitelistTwo",
      "outputs": [],
      "stateMutability": "nonpayable",
      "type": "function"
    },
    {
      "inputs": [
        {
          "internalType": "address",
          "name": "_address",
          "type": "address"
        }
      ],
      "name": "getWhitelistOne",
      "outputs": [
        {
          "internalType": "bool",
          "name": "",
          "type": "bool"
        }
      ],
      "stateMutability": "view",
      "type": "function",
      "constant": true
    },
    {
      "inputs": [
        {
          "internalType": "address",
          "name": "_address",
          "type": "address"
        }
      ],
      "name": "getWhitelistTwo",
      "outputs": [
        {
          "internalType": "bool",
          "name": "",
          "type": "bool"
        }
      ],
      "stateMutability": "view",
      "type": "function",
      "constant": true
    }
  ],
  "bytecode": "0x60806040526815af1d78b58c4000006001553480156200001e57600080fd5b50604051620032c0380380620032c083398181016040528101906200004491906200031c565b6200006462000058620001ab60201b60201c565b620001b360201b60201c565b60008060146101000a81548160ff021916908315150217905550846002819055508360038190555082600960006101000a81548173ffffffffffffffffffffffffffffffffffffffff021916908373ffffffffffffffffffffffffffffffffffffffff1602179055506064600154620000de919062000402565b82620000eb91906200043a565b600b81905550606460015462000102919062000402565b816200010f91906200043a565b600c81905550600c54600b546001546200012a91906200049b565b6200013691906200049b565b600a8190555067016345785d8a000060108190555067016345785d8a0000601181905550674563918244f400006012819055506801158e460913d00000600d81905550674563918244f40000600e819055506801158e460913d00000600f8190555060006008819055505050505050620004d6565b600033905090565b60008060009054906101000a900473ffffffffffffffffffffffffffffffffffffffff169050816000806101000a81548173ffffffffffffffffffffffffffffffffffffffff021916908373ffffffffffffffffffffffffffffffffffffffff1602179055508173ffffffffffffffffffffffffffffffffffffffff168173ffffffffffffffffffffffffffffffffffffffff167f8be0079c531659141344cd1fd0a4f28419497f9722a3daafe3b4186f6b6457e060405160405180910390a35050565b600080fd5b6000819050919050565b62000291816200027c565b81146200029d57600080fd5b50565b600081519050620002b18162000286565b92915050565b600073ffffffffffffffffffffffffffffffffffffffff82169050919050565b6000620002e482620002b7565b9050919050565b620002f681620002d7565b81146200030257600080fd5b50565b6000815190506200031681620002eb565b92915050565b600080600080600060a086880312156200033b576200033a62000277565b5b60006200034b88828901620002a0565b95505060206200035e88828901620002a0565b9450506040620003718882890162000305565b93505060606200038488828901620002a0565b92505060806200039788828901620002a0565b9150509295509295909350565b7f4e487b7100000000000000000000000000000000000000000000000000000000600052601260045260246000fd5b7f4e487b7100000000000000000000000000000000000000000000000000000000600052601160045260246000fd5b60006200040f826200027c565b91506200041c836200027c565b9250826200042f576200042e620003a4565b5b828204905092915050565b600062000447826200027c565b915062000454836200027c565b9250817fffffffffffffffffffffffffffffffffffffffffffffffffffffffffffffffff048311821515161562000490576200048f620003d3565b5b828202905092915050565b6000620004a8826200027c565b9150620004b5836200027c565b925082821015620004cb57620004ca620003d3565b5b828203905092915050565b612dda80620004e66000396000f3fe6080604052600436106102135760003560e01c8063823276c311610118578063ae4fdad9116100a0578063ccb98ffc1161006f578063ccb98ffc146113e9578063dc9a153514611412578063e8891b7d1461143d578063ed338ff114611468578063f2fde38b1461149357610e3b565b8063ae4fdad91461132d578063b8307a3f14611356578063b9ec0dde14611381578063c1d55210146113be57610e3b565b806391ef119a116100e757806391ef119a14611232578063a3f4df7e1461126f578063a4475ce41461129a578063a9cf27cf146112c5578063aa5baf21146112f057610e3b565b8063823276c3146111745780638d8fcbb61461119f5780638da5cb5b146111dc578063902576441461120757610e3b565b80634c0d8e8d1161019b57806350dd3b381161016a57806350dd3b38146110a15780635a81a53c146110cc5780635c65c6ba146110f757806362ace63f14611134578063715018a61461115d57610e3b565b80634c0d8e8d14610fd15780634dce516814610ffc5780634e6ac05914611039578063507eb8131461106457610e3b565b80631de07dc8116101e25780631de07dc814610eea57806323548b8b14610f27578063244c4f1014610f525780633e0a322d14610f7d578063434800fc14610fa657610e3b565b80630109988514610e405780630228ee6814610e6b57806313f1328c14610e965780631cbaee2d14610ebf57610e3b565b36610e3b5760025442101561025d576040517f08c379a0000000000000000000000000000000000000000000000000000000008152600401610254906120a1565b60405180910390fd5b6003544211156102a2576040517f08c379a00000000000000000000000000000000000000000000000000000000081526004016102999061210d565b60405180910390fd5b600154346004546102b39190612166565b11156102f4576040517f08c379a00000000000000000000000000000000000000000000000000000000081526004016102eb9061222e565b60405180910390fd5b600060149054906101000a900460ff16156106b85760105434601560003373ffffffffffffffffffffffffffffffffffffffff1673ffffffffffffffffffffffffffffffffffffffff168152602001908152602001600020546103579190612166565b1015610398576040517f08c379a000000000000000000000000000000000000000000000000000000000815260040161038f9061229a565b60405180910390fd5b600d5434601560003373ffffffffffffffffffffffffffffffffffffffff1673ffffffffffffffffffffffffffffffffffffffff168152602001908152602001600020546103e69190612166565b1115610427576040517f08c379a000000000000000000000000000000000000000000000000000000000815260040161041e9061232c565b60405180910390fd5b600a54346005546104389190612166565b1115610479576040517f08c379a0000000000000000000000000000000000000000000000000000000008152600401610470906123be565b60405180910390fd5b600d5434601760003373ffffffffffffffffffffffffffffffffffffffff1673ffffffffffffffffffffffffffffffffffffffff16815260200190815260200160002054601660003373ffffffffffffffffffffffffffffffffffffffff1673ffffffffffffffffffffffffffffffffffffffff16815260200190815260200160002054601560003373ffffffffffffffffffffffffffffffffffffffff1673ffffffffffffffffffffffffffffffffffffffff168152602001908152602001600020546105479190612166565b6105519190612166565b61055b9190612166565b111561059c576040517f08c379a000000000000000000000000000000000000000000000000000000000815260040161059390612450565b60405180910390fd5b34601560003373ffffffffffffffffffffffffffffffffffffffff1673ffffffffffffffffffffffffffffffffffffffff16815260200190815260200160002060008282546105eb9190612166565b925050819055506018339080600181540180825580915050600190039060005260206000200160009091909190916101000a81548173ffffffffffffffffffffffffffffffffffffffff021916908373ffffffffffffffffffffffffffffffffffffffff16021790555034600460008282546106679190612166565b9250508190555034600560008282546106809190612166565b925050819055506106b3600960009054906101000a900473ffffffffffffffffffffffffffffffffffffffff16476114bc565b610e39565b6106c1336115b0565b15610a755760115434601660003373ffffffffffffffffffffffffffffffffffffffff1673ffffffffffffffffffffffffffffffffffffffff168152602001908152602001600020546107149190612166565b1015610755576040517f08c379a000000000000000000000000000000000000000000000000000000000815260040161074c9061229a565b60405180910390fd5b600b54346006546107669190612166565b11156107a7576040517f08c379a000000000000000000000000000000000000000000000000000000000815260040161079e906124e2565b60405180910390fd5b600e5434601660003373ffffffffffffffffffffffffffffffffffffffff1673ffffffffffffffffffffffffffffffffffffffff168152602001908152602001600020546107f59190612166565b1115610836576040517f08c379a000000000000000000000000000000000000000000000000000000000815260040161082d90612574565b60405180910390fd5b600e5434601760003373ffffffffffffffffffffffffffffffffffffffff1673ffffffffffffffffffffffffffffffffffffffff16815260200190815260200160002054601660003373ffffffffffffffffffffffffffffffffffffffff1673ffffffffffffffffffffffffffffffffffffffff16815260200190815260200160002054601560003373ffffffffffffffffffffffffffffffffffffffff1673ffffffffffffffffffffffffffffffffffffffff168152602001908152602001600020546109049190612166565b61090e9190612166565b6109189190612166565b1115610959576040517f08c379a000000000000000000000000000000000000000000000000000000000815260040161095090612450565b60405180910390fd5b34601660003373ffffffffffffffffffffffffffffffffffffffff1673ffffffffffffffffffffffffffffffffffffffff16815260200190815260200160002060008282546109a89190612166565b925050819055506019339080600181540180825580915050600190039060005260206000200160009091909190916101000a81548173ffffffffffffffffffffffffffffffffffffffff021916908373ffffffffffffffffffffffffffffffffffffffff1602179055503460046000828254610a249190612166565b925050819055503460066000828254610a3d9190612166565b92505081905550610a70600960009054906101000a900473ffffffffffffffffffffffffffffffffffffffff16476114bc565b610e38565b610a7e33611666565b15610e325760125434601760003373ffffffffffffffffffffffffffffffffffffffff1673ffffffffffffffffffffffffffffffffffffffff16815260200190815260200160002054610ad19190612166565b1015610b12576040517f08c379a0000000000000000000000000000000000000000000000000000000008152600401610b099061229a565b60405180910390fd5b600f5434601760003373ffffffffffffffffffffffffffffffffffffffff1673ffffffffffffffffffffffffffffffffffffffff16815260200190815260200160002054610b609190612166565b1115610ba1576040517f08c379a0000000000000000000000000000000000000000000000000000000008152600401610b9890612606565b60405180910390fd5b600c5434600754610bb29190612166565b1115610bf3576040517f08c379a0000000000000000000000000000000000000000000000000000000008152600401610bea90612698565b60405180910390fd5b600f5434601760003373ffffffffffffffffffffffffffffffffffffffff1673ffffffffffffffffffffffffffffffffffffffff16815260200190815260200160002054601660003373ffffffffffffffffffffffffffffffffffffffff1673ffffffffffffffffffffffffffffffffffffffff16815260200190815260200160002054601560003373ffffffffffffffffffffffffffffffffffffffff1673ffffffffffffffffffffffffffffffffffffffff16815260200190815260200160002054610cc19190612166565b610ccb9190612166565b610cd59190612166565b1115610d16576040517f08c379a0000000000000000000000000000000000000000000000000000000008152600401610d0d90612450565b60405180910390fd5b34601760003373ffffffffffffffffffffffffffffffffffffffff1673ffffffffffffffffffffffffffffffffffffffff1681526020019081526020016000206000828254610d659190612166565b92505081905550601a339080600181540180825580915050600190039060005260206000200160009091909190916101000a81548173ffffffffffffffffffffffffffffffffffffffff021916908373ffffffffffffffffffffffffffffffffffffffff1602179055503460046000828254610de19190612166565b925050819055503460076000828254610dfa9190612166565b92505081905550610e2d600960009054906101000a900473ffffffffffffffffffffffffffffffffffffffff16476114bc565b610e37565b600080fd5b5b5b005b600080fd5b348015610e4c57600080fd5b50610e5561171c565b604051610e6291906126c7565b60405180910390f35b348015610e7757600080fd5b50610e80611722565b604051610e8d91906126c7565b60405180910390f35b348015610ea257600080fd5b50610ebd6004803603810190610eb8919061274b565b611728565b005b348015610ecb57600080fd5b50610ed461184e565b604051610ee191906126c7565b60405180910390f35b348015610ef657600080fd5b50610f116004803603810190610f0c91906127fc565b611854565b604051610f1e91906126c7565b60405180910390f35b348015610f3357600080fd5b50610f3c61186c565b604051610f4991906126c7565b60405180910390f35b348015610f5e57600080fd5b50610f67611872565b604051610f7491906126c7565b60405180910390f35b348015610f8957600080fd5b50610fa46004803603810190610f9f9190612829565b611878565b005b348015610fb257600080fd5b50610fbb6118fe565b604051610fc891906126c7565b60405180910390f35b348015610fdd57600080fd5b50610fe6611904565b604051610ff391906126c7565b60405180910390f35b34801561100857600080fd5b50611023600480360381019061101e91906127fc565b6115b0565b6040516110309190612865565b60405180910390f35b34801561104557600080fd5b5061104e61190a565b60405161105b91906126c7565b60405180910390f35b34801561107057600080fd5b5061108b60048036038101906110869190612829565b611910565b604051611098919061288f565b60405180910390f35b3480156110ad57600080fd5b506110b661194f565b6040516110c391906126c7565b60405180910390f35b3480156110d857600080fd5b506110e1611955565b6040516110ee91906126c7565b60405180910390f35b34801561110357600080fd5b5061111e600480360381019061111991906127fc565b61195b565b60405161112b91906126c7565b60405180910390f35b34801561114057600080fd5b5061115b600480360381019061115691906127fc565b611973565b005b34801561116957600080fd5b50611172611ac5565b005b34801561118057600080fd5b50611189611b4d565b60405161119691906126c7565b60405180910390f35b3480156111ab57600080fd5b506111c660048036038101906111c19190612829565b611b53565b6040516111d3919061288f565b60405180910390f35b3480156111e857600080fd5b506111f1611b92565b6040516111fe919061288f565b60405180910390f35b34801561121357600080fd5b5061121c611bbb565b60405161122991906126c7565b60405180910390f35b34801561123e57600080fd5b50611259600480360381019061125491906127fc565b611bc1565b60405161126691906126c7565b60405180910390f35b34801561127b57600080fd5b50611284611bd9565b6040516112919190612932565b60405180910390f35b3480156112a657600080fd5b506112af611c12565b6040516112bc9190612975565b60405180910390f35b3480156112d157600080fd5b506112da611c38565b6040516112e791906126c7565b60405180910390f35b3480156112fc57600080fd5b5061131760048036038101906113129190612829565b611c3e565b604051611324919061288f565b60405180910390f35b34801561133957600080fd5b50611354600480360381019061134f91906127fc565b611c7d565b005b34801561136257600080fd5b5061136b611dcf565b60405161137891906126c7565b60405180910390f35b34801561138d57600080fd5b506113a860048036038101906113a391906127fc565b611666565b6040516113b59190612865565b60405180910390f35b3480156113ca57600080fd5b506113d3611dd5565b6040516113e091906126c7565b60405180910390f35b3480156113f557600080fd5b50611410600480360381019061140b9190612829565b611ddb565b005b34801561141e57600080fd5b50611427611e61565b6040516114349190612865565b60405180910390f35b34801561144957600080fd5b50611452611e74565b60405161145f91906126c7565b60405180910390f35b34801561147457600080fd5b5061147d611e7a565b60405161148a91906126c7565b60405180910390f35b34801561149f57600080fd5b506114ba60048036038101906114b591906127fc565b611e80565b005b804710156114ff576040517f08c379a00000000000000000000000000000000000000000000000000000000081526004016114f6906129dc565b60405180910390fd5b60008273ffffffffffffffffffffffffffffffffffffffff168260405161152590612a2d565b60006040518083038185875af1925050503d8060008114611562576040519150601f19603f3d011682016040523d82523d6000602084013e611567565b606091505b50509050806115ab576040517f08c379a00000000000000000000000000000000000000000000000000000000081526004016115a290612ab4565b60405180910390fd5b505050565b60008060006013805490509050600091505b8082101561165a578373ffffffffffffffffffffffffffffffffffffffff16601383815481106115f5576115f4612ad4565b5b9060005260206000200160009054906101000a900473ffffffffffffffffffffffffffffffffffffffff1673ffffffffffffffffffffffffffffffffffffffff16141561164757600192505050611661565b818061165290612b03565b9250506115c2565b6000925050505b919050565b60008060006014805490509050600091505b80821015611710578373ffffffffffffffffffffffffffffffffffffffff16601483815481106116ab576116aa612ad4565b5b9060005260206000200160009054906101000a900473ffffffffffffffffffffffffffffffffffffffff1673ffffffffffffffffffffffffffffffffffffffff1614156116fd57600192505050611717565b818061170890612b03565b925050611678565b6000925050505b919050565b60085481565b60105481565b611730611f78565b73ffffffffffffffffffffffffffffffffffffffff1661174e611b92565b73ffffffffffffffffffffffffffffffffffffffff16146117a4576040517f08c379a000000000000000000000000000000000000000000000000000000000815260040161179b90612b98565b60405180910390fd5b82600060146101000a81548160ff021916908315150217905550600060149054906101000a900460ff1615611800576004546001546117e39190612bb8565b600a81905550600654600b81905550600754600c81905550611849565b6000600a8190555060646001546118179190612c1b565b826118229190612c4c565b600b8190555060646001546118379190612c1b565b816118429190612c4c565b600c819055505b505050565b60025481565b60156020528060005260406000206000915090505481565b60015481565b600c5481565b611880611f78565b73ffffffffffffffffffffffffffffffffffffffff1661189e611b92565b73ffffffffffffffffffffffffffffffffffffffff16146118f4576040517f08c379a00000000000000000000000000000000000000000000000000000000081526004016118eb90612b98565b60405180910390fd5b8060028190555050565b60125481565b60065481565b60115481565b6018818154811061192057600080fd5b906000526020600020016000915054906101000a900473ffffffffffffffffffffffffffffffffffffffff1681565b60055481565b60075481565b60166020528060005260406000206000915090505481565b61197b611f78565b73ffffffffffffffffffffffffffffffffffffffff16611999611b92565b73ffffffffffffffffffffffffffffffffffffffff16146119ef576040517f08c379a00000000000000000000000000000000000000000000000000000000081526004016119e690612b98565b60405180910390fd5b600073ffffffffffffffffffffffffffffffffffffffff168173ffffffffffffffffffffffffffffffffffffffff161415611a5f576040517f08c379a0000000000000000000000000000000000000000000000000000000008152600401611a5690612cf2565b60405180910390fd5b6013819080600181540180825580915050600190039060005260206000200160009091909190916101000a81548173ffffffffffffffffffffffffffffffffffffffff021916908373ffffffffffffffffffffffffffffffffffffffff16021790555050565b611acd611f78565b73ffffffffffffffffffffffffffffffffffffffff16611aeb611b92565b73ffffffffffffffffffffffffffffffffffffffff1614611b41576040517f08c379a0000000000000000000000000000000000000000000000000000000008152600401611b3890612b98565b60405180910390fd5b611b4b6000611f80565b565b600b5481565b601a8181548110611b6357600080fd5b906000526020600020016000915054906101000a900473ffffffffffffffffffffffffffffffffffffffff1681565b60008060009054906101000a900473ffffffffffffffffffffffffffffffffffffffff16905090565b600e5481565b60176020528060005260406000206000915090505481565b6040518060400160405280601081526020017f444d5420507269766174652053616c650000000000000000000000000000000081525081565b600960009054906101000a900473ffffffffffffffffffffffffffffffffffffffff1681565b600d5481565b60198181548110611c4e57600080fd5b906000526020600020016000915054906101000a900473ffffffffffffffffffffffffffffffffffffffff1681565b611c85611f78565b73ffffffffffffffffffffffffffffffffffffffff16611ca3611b92565b73ffffffffffffffffffffffffffffffffffffffff1614611cf9576040517f08c379a0000000000000000000000000000000000000000000000000000000008152600401611cf090612b98565b60405180910390fd5b600073ffffffffffffffffffffffffffffffffffffffff168173ffffffffffffffffffffffffffffffffffffffff161415611d69576040517f08c379a0000000000000000000000000000000000000000000000000000000008152600401611d6090612cf2565b60405180910390fd5b6014819080600181540180825580915050600190039060005260206000200160009091909190916101000a81548173ffffffffffffffffffffffffffffffffffffffff021916908373ffffffffffffffffffffffffffffffffffffffff16021790555050565b60045481565b600a5481565b611de3611f78565b73ffffffffffffffffffffffffffffffffffffffff16611e01611b92565b73ffffffffffffffffffffffffffffffffffffffff1614611e57576040517f08c379a0000000000000000000000000000000000000000000000000000000008152600401611e4e90612b98565b60405180910390fd5b8060038190555050565b600060149054906101000a900460ff1681565b600f5481565b60035481565b611e88611f78565b73ffffffffffffffffffffffffffffffffffffffff16611ea6611b92565b73ffffffffffffffffffffffffffffffffffffffff1614611efc576040517f08c379a0000000000000000000000000000000000000000000000000000000008152600401611ef390612b98565b60405180910390fd5b600073ffffffffffffffffffffffffffffffffffffffff168173ffffffffffffffffffffffffffffffffffffffff161415611f6c576040517f08c379a0000000000000000000000000000000000000000000000000000000008152600401611f6390612d84565b60405180910390fd5b611f7581611f80565b50565b600033905090565b60008060009054906101000a900473ffffffffffffffffffffffffffffffffffffffff169050816000806101000a81548173ffffffffffffffffffffffffffffffffffffffff021916908373ffffffffffffffffffffffffffffffffffffffff1602179055508173ffffffffffffffffffffffffffffffffffffffff168173ffffffffffffffffffffffffffffffffffffffff167f8be0079c531659141344cd1fd0a4f28419497f9722a3daafe3b4186f6b6457e060405160405180910390a35050565b600082825260208201905092915050565b7f5468652073616c65206973206e6f742073746172746564207965742000000000600082015250565b600061208b601c83612044565b915061209682612055565b602082019050919050565b600060208201905081810360008301526120ba8161207e565b9050919050565b7f5468652073616c6520697320636c6f7365640000000000000000000000000000600082015250565b60006120f7601283612044565b9150612102826120c1565b602082019050919050565b60006020820190508181036000830152612126816120ea565b9050919050565b6000819050919050565b7f4e487b7100000000000000000000000000000000000000000000000000000000600052601160045260246000fd5b60006121718261212d565b915061217c8361212d565b9250827fffffffffffffffffffffffffffffffffffffffffffffffffffffffffffffffff038211156121b1576121b0612137565b5b828201905092915050565b7f627579546f6b656e733a20707572636861736520776f756c642065786365656460008201527f206d617820636170000000000000000000000000000000000000000000000000602082015250565b6000612218602883612044565b9150612223826121bc565b604082019050919050565b600060208201905081810360008301526122478161220b565b9050919050565b7f796f75722070757263686173696e6720506f77657220697320736f204c6f7700600082015250565b6000612284601f83612044565b915061228f8261224e565b602082019050919050565b600060208201905081810360008301526122b381612277565b9050919050565b7f796f752061726520696e76657374696e67206d6f7265207468616e20796f757260008201527f205469657220302e30206c696d69742100000000000000000000000000000000602082015250565b6000612316603083612044565b9150612321826122ba565b604082019050919050565b6000602082019050818103600083015261234581612309565b9050919050565b7f627579546f6b656e733a20707572636861736520776f756c642065786365656460008201527f2054696572206f6e65206d617820636170000000000000000000000000000000602082015250565b60006123a8603183612044565b91506123b38261234c565b604082019050919050565b600060208201905081810360008301526123d78161239b565b9050919050565b7f627579546f6b656e733a596f752061726520696e76657374696e67206d6f726560008201527f207468616e20796f757220616c6c205469657273206c696d6974210000000000602082015250565b600061243a603b83612044565b9150612445826123de565b604082019050919050565b600060208201905081810360008301526124698161242d565b9050919050565b7f627579546f6b656e733a20707572636861736520776f756c642065786365656460008201527f205469657220312e30206d617820636170000000000000000000000000000000602082015250565b60006124cc603183612044565b91506124d782612470565b604082019050919050565b600060208201905081810360008301526124fb816124bf565b9050919050565b7f627579546f6b656e733a596f752061726520696e76657374696e67206d6f726560008201527f207468616e20796f7572205469657220312e30206c696d697421000000000000602082015250565b600061255e603a83612044565b915061256982612502565b604082019050919050565b6000602082019050818103600083015261258d81612551565b9050919050565b7f627579546f6b656e733a596f752061726520696e76657374696e67206d6f726560008201527f207468616e20796f757220746965722d33206c696d6974210000000000000000602082015250565b60006125f0603883612044565b91506125fb82612594565b604082019050919050565b6000602082019050818103600083015261261f816125e3565b9050919050565b7f627579546f6b656e733a20707572636861736520776f756c642065786365656460008201527f2054696572207468726565206d61782063617000000000000000000000000000602082015250565b6000612682603383612044565b915061268d82612626565b604082019050919050565b600060208201905081810360008301526126b181612675565b9050919050565b6126c18161212d565b82525050565b60006020820190506126dc60008301846126b8565b92915050565b600080fd5b60008115159050919050565b6126fc816126e7565b811461270757600080fd5b50565b600081359050612719816126f3565b92915050565b6127288161212d565b811461273357600080fd5b50565b6000813590506127458161271f565b92915050565b600080600060608486031215612764576127636126e2565b5b60006127728682870161270a565b935050602061278386828701612736565b925050604061279486828701612736565b9150509250925092565b600073ffffffffffffffffffffffffffffffffffffffff82169050919050565b60006127c98261279e565b9050919050565b6127d9816127be565b81146127e457600080fd5b50565b6000813590506127f6816127d0565b92915050565b600060208284031215612812576128116126e2565b5b6000612820848285016127e7565b91505092915050565b60006020828403121561283f5761283e6126e2565b5b600061284d84828501612736565b91505092915050565b61285f816126e7565b82525050565b600060208201905061287a6000830184612856565b92915050565b612889816127be565b82525050565b60006020820190506128a46000830184612880565b92915050565b600081519050919050565b60005b838110156128d35780820151818401526020810190506128b8565b838111156128e2576000848401525b50505050565b6000601f19601f8301169050919050565b6000612904826128aa565b61290e8185612044565b935061291e8185602086016128b5565b612927816128e8565b840191505092915050565b6000602082019050818103600083015261294c81846128f9565b905092915050565b600061295f8261279e565b9050919050565b61296f81612954565b82525050565b600060208201905061298a6000830184612966565b92915050565b7f416464726573733a20696e73756666696369656e742062616c616e6365000000600082015250565b60006129c6601d83612044565b91506129d182612990565b602082019050919050565b600060208201905081810360008301526129f5816129b9565b9050919050565b600081905092915050565b50565b6000612a176000836129fc565b9150612a2282612a07565b600082019050919050565b6000612a3882612a0a565b9150819050919050565b7f416464726573733a20756e61626c6520746f2073656e642076616c75652c207260008201527f6563697069656e74206d61792068617665207265766572746564000000000000602082015250565b6000612a9e603a83612044565b9150612aa982612a42565b604082019050919050565b60006020820190508181036000830152612acd81612a91565b9050919050565b7f4e487b7100000000000000000000000000000000000000000000000000000000600052603260045260246000fd5b6000612b0e8261212d565b91507fffffffffffffffffffffffffffffffffffffffffffffffffffffffffffffffff821415612b4157612b40612137565b5b600182019050919050565b7f4f776e61626c653a2063616c6c6572206973206e6f7420746865206f776e6572600082015250565b6000612b82602083612044565b9150612b8d82612b4c565b602082019050919050565b60006020820190508181036000830152612bb181612b75565b9050919050565b6000612bc38261212d565b9150612bce8361212d565b925082821015612be157612be0612137565b5b828203905092915050565b7f4e487b7100000000000000000000000000000000000000000000000000000000600052601260045260246000fd5b6000612c268261212d565b9150612c318361212d565b925082612c4157612c40612bec565b5b828204905092915050565b6000612c578261212d565b9150612c628361212d565b9250817fffffffffffffffffffffffffffffffffffffffffffffffffffffffffffffffff0483118215151615612c9b57612c9a612137565b5b828202905092915050565b7f496e76616c696420616464726573730000000000000000000000000000000000600082015250565b6000612cdc600f83612044565b9150612ce782612ca6565b602082019050919050565b60006020820190508181036000830152612d0b81612ccf565b9050919050565b7f4f776e61626c653a206e6577206f776e657220697320746865207a65726f206160008201527f6464726573730000000000000000000000000000000000000000000000000000602082015250565b6000612d6e602683612044565b9150612d7982612d12565b604082019050919050565b60006020820190508181036000830152612d9d81612d61565b905091905056fea26469706673582212205f3c835829d6fb937328709c1ded617c5eaec03d5b92a4db93c7ecae0e1b2ef564736f6c63430008090033",
  "immutableReferences": {},
  "source": "// SPDX-License-Identifier: MIT\npragma solidity >=0.4.22 <0.9.0;\n\n/*\n *Demetra.finance\n *Security Provider\n *Inheritance protocol eliminates concerns about loss of crypto assets even after the death with assigning backup wallet or setup a will\n *Private sale contract with 3 Tiers with different allocation\n *Tier 0.0 -> public\n *Tier 1.0 -> 0.1 - 5 BNB\n *Tier 2.0 -> 5 - 20 BNB\n */\n\nimport \"@openzeppelin/contracts/utils/Address.sol\";\nimport \"@openzeppelin/contracts/access/Ownable.sol\";\n\ncontract DemetraPrivateSale is Ownable {\n    \n    bool public isPublic;\n    //token attributes\n    string public constant NAME = \"DMT Private Sale\"; //name of the contract\n    uint256 public  maxCap = 400 * (10**18); // Max cap in BNB\n\n    uint256 public saleStartTime; // start sale time\n    uint256 public saleEndTime; // end sale time in tier 1\n\n    uint256 public totalBnbReceivedInAllTier; // total bnd received\n\n    uint256 public totalBnbInTierZero; // total bnb for tier Zero\n    uint256 public totalBnbInTierOne; // total bnb for tier one\n    uint256 public totalBnbInTierTwo; // total bnb for tier two\n\n    uint256 public totalparticipants; // total participants\n    address payable public projectOwner; // project Owner\n\n    // max cap per tier\n\n    uint256 public tierZeroMaxCap;\n    uint256 public tierOneMaxCap;\n    uint256 public tierTwoMaxCap;\n\n    //max allocations per user in a tier\n\n    uint256 public maxAllocaPerUserTierZero;\n    uint256 public maxAllocaPerUserTierOne;\n    uint256 public maxAllocaPerUserTierTwo;\n\n    //min allocation per user in a tier\n\n    uint256 public minAllocaPerUserTierZero;\n    uint256 public minAllocaPerUserTierOne;\n    uint256 public minAllocaPerUserTierTwo;\n\n    //tier 1 is public no whitelist\n    // address array for tier one whitelist\n    //address[] private whitelistTierOne;\n    address[] private whitelistTierOne;\n    address[] private whitelistTierTwo;\n\n    //mapping the user purchase per tier\n\n    mapping(address => uint256) public buyInTierZero;\n    mapping(address => uint256) public buyInTierOne;\n    mapping(address => uint256) public buyInTierTwo;\n\n    address[] public tierZeroParticipants;\n    address[] public tierOneParticipants;\n    address[] public tierTwoParticipants;\n    \n\n    // CONSTRUCTOR\n    constructor(\n        uint256 _saleStartTime,\n        uint256 _saleEndTime,\n        address payable _projectOwner,\n        uint256 _tierOneValue, //percentage eg = 30\n        uint256 _tierTwoValue //percentage eg = 70\n      ) {\n        isPublic = false; //whitelist\n\n        saleStartTime = _saleStartTime;\n        saleEndTime = _saleEndTime;\n\n        projectOwner = _projectOwner;\n\n        tierOneMaxCap = _tierOneValue * (maxCap / 100);\n        tierTwoMaxCap = _tierTwoValue * (maxCap / 100);\n        tierZeroMaxCap = maxCap - tierOneMaxCap - tierTwoMaxCap; //public\n\n        minAllocaPerUserTierZero = 10 **17;\n        minAllocaPerUserTierOne = 10**17;\n        minAllocaPerUserTierTwo = 5 * (10**18);\n\n        maxAllocaPerUserTierZero = 20 * 10**18;\n        maxAllocaPerUserTierOne = 5 * 10**18;\n        maxAllocaPerUserTierTwo = 20 * 10**18;\n\n        totalparticipants = 0;\n    }\n\n    \n\n     //function to set tier manually\n    function changeTier(\n        bool _isPublic,\n        uint256 _tierOneValue,\n        uint256 _tierTwoValue\n    ) external onlyOwner {\n        isPublic = _isPublic;\n        if(isPublic){\n            tierZeroMaxCap = maxCap - totalBnbReceivedInAllTier;\n            tierOneMaxCap = totalBnbInTierOne;\n            tierTwoMaxCap=totalBnbInTierTwo;\n        }\n        else{\n            tierZeroMaxCap = 0;\n            tierOneMaxCap = _tierOneValue * (maxCap / 100);\n            tierTwoMaxCap = _tierTwoValue * (maxCap / 100);\n        }\n    }\n\n    function setStartTime(uint256 start) external onlyOwner{\n        saleStartTime = start;\n    }\n    function setEndTime(uint256 end) external onlyOwner{\n        saleEndTime = end;\n    }\n    //add the address in Whitelist tier one to invest\n    function addWhitelistOne(address _address) external onlyOwner {\n        require(_address != address(0), \"Invalid address\");\n        whitelistTierOne.push(_address);\n    }\n\n    //add the address in Whitelist tier two to invest\n    function addWhitelistTwo(address _address) external onlyOwner {\n        require(_address != address(0), \"Invalid address\");\n        whitelistTierTwo.push(_address);\n    }\n\n   \n\n    // check the address in whitelist tier two\n    function getWhitelistOne(address _address) public view returns (bool) {\n        uint256 i;\n        uint256 length = whitelistTierOne.length;\n        for (i = 0; i < length; i++) {\n            if (whitelistTierOne[i] == _address) {\n                return true;\n            }\n        }\n        return false;\n    }\n\n    // check the address in whitelist tier three\n    function getWhitelistTwo(address _address) public view returns (bool) {\n        uint256 i;\n        uint256 length = whitelistTierTwo.length;\n        for (i = 0; i < length; i++) {\n            if (whitelistTierTwo[i] == _address) {\n                return true;\n            }\n        }\n        return false;\n    }\n\n    \n\n    // send bnb to the contract address\n    receive() external payable {\n        require(\n            block.timestamp >= saleStartTime,\n            \"The sale is not started yet \"\n        ); // solhint-disable\n        require(block.timestamp <= saleEndTime, \"The sale is closed\"); // solhint-disable\n        require(\n            totalBnbReceivedInAllTier + msg.value <= maxCap,\n            \"buyTokens: purchase would exceed max cap\"\n        );\n\n        if (isPublic) {\n            require(\n                buyInTierZero[msg.sender] + msg.value >= minAllocaPerUserTierZero,\n                \"your purchasing Power is so Low\"\n            );\n            require(\n                buyInTierZero[msg.sender] + msg.value <= maxAllocaPerUserTierZero,\n                \"you are investing more than your Tier 0.0 limit!\"\n            );\n            require(\n                totalBnbInTierZero + msg.value <= tierZeroMaxCap,\n                \"buyTokens: purchase would exceed Tier one max cap\"\n            );\n            require(\n                buyInTierZero[msg.sender] +buyInTierOne[msg.sender] +buyInTierTwo[msg.sender] + msg.value <= maxAllocaPerUserTierZero,\n                \"buyTokens:You are investing more than your all Tiers limit!\"\n            );\n\n            \n\n            buyInTierZero[msg.sender] += msg.value;\n            tierZeroParticipants.push(msg.sender);\n            totalBnbReceivedInAllTier += msg.value;\n            totalBnbInTierZero += msg.value;\n            \n             //payable(projectOwner).transfer(address(this).balance);\n             Address.sendValue(payable(projectOwner), address(this).balance);\n             //payable(projectOwner).sendValue(projectOwner,address(this).balance);\n        } else if (getWhitelistOne(msg.sender)) {\n            require(\n                buyInTierOne[msg.sender] + msg.value >= minAllocaPerUserTierOne,\n                \"your purchasing Power is so Low\"\n            );\n            require(\n                totalBnbInTierOne + msg.value <= tierOneMaxCap,\n                \"buyTokens: purchase would exceed Tier 1.0 max cap\"\n            );\n            require(\n                buyInTierOne[msg.sender] + msg.value <= maxAllocaPerUserTierOne,\n                \"buyTokens:You are investing more than your Tier 1.0 limit!\"\n            );\n            require(\n                buyInTierZero[msg.sender] +buyInTierOne[msg.sender] +buyInTierTwo[msg.sender] + msg.value <= maxAllocaPerUserTierOne,\n                \"buyTokens:You are investing more than your all Tiers limit!\"\n            );\n\n            buyInTierOne[msg.sender] += msg.value;\n            tierOneParticipants.push(msg.sender);\n            totalBnbReceivedInAllTier += msg.value;\n            totalBnbInTierOne += msg.value;\n            //sendValue(projectOwner, address(this).balance);\n            //payable(projectOwner).transfer(address(this).balance);\n            Address.sendValue(payable(projectOwner), address(this).balance);\n        } else if (getWhitelistTwo(msg.sender)) {\n            require(\n                buyInTierTwo[msg.sender] + msg.value >=\n                    minAllocaPerUserTierTwo,\n                \"your purchasing Power is so Low\"\n            );\n            require(\n                buyInTierTwo[msg.sender] + msg.value <=\n                    maxAllocaPerUserTierTwo,\n                \"buyTokens:You are investing more than your tier-3 limit!\"\n            );\n            require(\n                totalBnbInTierTwo + msg.value <= tierTwoMaxCap,\n                \"buyTokens: purchase would exceed Tier three max cap\"\n            );\n            require(\n                buyInTierZero[msg.sender] +buyInTierOne[msg.sender] +buyInTierTwo[msg.sender] + msg.value <= maxAllocaPerUserTierTwo,\n                \"buyTokens:You are investing more than your all Tiers limit!\"\n            );\n            buyInTierTwo[msg.sender] += msg.value;\n            tierTwoParticipants.push(msg.sender);\n            totalBnbReceivedInAllTier += msg.value;\n            totalBnbInTierTwo += msg.value;\n            //payable(projectOwner).transfer(address(this).balance);\n            Address.sendValue(payable(projectOwner), address(this).balance);\n        } else {\n            revert();\n        }\n    }\n}\n\n",
  "sourcePath": "/Users/home/Desktop/DemetraFinance/Contracts/PreSale Contract/contracts/DemetraPrivateSale.sol",
  "compiler": {
    "name": "solc",
    "version": "0.8.9+commit.e5eed63a.Emscripten.clang"
  },
  "schemaVersion": "3.4.7",
  "updatedAt": "2022-04-10T10:16:38.358Z",
  "networkType": "ethereum",
  "devdoc": {
    "kind": "dev",
    "methods": {
      "owner()": {
        "details": "Returns the address of the current owner."
      },
      "renounceOwnership()": {
        "details": "Leaves the contract without owner. It will not be possible to call `onlyOwner` functions anymore. Can only be called by the current owner. NOTE: Renouncing ownership will leave the contract without an owner, thereby removing any functionality that is only available to the owner."
      },
      "transferOwnership(address)": {
        "details": "Transfers ownership of the contract to a new account (`newOwner`). Can only be called by the current owner."
      }
    },
    "version": 1
  },
  "userdoc": {
    "kind": "user",
    "methods": {},
    "version": 1
  }
}