{
  "contractName": "DemetraPresale",
  "abi": [
    {
      "inputs": [
        {
          "internalType": "uint256",
          "name": "_saleStartTime",
          "type": "uint256"
        },
        {
          "internalType": "uint256",
          "name": "_saleEndTime",
          "type": "uint256"
        },
        {
          "internalType": "address payable",
          "name": "_projectOwner",
          "type": "address"
        },
        {
          "internalType": "uint256",
          "name": "_tierTwoValue",
          "type": "uint256"
        },
        {
          "internalType": "uint256",
          "name": "_tierThreeValue",
          "type": "uint256"
        }
      ],
      "stateMutability": "nonpayable",
      "type": "constructor"
    },
    {
      "anonymous": false,
      "inputs": [
        {
          "indexed": true,
          "internalType": "address",
          "name": "previousOwner",
          "type": "address"
        },
        {
          "indexed": true,
          "internalType": "address",
          "name": "newOwner",
          "type": "address"
        }
      ],
      "name": "OwnershipTransferred",
      "type": "event"
    },
    {
      "inputs": [],
      "name": "NAME",
      "outputs": [
        {
          "internalType": "string",
          "name": "",
          "type": "string"
        }
      ],
      "stateMutability": "view",
      "type": "function",
      "constant": true
    },
    {
      "inputs": [
        {
          "internalType": "address",
          "name": "",
          "type": "address"
        }
      ],
      "name": "buyInOneTier",
      "outputs": [
        {
          "internalType": "uint256",
          "name": "",
          "type": "uint256"
        }
      ],
      "stateMutability": "view",
      "type": "function",
      "constant": true
    },
    {
      "inputs": [
        {
          "internalType": "address",
          "name": "",
          "type": "address"
        }
      ],
      "name": "buyInThreeTier",
      "outputs": [
        {
          "internalType": "uint256",
          "name": "",
          "type": "uint256"
        }
      ],
      "stateMutability": "view",
      "type": "function",
      "constant": true
    },
    {
      "inputs": [
        {
          "internalType": "address",
          "name": "",
          "type": "address"
        }
      ],
      "name": "buyInTwoTier",
      "outputs": [
        {
          "internalType": "uint256",
          "name": "",
          "type": "uint256"
        }
      ],
      "stateMutability": "view",
      "type": "function",
      "constant": true
    },
    {
      "inputs": [],
      "name": "maxAllocaPerUserTierOne",
      "outputs": [
        {
          "internalType": "uint256",
          "name": "",
          "type": "uint256"
        }
      ],
      "stateMutability": "view",
      "type": "function",
      "constant": true
    },
    {
      "inputs": [],
      "name": "maxAllocaPerUserTierThree",
      "outputs": [
        {
          "internalType": "uint256",
          "name": "",
          "type": "uint256"
        }
      ],
      "stateMutability": "view",
      "type": "function",
      "constant": true
    },
    {
      "inputs": [],
      "name": "maxAllocaPerUserTierTwo",
      "outputs": [
        {
          "internalType": "uint256",
          "name": "",
          "type": "uint256"
        }
      ],
      "stateMutability": "view",
      "type": "function",
      "constant": true
    },
    {
      "inputs": [],
      "name": "maxCap",
      "outputs": [
        {
          "internalType": "uint256",
          "name": "",
          "type": "uint256"
        }
      ],
      "stateMutability": "view",
      "type": "function",
      "constant": true
    },
    {
      "inputs": [],
      "name": "minAllocaPerUserTierOne",
      "outputs": [
        {
          "internalType": "uint256",
          "name": "",
          "type": "uint256"
        }
      ],
      "stateMutability": "view",
      "type": "function",
      "constant": true
    },
    {
      "inputs": [],
      "name": "minAllocaPerUserTierThree",
      "outputs": [
        {
          "internalType": "uint256",
          "name": "",
          "type": "uint256"
        }
      ],
      "stateMutability": "view",
      "type": "function",
      "constant": true
    },
    {
      "inputs": [],
      "name": "minAllocaPerUserTierTwo",
      "outputs": [
        {
          "internalType": "uint256",
          "name": "",
          "type": "uint256"
        }
      ],
      "stateMutability": "view",
      "type": "function",
      "constant": true
    },
    {
      "inputs": [],
      "name": "owner",
      "outputs": [
        {
          "internalType": "address",
          "name": "",
          "type": "address"
        }
      ],
      "stateMutability": "view",
      "type": "function",
      "constant": true
    },
    {
      "inputs": [],
      "name": "projectOwner",
      "outputs": [
        {
          "internalType": "address payable",
          "name": "",
          "type": "address"
        }
      ],
      "stateMutability": "view",
      "type": "function",
      "constant": true
    },
    {
      "inputs": [],
      "name": "renounceOwnership",
      "outputs": [],
      "stateMutability": "nonpayable",
      "type": "function"
    },
    {
      "inputs": [],
      "name": "saleEndTime",
      "outputs": [
        {
          "internalType": "uint256",
          "name": "",
          "type": "uint256"
        }
      ],
      "stateMutability": "view",
      "type": "function",
      "constant": true
    },
    {
      "inputs": [],
      "name": "saleStartTime",
      "outputs": [
        {
          "internalType": "uint256",
          "name": "",
          "type": "uint256"
        }
      ],
      "stateMutability": "view",
      "type": "function",
      "constant": true
    },
    {
      "inputs": [],
      "name": "tierOneMaxCap",
      "outputs": [
        {
          "internalType": "uint256",
          "name": "",
          "type": "uint256"
        }
      ],
      "stateMutability": "view",
      "type": "function",
      "constant": true
    },
    {
      "inputs": [],
      "name": "tierThreeMaxCap",
      "outputs": [
        {
          "internalType": "uint256",
          "name": "",
          "type": "uint256"
        }
      ],
      "stateMutability": "view",
      "type": "function",
      "constant": true
    },
    {
      "inputs": [],
      "name": "tierTwoMaxCap",
      "outputs": [
        {
          "internalType": "uint256",
          "name": "",
          "type": "uint256"
        }
      ],
      "stateMutability": "view",
      "type": "function",
      "constant": true
    },
    {
      "inputs": [],
      "name": "totalBnbInTierOne",
      "outputs": [
        {
          "internalType": "uint256",
          "name": "",
          "type": "uint256"
        }
      ],
      "stateMutability": "view",
      "type": "function",
      "constant": true
    },
    {
      "inputs": [],
      "name": "totalBnbInTierThree",
      "outputs": [
        {
          "internalType": "uint256",
          "name": "",
          "type": "uint256"
        }
      ],
      "stateMutability": "view",
      "type": "function",
      "constant": true
    },
    {
      "inputs": [],
      "name": "totalBnbInTierTwo",
      "outputs": [
        {
          "internalType": "uint256",
          "name": "",
          "type": "uint256"
        }
      ],
      "stateMutability": "view",
      "type": "function",
      "constant": true
    },
    {
      "inputs": [],
      "name": "totalBnbReceivedInAllTier",
      "outputs": [
        {
          "internalType": "uint256",
          "name": "",
          "type": "uint256"
        }
      ],
      "stateMutability": "view",
      "type": "function",
      "constant": true
    },
    {
      "inputs": [],
      "name": "totalparticipants",
      "outputs": [
        {
          "internalType": "uint256",
          "name": "",
          "type": "uint256"
        }
      ],
      "stateMutability": "view",
      "type": "function",
      "constant": true
    },
    {
      "inputs": [
        {
          "internalType": "address",
          "name": "newOwner",
          "type": "address"
        }
      ],
      "name": "transferOwnership",
      "outputs": [],
      "stateMutability": "nonpayable",
      "type": "function"
    },
    {
      "stateMutability": "payable",
      "type": "receive",
      "payable": true
    },
    {
      "inputs": [
        {
          "internalType": "uint256",
          "name": "_tierOneValue",
          "type": "uint256"
        },
        {
          "internalType": "uint256",
          "name": "_tierTwoValue",
          "type": "uint256"
        },
        {
          "internalType": "uint256",
          "name": "_tierThreeValue",
          "type": "uint256"
        }
      ],
      "name": "updateTierCaps",
      "outputs": [],
      "stateMutability": "nonpayable",
      "type": "function"
    },
    {
      "inputs": [
        {
          "internalType": "address",
          "name": "_address",
          "type": "address"
        }
      ],
      "name": "addWhitelistTwo",
      "outputs": [],
      "stateMutability": "nonpayable",
      "type": "function"
    },
    {
      "inputs": [
        {
          "internalType": "address",
          "name": "_address",
          "type": "address"
        }
      ],
      "name": "addWhitelistThree",
      "outputs": [],
      "stateMutability": "nonpayable",
      "type": "function"
    },
    {
      "inputs": [
        {
          "internalType": "bool",
          "name": "_isPublic",
          "type": "bool"
        },
        {
          "internalType": "uint256",
          "name": "_salesStartTime",
          "type": "uint256"
        },
        {
          "internalType": "uint256",
          "name": "_salesEndTime",
          "type": "uint256"
        }
      ],
      "name": "changeTier",
      "outputs": [],
      "stateMutability": "nonpayable",
      "type": "function"
    },
    {
      "inputs": [
        {
          "internalType": "address",
          "name": "_address",
          "type": "address"
        }
      ],
      "name": "getWhitelistTwo",
      "outputs": [
        {
          "internalType": "bool",
          "name": "",
          "type": "bool"
        }
      ],
      "stateMutability": "view",
      "type": "function",
      "constant": true
    },
    {
      "inputs": [
        {
          "internalType": "address",
          "name": "_address",
          "type": "address"
        }
      ],
      "name": "getWhitelistThree",
      "outputs": [
        {
          "internalType": "bool",
          "name": "",
          "type": "bool"
        }
      ],
      "stateMutability": "view",
      "type": "function",
      "constant": true
    }
  ],
  "bytecode": "0x6080604052680ad78ebc5ac62000006001553480156200001e57600080fd5b5060405162002a2838038062002a28833981810160405281019062000044919062000315565b6200006462000058620001a460201b60201c565b620001ac60201b60201c565b60008060146101000a81548160ff021916908315150217905550846002819055508360038190555082600960006101000a81548173ffffffffffffffffffffffffffffffffffffffff021916908373ffffffffffffffffffffffffffffffffffffffff1602179055506064600154620000de9190620003fb565b82620000eb919062000433565b600b819055506064600154620001029190620003fb565b816200010f919062000433565b600c81905550600c54600b546001546200012a919062000494565b62000136919062000494565b600a81905550600160108190555067016345785d8a0000601181905550674563918244f400006012819055506801158e460913d00000600d81905550674563918244f40000600e819055506801158e460913d00000600f8190555060006008819055505050505050620004cf565b600033905090565b60008060009054906101000a900473ffffffffffffffffffffffffffffffffffffffff169050816000806101000a81548173ffffffffffffffffffffffffffffffffffffffff021916908373ffffffffffffffffffffffffffffffffffffffff1602179055508173ffffffffffffffffffffffffffffffffffffffff168173ffffffffffffffffffffffffffffffffffffffff167f8be0079c531659141344cd1fd0a4f28419497f9722a3daafe3b4186f6b6457e060405160405180910390a35050565b600080fd5b6000819050919050565b6200028a8162000275565b81146200029657600080fd5b50565b600081519050620002aa816200027f565b92915050565b600073ffffffffffffffffffffffffffffffffffffffff82169050919050565b6000620002dd82620002b0565b9050919050565b620002ef81620002d0565b8114620002fb57600080fd5b50565b6000815190506200030f81620002e4565b92915050565b600080600080600060a0868803121562000334576200033362000270565b5b6000620003448882890162000299565b9550506020620003578882890162000299565b94505060406200036a88828901620002fe565b93505060606200037d8882890162000299565b9250506080620003908882890162000299565b9150509295509295909350565b7f4e487b7100000000000000000000000000000000000000000000000000000000600052601260045260246000fd5b7f4e487b7100000000000000000000000000000000000000000000000000000000600052601160045260246000fd5b6000620004088262000275565b9150620004158362000275565b9250826200042857620004276200039d565b5b828204905092915050565b6000620004408262000275565b91506200044d8362000275565b9250817fffffffffffffffffffffffffffffffffffffffffffffffffffffffffffffffff0483118215151615620004895762000488620003cc565b5b828202905092915050565b6000620004a18262000275565b9150620004ae8362000275565b925082821015620004c457620004c3620003cc565b5b828203905092915050565b61254980620004df6000396000f3fe6080604052600436106101dc5760003560e01c80638da5cb5b11610102578063b8307a3f11610095578063ed338ff111610064578063ed338ff114611003578063f2fde38b1461102e578063f78d950f14611057578063fe36f6c91461108057610b47565b8063b8307a3f14610f45578063b9ec0dde14610f70578063becbb04b14610fad578063e8891b7d14610fd857610b47565b8063a3f4df7e116100d1578063a3f4df7e14610e9b578063a4475ce414610ec6578063a8b40d8d14610ef1578063ae4fdad914610f1c57610b47565b80638da5cb5b14610ddd5780639025764414610e08578063a0ce460b14610e33578063a390c97f14610e7057610b47565b80633c6bb4741161017a5780635a81a53c116101495780635a81a53c14610d33578063715018a614610d5e57806371b9510d14610d75578063823276c314610db257610b47565b80633c6bb47414610c89578063434800fc14610cb25780634c0d8e8d14610cdd5780634e6ac05914610d0857610b47565b80631cbaee2d116101b65780631cbaee2d14610bcb57806322b1533414610bf657806323548b8b14610c33578063244c4f1014610c5e57610b47565b80630109988514610b4c57806313f1328c14610b775780631a8b43e414610ba057610b47565b36610b4757600254421015610226576040517f08c379a000000000000000000000000000000000000000000000000000000000815260040161021d90611a1c565b60405180910390fd5b60035442111561026b576040517f08c379a000000000000000000000000000000000000000000000000000000000815260040161026290611a88565b60405180910390fd5b6001543460045461027c9190611ae1565b11156102bd576040517f08c379a00000000000000000000000000000000000000000000000000000000081526004016102b490611ba9565b60405180910390fd5b600060149054906101000a900460ff16156106565760105434601560003373ffffffffffffffffffffffffffffffffffffffff1673ffffffffffffffffffffffffffffffffffffffff168152602001908152602001600020546103209190611ae1565b1015610361576040517f08c379a000000000000000000000000000000000000000000000000000000000815260040161035890611c15565b60405180910390fd5b600a54346005546103729190611ae1565b11156103b3576040517f08c379a00000000000000000000000000000000000000000000000000000000081526004016103aa90611ca7565b60405180910390fd5b600d5434601560003373ffffffffffffffffffffffffffffffffffffffff1673ffffffffffffffffffffffffffffffffffffffff168152602001908152602001600020546104019190611ae1565b1115610442576040517f08c379a000000000000000000000000000000000000000000000000000000000815260040161043990611d39565b60405180910390fd5b600d5434601660003373ffffffffffffffffffffffffffffffffffffffff1673ffffffffffffffffffffffffffffffffffffffff168152602001908152602001600020546104909190611ae1565b11156104d1576040517f08c379a00000000000000000000000000000000000000000000000000000000081526004016104c890611dcb565b60405180910390fd5b600d5434601760003373ffffffffffffffffffffffffffffffffffffffff1673ffffffffffffffffffffffffffffffffffffffff1681526020019081526020016000205461051f9190611ae1565b1115610560576040517f08c379a000000000000000000000000000000000000000000000000000000000815260040161055790611dcb565b60405180910390fd5b34601560003373ffffffffffffffffffffffffffffffffffffffff1673ffffffffffffffffffffffffffffffffffffffff16815260200190815260200160002060008282546105af9190611ae1565b9250508190555034600460008282546105c89190611ae1565b9250508190555034600560008282546105e19190611ae1565b92505081905550600960009054906101000a900473ffffffffffffffffffffffffffffffffffffffff1673ffffffffffffffffffffffffffffffffffffffff166108fc479081150290604051600060405180830381858888f19350505050158015610650573d6000803e3d6000fd5b50610b45565b61065f336110bd565b156108ca5760115434601660003373ffffffffffffffffffffffffffffffffffffffff1673ffffffffffffffffffffffffffffffffffffffff168152602001908152602001600020546106b29190611ae1565b10156106f3576040517f08c379a00000000000000000000000000000000000000000000000000000000081526004016106ea90611c15565b60405180910390fd5b600b54346006546107049190611ae1565b1115610745576040517f08c379a000000000000000000000000000000000000000000000000000000000815260040161073c90611e5d565b60405180910390fd5b600e5434601660003373ffffffffffffffffffffffffffffffffffffffff1673ffffffffffffffffffffffffffffffffffffffff168152602001908152602001600020546107939190611ae1565b11156107d4576040517f08c379a00000000000000000000000000000000000000000000000000000000081526004016107cb90611eef565b60405180910390fd5b34601660003373ffffffffffffffffffffffffffffffffffffffff1673ffffffffffffffffffffffffffffffffffffffff16815260200190815260200160002060008282546108239190611ae1565b92505081905550346004600082825461083c9190611ae1565b9250508190555034600660008282546108559190611ae1565b92505081905550600960009054906101000a900473ffffffffffffffffffffffffffffffffffffffff1673ffffffffffffffffffffffffffffffffffffffff166108fc479081150290604051600060405180830381858888f193505050501580156108c4573d6000803e3d6000fd5b50610b44565b6108d33361117a565b15610b3e5760125434601760003373ffffffffffffffffffffffffffffffffffffffff1673ffffffffffffffffffffffffffffffffffffffff168152602001908152602001600020546109269190611ae1565b1015610967576040517f08c379a000000000000000000000000000000000000000000000000000000000815260040161095e90611c15565b60405180910390fd5b600f5434601760003373ffffffffffffffffffffffffffffffffffffffff1673ffffffffffffffffffffffffffffffffffffffff168152602001908152602001600020546109b59190611ae1565b11156109f6576040517f08c379a00000000000000000000000000000000000000000000000000000000081526004016109ed90611f81565b60405180910390fd5b600c5434600754610a079190611ae1565b1115610a48576040517f08c379a0000000000000000000000000000000000000000000000000000000008152600401610a3f90612013565b60405180910390fd5b34601760003373ffffffffffffffffffffffffffffffffffffffff1673ffffffffffffffffffffffffffffffffffffffff1681526020019081526020016000206000828254610a979190611ae1565b925050819055503460046000828254610ab09190611ae1565b925050819055503460076000828254610ac99190611ae1565b92505081905550600960009054906101000a900473ffffffffffffffffffffffffffffffffffffffff1673ffffffffffffffffffffffffffffffffffffffff166108fc479081150290604051600060405180830381858888f19350505050158015610b38573d6000803e3d6000fd5b50610b43565b600080fd5b5b5b005b600080fd5b348015610b5857600080fd5b50610b61611237565b604051610b6e9190612042565b60405180910390f35b348015610b8357600080fd5b50610b9e6004803603810190610b9991906120c6565b61123d565b005b348015610bac57600080fd5b50610bb56112e6565b604051610bc29190612042565b60405180910390f35b348015610bd757600080fd5b50610be06112ec565b604051610bed9190612042565b60405180910390f35b348015610c0257600080fd5b50610c1d6004803603810190610c189190612177565b61117a565b604051610c2a91906121b3565b60405180910390f35b348015610c3f57600080fd5b50610c486112f2565b604051610c559190612042565b60405180910390f35b348015610c6a57600080fd5b50610c736112f8565b604051610c809190612042565b60405180910390f35b348015610c9557600080fd5b50610cb06004803603810190610cab9190612177565b6112fe565b005b348015610cbe57600080fd5b50610cc7611450565b604051610cd49190612042565b60405180910390f35b348015610ce957600080fd5b50610cf2611456565b604051610cff9190612042565b60405180910390f35b348015610d1457600080fd5b50610d1d61145c565b604051610d2a9190612042565b60405180910390f35b348015610d3f57600080fd5b50610d48611462565b604051610d559190612042565b60405180910390f35b348015610d6a57600080fd5b50610d73611468565b005b348015610d8157600080fd5b50610d9c6004803603810190610d979190612177565b6114f0565b604051610da99190612042565b60405180910390f35b348015610dbe57600080fd5b50610dc7611508565b604051610dd49190612042565b60405180910390f35b348015610de957600080fd5b50610df261150e565b604051610dff91906121dd565b60405180910390f35b348015610e1457600080fd5b50610e1d611537565b604051610e2a9190612042565b60405180910390f35b348015610e3f57600080fd5b50610e5a6004803603810190610e559190612177565b61153d565b604051610e679190612042565b60405180910390f35b348015610e7c57600080fd5b50610e85611555565b604051610e929190612042565b60405180910390f35b348015610ea757600080fd5b50610eb061155b565b604051610ebd9190612280565b60405180910390f35b348015610ed257600080fd5b50610edb611594565b604051610ee891906122c3565b60405180910390f35b348015610efd57600080fd5b50610f066115ba565b604051610f139190612042565b60405180910390f35b348015610f2857600080fd5b50610f436004803603810190610f3e9190612177565b6115c0565b005b348015610f5157600080fd5b50610f5a611712565b604051610f679190612042565b60405180910390f35b348015610f7c57600080fd5b50610f976004803603810190610f929190612177565b6110bd565b604051610fa491906121b3565b60405180910390f35b348015610fb957600080fd5b50610fc2611718565b604051610fcf9190612042565b60405180910390f35b348015610fe457600080fd5b50610fed61171e565b604051610ffa9190612042565b60405180910390f35b34801561100f57600080fd5b50611018611724565b6040516110259190612042565b60405180910390f35b34801561103a57600080fd5b5061105560048036038101906110509190612177565b61172a565b005b34801561106357600080fd5b5061107e600480360381019061107991906122de565b611822565b005b34801561108c57600080fd5b506110a760048036038101906110a29190612177565b6118db565b6040516110b49190612042565b60405180910390f35b60008060006013805490509050600091505b8082101561116e576000601383815481106110ed576110ec612331565b5b9060005260206000200160009054906101000a900473ffffffffffffffffffffffffffffffffffffffff1690508473ffffffffffffffffffffffffffffffffffffffff168173ffffffffffffffffffffffffffffffffffffffff16141561115a5760019350505050611175565b50818061116690612360565b9250506110cf565b6000925050505b919050565b60008060006014805490509050600091505b8082101561122b576000601483815481106111aa576111a9612331565b5b9060005260206000200160009054906101000a900473ffffffffffffffffffffffffffffffffffffffff1690508473ffffffffffffffffffffffffffffffffffffffff168173ffffffffffffffffffffffffffffffffffffffff1614156112175760019350505050611232565b50818061122390612360565b92505061118c565b6000925050505b919050565b60085481565b6112456118f3565b73ffffffffffffffffffffffffffffffffffffffff1661126361150e565b73ffffffffffffffffffffffffffffffffffffffff16146112b9576040517f08c379a00000000000000000000000000000000000000000000000000000000081526004016112b0906123f5565b60405180910390fd5b82600060146101000a81548160ff0219169083151502179055508160028190555080600381905550505050565b60125481565b60025481565b60015481565b600b5481565b6113066118f3565b73ffffffffffffffffffffffffffffffffffffffff1661132461150e565b73ffffffffffffffffffffffffffffffffffffffff161461137a576040517f08c379a0000000000000000000000000000000000000000000000000000000008152600401611371906123f5565b60405180910390fd5b600073ffffffffffffffffffffffffffffffffffffffff168173ffffffffffffffffffffffffffffffffffffffff1614156113ea576040517f08c379a00000000000000000000000000000000000000000000000000000000081526004016113e190612461565b60405180910390fd5b6014819080600181540180825580915050600190039060005260206000200160009091909190916101000a81548173ffffffffffffffffffffffffffffffffffffffff021916908373ffffffffffffffffffffffffffffffffffffffff16021790555050565b60115481565b60055481565b60105481565b60065481565b6114706118f3565b73ffffffffffffffffffffffffffffffffffffffff1661148e61150e565b73ffffffffffffffffffffffffffffffffffffffff16146114e4576040517f08c379a00000000000000000000000000000000000000000000000000000000081526004016114db906123f5565b60405180910390fd5b6114ee60006118fb565b565b60166020528060005260406000206000915090505481565b600a5481565b60008060009054906101000a900473ffffffffffffffffffffffffffffffffffffffff16905090565b600d5481565b60176020528060005260406000206000915090505481565b600c5481565b6040518060400160405280600b81526020017f444d542050726573616c6500000000000000000000000000000000000000000081525081565b600960009054906101000a900473ffffffffffffffffffffffffffffffffffffffff1681565b60075481565b6115c86118f3565b73ffffffffffffffffffffffffffffffffffffffff166115e661150e565b73ffffffffffffffffffffffffffffffffffffffff161461163c576040517f08c379a0000000000000000000000000000000000000000000000000000000008152600401611633906123f5565b60405180910390fd5b600073ffffffffffffffffffffffffffffffffffffffff168173ffffffffffffffffffffffffffffffffffffffff1614156116ac576040517f08c379a00000000000000000000000000000000000000000000000000000000081526004016116a390612461565b60405180910390fd5b6013819080600181540180825580915050600190039060005260206000200160009091909190916101000a81548173ffffffffffffffffffffffffffffffffffffffff021916908373ffffffffffffffffffffffffffffffffffffffff16021790555050565b60045481565b600f5481565b600e5481565b60035481565b6117326118f3565b73ffffffffffffffffffffffffffffffffffffffff1661175061150e565b73ffffffffffffffffffffffffffffffffffffffff16146117a6576040517f08c379a000000000000000000000000000000000000000000000000000000000815260040161179d906123f5565b60405180910390fd5b600073ffffffffffffffffffffffffffffffffffffffff168173ffffffffffffffffffffffffffffffffffffffff161415611816576040517f08c379a000000000000000000000000000000000000000000000000000000000815260040161180d906124f3565b60405180910390fd5b61181f816118fb565b50565b61182a6118f3565b73ffffffffffffffffffffffffffffffffffffffff1661184861150e565b73ffffffffffffffffffffffffffffffffffffffff161461189e576040517f08c379a0000000000000000000000000000000000000000000000000000000008152600401611895906123f5565b60405180910390fd5b82600a8190555081600b8190555080600c81905550600c54600b54600a546118c69190611ae1565b6118d09190611ae1565b600181905550505050565b60156020528060005260406000206000915090505481565b600033905090565b60008060009054906101000a900473ffffffffffffffffffffffffffffffffffffffff169050816000806101000a81548173ffffffffffffffffffffffffffffffffffffffff021916908373ffffffffffffffffffffffffffffffffffffffff1602179055508173ffffffffffffffffffffffffffffffffffffffff168173ffffffffffffffffffffffffffffffffffffffff167f8be0079c531659141344cd1fd0a4f28419497f9722a3daafe3b4186f6b6457e060405160405180910390a35050565b600082825260208201905092915050565b7f5468652073616c65206973206e6f742073746172746564207965742000000000600082015250565b6000611a06601c836119bf565b9150611a11826119d0565b602082019050919050565b60006020820190508181036000830152611a35816119f9565b9050919050565b7f5468652073616c6520697320636c6f7365640000000000000000000000000000600082015250565b6000611a726012836119bf565b9150611a7d82611a3c565b602082019050919050565b60006020820190508181036000830152611aa181611a65565b9050919050565b6000819050919050565b7f4e487b7100000000000000000000000000000000000000000000000000000000600052601160045260246000fd5b6000611aec82611aa8565b9150611af783611aa8565b9250827fffffffffffffffffffffffffffffffffffffffffffffffffffffffffffffffff03821115611b2c57611b2b611ab2565b5b828201905092915050565b7f627579546f6b656e733a20707572636861736520776f756c642065786365656460008201527f206d617820636170000000000000000000000000000000000000000000000000602082015250565b6000611b936028836119bf565b9150611b9e82611b37565b604082019050919050565b60006020820190508181036000830152611bc281611b86565b9050919050565b7f796f75722070757263686173696e6720506f77657220697320736f204c6f7700600082015250565b6000611bff601f836119bf565b9150611c0a82611bc9565b602082019050919050565b60006020820190508181036000830152611c2e81611bf2565b9050919050565b7f627579546f6b656e733a20707572636861736520776f756c642065786365656460008201527f2054696572206f6e65206d617820636170000000000000000000000000000000602082015250565b6000611c916031836119bf565b9150611c9c82611c35565b604082019050919050565b60006020820190508181036000830152611cc081611c84565b9050919050565b7f627579546f6b656e733a596f752061726520696e76657374696e67206d6f726560008201527f207468616e20796f757220746965722d31206c696d6974210000000000000000602082015250565b6000611d236038836119bf565b9150611d2e82611cc7565b604082019050919050565b60006020820190508181036000830152611d5281611d16565b9050919050565b7f627579546f6b656e733a596f752061726520696e76657374696e67206d6f726560008201527f207468616e20796f757220616c6c2074696572206c696d697421000000000000602082015250565b6000611db5603a836119bf565b9150611dc082611d59565b604082019050919050565b60006020820190508181036000830152611de481611da8565b9050919050565b7f627579546f6b656e733a20707572636861736520776f756c642065786365656460008201527f20546965722074776f206d617820636170000000000000000000000000000000602082015250565b6000611e476031836119bf565b9150611e5282611deb565b604082019050919050565b60006020820190508181036000830152611e7681611e3a565b9050919050565b7f627579546f6b656e733a596f752061726520696e76657374696e67206d6f726560008201527f207468616e20796f757220746965722d32206c696d6974210000000000000000602082015250565b6000611ed96038836119bf565b9150611ee482611e7d565b604082019050919050565b60006020820190508181036000830152611f0881611ecc565b9050919050565b7f627579546f6b656e733a596f752061726520696e76657374696e67206d6f726560008201527f207468616e20796f757220746965722d33206c696d6974210000000000000000602082015250565b6000611f6b6038836119bf565b9150611f7682611f0f565b604082019050919050565b60006020820190508181036000830152611f9a81611f5e565b9050919050565b7f627579546f6b656e733a20707572636861736520776f756c642065786365656460008201527f2054696572207468726565206d61782063617000000000000000000000000000602082015250565b6000611ffd6033836119bf565b915061200882611fa1565b604082019050919050565b6000602082019050818103600083015261202c81611ff0565b9050919050565b61203c81611aa8565b82525050565b60006020820190506120576000830184612033565b92915050565b600080fd5b60008115159050919050565b61207781612062565b811461208257600080fd5b50565b6000813590506120948161206e565b92915050565b6120a381611aa8565b81146120ae57600080fd5b50565b6000813590506120c08161209a565b92915050565b6000806000606084860312156120df576120de61205d565b5b60006120ed86828701612085565b93505060206120fe868287016120b1565b925050604061210f868287016120b1565b9150509250925092565b600073ffffffffffffffffffffffffffffffffffffffff82169050919050565b600061214482612119565b9050919050565b61215481612139565b811461215f57600080fd5b50565b6000813590506121718161214b565b92915050565b60006020828403121561218d5761218c61205d565b5b600061219b84828501612162565b91505092915050565b6121ad81612062565b82525050565b60006020820190506121c860008301846121a4565b92915050565b6121d781612139565b82525050565b60006020820190506121f260008301846121ce565b92915050565b600081519050919050565b60005b83811015612221578082015181840152602081019050612206565b83811115612230576000848401525b50505050565b6000601f19601f8301169050919050565b6000612252826121f8565b61225c81856119bf565b935061226c818560208601612203565b61227581612236565b840191505092915050565b6000602082019050818103600083015261229a8184612247565b905092915050565b60006122ad82612119565b9050919050565b6122bd816122a2565b82525050565b60006020820190506122d860008301846122b4565b92915050565b6000806000606084860312156122f7576122f661205d565b5b6000612305868287016120b1565b9350506020612316868287016120b1565b9250506040612327868287016120b1565b9150509250925092565b7f4e487b7100000000000000000000000000000000000000000000000000000000600052603260045260246000fd5b600061236b82611aa8565b91507fffffffffffffffffffffffffffffffffffffffffffffffffffffffffffffffff82141561239e5761239d611ab2565b5b600182019050919050565b7f4f776e61626c653a2063616c6c6572206973206e6f7420746865206f776e6572600082015250565b60006123df6020836119bf565b91506123ea826123a9565b602082019050919050565b6000602082019050818103600083015261240e816123d2565b9050919050565b7f496e76616c696420616464726573730000000000000000000000000000000000600082015250565b600061244b600f836119bf565b915061245682612415565b602082019050919050565b6000602082019050818103600083015261247a8161243e565b9050919050565b7f4f776e61626c653a206e6577206f776e657220697320746865207a65726f206160008201527f6464726573730000000000000000000000000000000000000000000000000000602082015250565b60006124dd6026836119bf565b91506124e882612481565b604082019050919050565b6000602082019050818103600083015261250c816124d0565b905091905056fea264697066735822122045bfecf4e12e4b9997900070ab33cecdda3ecf7b721a22952abb2ca59b52203b64736f6c63430008090033",
  "immutableReferences": {},
  "source": "// SPDX-License-Identifier: MIT\npragma solidity >=0.4.22 <0.9.0;\n\n/*\n *Demetra.finance\n *Inheritance Protocol Provider\n *Inheritance protoloc eliminates concerns about loss of crypto assets after the death\n */\n\nimport \"@openzeppelin/contracts/utils/Address.sol\";\nimport \"@openzeppelin/contracts/access/Ownable.sol\";\n\n//import '@openzeppelin/contracts/token/ERC20/IERC20.sol';\n\ncontract DemetraPresale is Ownable {\n    //select sale : tier1 whitelist = 1 , tier2 whitelist = 2\n    bool isPublic;\n    //token attributes\n    string public constant NAME = \"DMT Presale\"; //name of the contract\n    uint256 public  maxCap = 200 * (10**18); // Max cap in BNB\n\n    uint256 public saleStartTime; // start sale time\n    uint256 public saleEndTime; // end sale time in tier 1\n\n    uint256 public totalBnbReceivedInAllTier; // total bnd received\n\n    uint256 public totalBnbInTierOne; // total bnb for tier one\n    uint256 public totalBnbInTierTwo; // total bnb for tier two\n    uint256 public totalBnbInTierThree; // total bnb for tier three\n\n    uint256 public totalparticipants; // total participants\n    address payable public projectOwner; // project Owner\n\n    // max cap per tier\n\n    uint256 public tierOneMaxCap;\n    uint256 public tierTwoMaxCap;\n    uint256 public tierThreeMaxCap;\n\n    //max allocations per user in a tier\n\n    uint256 public maxAllocaPerUserTierOne;\n    uint256 public maxAllocaPerUserTierTwo;\n    uint256 public maxAllocaPerUserTierThree;\n\n    //min allocation per user in a tier\n\n    uint256 public minAllocaPerUserTierOne;\n    uint256 public minAllocaPerUserTierTwo;\n    uint256 public minAllocaPerUserTierThree;\n\n    //tier 0 is puvlic no whitelist\n    // address array for tier one whitelist\n    //address[] private whitelistTierOne;\n    address[] private whitelistTierTwo;\n    address[] private whitelistTierThree;\n\n    //mapping the user purchase per tier\n\n    mapping(address => uint256) public buyInOneTier;\n    mapping(address => uint256) public buyInTwoTier;\n    mapping(address => uint256) public buyInThreeTier;\n\n    \n\n    // CONSTRUCTOR\n    constructor(\n        uint256 _saleStartTime,\n        uint256 _saleEndTime,\n        address payable _projectOwner,\n        uint256 _tierTwoValue,\n        uint256 _tierThreeValue\n      ) {\n        isPublic = false; //whitelist\n\n        saleStartTime = _saleStartTime;\n        saleEndTime = _saleEndTime;\n\n        projectOwner = _projectOwner;\n\n        tierTwoMaxCap = _tierTwoValue * (maxCap / 100);\n        tierThreeMaxCap = _tierThreeValue * (maxCap / 100);\n        tierOneMaxCap = maxCap - tierTwoMaxCap - tierThreeMaxCap; //public\n\n        minAllocaPerUserTierOne = 1;\n        minAllocaPerUserTierTwo = 10**17;\n        minAllocaPerUserTierThree = 5 * (10**18);\n\n        maxAllocaPerUserTierOne = 20 * 10**18;\n        maxAllocaPerUserTierTwo = 5 * 10**18;\n        maxAllocaPerUserTierThree = 20 * 10**18;\n\n        totalparticipants = 0;\n    }\n\n    // function to update the tiers value manually\n    function updateTierCaps(\n        uint256 _tierOneValue,\n        uint256 _tierTwoValue,\n        uint256 _tierThreeValue\n      ) external onlyOwner {\n        tierOneMaxCap = _tierOneValue;\n        tierTwoMaxCap = _tierTwoValue;\n        tierThreeMaxCap = _tierThreeValue;\n        maxCap = tierOneMaxCap + tierTwoMaxCap + tierThreeMaxCap;\n\n        //maxAllocaPerUserTierOne = tierOneMaxCap / totalUserInTierOne;\n        //maxAllocaPerUserTierTwo = tierTwoMaxCap / totalUserInTierTwo;\n    }\n\n    //add the address in Whitelist tier two to invest\n    function addWhitelistTwo(address _address) external onlyOwner {\n        require(_address != address(0), \"Invalid address\");\n        whitelistTierTwo.push(_address);\n    }\n\n    //add the address in Whitelist tier two to invest\n    function addWhitelistThree(address _address) external onlyOwner {\n        require(_address != address(0), \"Invalid address\");\n        whitelistTierThree.push(_address);\n    }\n\n    //function to set tier manually\n    function changeTier(\n        bool _isPublic,\n        uint256 _salesStartTime,\n        uint256 _salesEndTime\n    ) external onlyOwner {\n        isPublic = _isPublic;\n        saleStartTime = _salesStartTime;\n        saleEndTime = _salesEndTime;\n    }\n\n    // check the address in whitelist tier two\n    function getWhitelistTwo(address _address) public view returns (bool) {\n        uint256 i;\n        uint256 length = whitelistTierTwo.length;\n        for (i = 0; i < length; i++) {\n            address _addressArr = whitelistTierTwo[i];\n            if (_addressArr == _address) {\n                return true;\n            }\n        }\n        return false;\n    }\n\n    // check the address in whitelist tier three\n    function getWhitelistThree(address _address) public view returns (bool) {\n        uint256 i;\n        uint256 length = whitelistTierThree.length;\n        for (i = 0; i < length; i++) {\n            address _addressArr = whitelistTierThree[i];\n            if (_addressArr == _address) {\n                return true;\n            }\n        }\n        return false;\n    }\n\n    /**\n     * @dev Replacement for Solidity's `transfer`: sends `amount` wei to\n     * `recipient`, forwarding all available gas and reverting on errors.\n     *\n     * https://eips.ethereum.org/EIPS/eip-1884[EIP1884] increases the gas cost\n     * of certain opcodes, possibly making contracts go over the 2300 gas limit\n     * imposed by `transfer`, making them unable to receive funds via\n     * `transfer`. {sendValue} removes this limitation.\n     *\n     * https://diligence.consensys.net/posts/2019/09/stop-using-soliditys-transfer-now/[Learn more].\n     *\n     * IMPORTANT: because control is transferred to `recipient`, care must be\n     * taken to not create reentrancy vulnerabilities. Consider using\n     * {ReentrancyGuard} or the\n     * https://solidity.readthedocs.io/en/v0.5.11/security-considerations.html#use-the-checks-effects-interactions-pattern[checks-effects-interactions pattern].\n     */\n    function sendValue(address payable recipient, uint256 amount) internal {\n        require(\n            address(this).balance >= amount,\n            \"Address: insufficient balance\"\n        );\n\n        // solhint-disable-next-line avoid-low-level-calls, avoid-call-value\n        (bool success, ) = recipient.call{value: amount}(\"\");\n        require(\n            success,\n            \"Address: unable to send value, recipient may have reverted\"\n        );\n    }\n\n    // send bnb to the contract address\n    receive() external payable {\n        require(\n            block.timestamp >= saleStartTime,\n            \"The sale is not started yet \"\n        ); // solhint-disable\n        require(block.timestamp <= saleEndTime, \"The sale is closed\"); // solhint-disable\n        require(\n            totalBnbReceivedInAllTier + msg.value <= maxCap,\n            \"buyTokens: purchase would exceed max cap\"\n        );\n\n        if (isPublic) {\n            require(\n                buyInOneTier[msg.sender] + msg.value >= minAllocaPerUserTierOne,\n                \"your purchasing Power is so Low\"\n            );\n            require(\n                totalBnbInTierOne + msg.value <= tierOneMaxCap,\n                \"buyTokens: purchase would exceed Tier one max cap\"\n            );\n            require(\n                buyInOneTier[msg.sender] + msg.value <= maxAllocaPerUserTierOne,\n                \"buyTokens:You are investing more than your tier-1 limit!\"\n            );\n\n            require(\n                buyInTwoTier[msg.sender] + msg.value <= maxAllocaPerUserTierOne,\n                \"buyTokens:You are investing more than your all tier limit!\"\n            );\n\n            require(\n                buyInThreeTier[msg.sender] + msg.value <= maxAllocaPerUserTierOne,\n                \"buyTokens:You are investing more than your all tier limit!\"\n            );\n\n            buyInOneTier[msg.sender] += msg.value;\n            totalBnbReceivedInAllTier += msg.value;\n            totalBnbInTierOne += msg.value;\n            payable(projectOwner).transfer(address(this).balance);\n        } else if (getWhitelistTwo(msg.sender)) {\n            require(\n                buyInTwoTier[msg.sender] + msg.value >= minAllocaPerUserTierTwo,\n                \"your purchasing Power is so Low\"\n            );\n            require(\n                totalBnbInTierTwo + msg.value <= tierTwoMaxCap,\n                \"buyTokens: purchase would exceed Tier two max cap\"\n            );\n            require(\n                buyInTwoTier[msg.sender] + msg.value <= maxAllocaPerUserTierTwo,\n                \"buyTokens:You are investing more than your tier-2 limit!\"\n            );\n\n            buyInTwoTier[msg.sender] += msg.value;\n            totalBnbReceivedInAllTier += msg.value;\n            totalBnbInTierTwo += msg.value;\n            //sendValue(projectOwner, address(this).balance);\n            payable(projectOwner).transfer(address(this).balance);\n        } else if (getWhitelistThree(msg.sender)) {\n            require(\n                buyInThreeTier[msg.sender] + msg.value >=\n                    minAllocaPerUserTierThree,\n                \"your purchasing Power is so Low\"\n            );\n            require(\n                buyInThreeTier[msg.sender] + msg.value <=\n                    maxAllocaPerUserTierThree,\n                \"buyTokens:You are investing more than your tier-3 limit!\"\n            );\n            require(\n                totalBnbInTierThree + msg.value <= tierThreeMaxCap,\n                \"buyTokens: purchase would exceed Tier three max cap\"\n            );\n\n            buyInThreeTier[msg.sender] += msg.value;\n            totalBnbReceivedInAllTier += msg.value;\n            totalBnbInTierThree += msg.value;\n            payable(projectOwner).transfer(address(this).balance);\n\n        } else {\n            revert();\n        }\n    }\n}\n\n",
  "sourcePath": "/Users/home/Desktop/DemetraFinance/Contracts/PreSale/contracts/DemetraPresale.sol",
  "compiler": {
    "name": "solc",
    "version": "0.8.9+commit.e5eed63a.Emscripten.clang"
  },
  "schemaVersion": "3.4.3",
  "updatedAt": "2022-01-26T08:50:03.046Z",
  "networkType": "ethereum",
  "devdoc": {
    "kind": "dev",
    "methods": {
      "owner()": {
        "details": "Returns the address of the current owner."
      },
      "renounceOwnership()": {
        "details": "Leaves the contract without owner. It will not be possible to call `onlyOwner` functions anymore. Can only be called by the current owner. NOTE: Renouncing ownership will leave the contract without an owner, thereby removing any functionality that is only available to the owner."
      },
      "transferOwnership(address)": {
        "details": "Transfers ownership of the contract to a new account (`newOwner`). Can only be called by the current owner."
      }
    },
    "version": 1
  },
  "userdoc": {
    "kind": "user",
    "methods": {},
    "version": 1
  }
}