{
  "contractName": "DemetraPrivateSale",
  "abi": [
    {
      "inputs": [
        {
          "internalType": "uint256",
          "name": "_saleStartTime",
          "type": "uint256"
        },
        {
          "internalType": "uint256",
          "name": "_saleEndTime",
          "type": "uint256"
        },
        {
          "internalType": "address payable",
          "name": "_projectOwner",
          "type": "address"
        },
        {
          "internalType": "address[]",
          "name": "_whitelist",
          "type": "address[]"
        }
      ],
      "stateMutability": "nonpayable",
      "type": "constructor"
    },
    {
      "anonymous": false,
      "inputs": [
        {
          "indexed": true,
          "internalType": "address",
          "name": "previousOwner",
          "type": "address"
        },
        {
          "indexed": true,
          "internalType": "address",
          "name": "newOwner",
          "type": "address"
        }
      ],
      "name": "OwnershipTransferred",
      "type": "event"
    },
    {
      "inputs": [],
      "name": "NAME",
      "outputs": [
        {
          "internalType": "string",
          "name": "",
          "type": "string"
        }
      ],
      "stateMutability": "view",
      "type": "function",
      "constant": true
    },
    {
      "inputs": [],
      "name": "maxAllocationPerUser",
      "outputs": [
        {
          "internalType": "uint256",
          "name": "",
          "type": "uint256"
        }
      ],
      "stateMutability": "view",
      "type": "function",
      "constant": true
    },
    {
      "inputs": [],
      "name": "maxCap",
      "outputs": [
        {
          "internalType": "uint256",
          "name": "",
          "type": "uint256"
        }
      ],
      "stateMutability": "view",
      "type": "function",
      "constant": true
    },
    {
      "inputs": [],
      "name": "minAllocaPerUser",
      "outputs": [
        {
          "internalType": "uint256",
          "name": "",
          "type": "uint256"
        }
      ],
      "stateMutability": "view",
      "type": "function",
      "constant": true
    },
    {
      "inputs": [],
      "name": "owner",
      "outputs": [
        {
          "internalType": "address",
          "name": "",
          "type": "address"
        }
      ],
      "stateMutability": "view",
      "type": "function",
      "constant": true
    },
    {
      "inputs": [
        {
          "internalType": "uint256",
          "name": "",
          "type": "uint256"
        }
      ],
      "name": "participants",
      "outputs": [
        {
          "internalType": "address",
          "name": "",
          "type": "address"
        }
      ],
      "stateMutability": "view",
      "type": "function",
      "constant": true
    },
    {
      "inputs": [],
      "name": "projectOwner",
      "outputs": [
        {
          "internalType": "address payable",
          "name": "",
          "type": "address"
        }
      ],
      "stateMutability": "view",
      "type": "function",
      "constant": true
    },
    {
      "inputs": [],
      "name": "renounceOwnership",
      "outputs": [],
      "stateMutability": "nonpayable",
      "type": "function"
    },
    {
      "inputs": [],
      "name": "saleEndTime",
      "outputs": [
        {
          "internalType": "uint256",
          "name": "",
          "type": "uint256"
        }
      ],
      "stateMutability": "view",
      "type": "function",
      "constant": true
    },
    {
      "inputs": [],
      "name": "saleStartTime",
      "outputs": [
        {
          "internalType": "uint256",
          "name": "",
          "type": "uint256"
        }
      ],
      "stateMutability": "view",
      "type": "function",
      "constant": true
    },
    {
      "inputs": [],
      "name": "totalBnbReceived",
      "outputs": [
        {
          "internalType": "uint256",
          "name": "",
          "type": "uint256"
        }
      ],
      "stateMutability": "view",
      "type": "function",
      "constant": true
    },
    {
      "inputs": [
        {
          "internalType": "address",
          "name": "",
          "type": "address"
        }
      ],
      "name": "totalBuy",
      "outputs": [
        {
          "internalType": "uint256",
          "name": "",
          "type": "uint256"
        }
      ],
      "stateMutability": "view",
      "type": "function",
      "constant": true
    },
    {
      "inputs": [
        {
          "internalType": "address",
          "name": "newOwner",
          "type": "address"
        }
      ],
      "name": "transferOwnership",
      "outputs": [],
      "stateMutability": "nonpayable",
      "type": "function"
    },
    {
      "stateMutability": "payable",
      "type": "receive",
      "payable": true
    },
    {
      "inputs": [
        {
          "internalType": "uint256",
          "name": "start",
          "type": "uint256"
        }
      ],
      "name": "setStartTime",
      "outputs": [],
      "stateMutability": "nonpayable",
      "type": "function"
    },
    {
      "inputs": [
        {
          "internalType": "uint256",
          "name": "end",
          "type": "uint256"
        }
      ],
      "name": "setEndTime",
      "outputs": [],
      "stateMutability": "nonpayable",
      "type": "function"
    },
    {
      "inputs": [
        {
          "internalType": "address",
          "name": "_address",
          "type": "address"
        }
      ],
      "name": "addWhitelist",
      "outputs": [],
      "stateMutability": "nonpayable",
      "type": "function"
    },
    {
      "inputs": [
        {
          "internalType": "address",
          "name": "_address",
          "type": "address"
        }
      ],
      "name": "getWhitelist",
      "outputs": [
        {
          "internalType": "bool",
          "name": "",
          "type": "bool"
        }
      ],
      "stateMutability": "view",
      "type": "function",
      "constant": true
    }
  ],
  "bytecode": "0x6080604052681043561a88293000006001553480156200001e57600080fd5b506040516200206f3803806200206f8339818101604052810190620000449190620004ba565b62000064620000586200018060201b60201c565b6200018860201b60201c565b836002819055508260038190555081600560006101000a81548173ffffffffffffffffffffffffffffffffffffffff021916908373ffffffffffffffffffffffffffffffffffffffff1602179055506706f05b59d3b200006007819055506801158e460913d0000060068190555060005b815181101562000175576008828281518110620000f757620000f66200054b565b5b60200260200101519080600181540180825580915050600190039060005260206000200160009091909190916101000a81548173ffffffffffffffffffffffffffffffffffffffff021916908373ffffffffffffffffffffffffffffffffffffffff16021790555080806200016c90620005a9565b915050620000d5565b5050505050620005f7565b600033905090565b60008060009054906101000a900473ffffffffffffffffffffffffffffffffffffffff169050816000806101000a81548173ffffffffffffffffffffffffffffffffffffffff021916908373ffffffffffffffffffffffffffffffffffffffff1602179055508173ffffffffffffffffffffffffffffffffffffffff168173ffffffffffffffffffffffffffffffffffffffff167f8be0079c531659141344cd1fd0a4f28419497f9722a3daafe3b4186f6b6457e060405160405180910390a35050565b6000604051905090565b600080fd5b600080fd5b6000819050919050565b620002758162000260565b81146200028157600080fd5b50565b60008151905062000295816200026a565b92915050565b600073ffffffffffffffffffffffffffffffffffffffff82169050919050565b6000620002c8826200029b565b9050919050565b620002da81620002bb565b8114620002e657600080fd5b50565b600081519050620002fa81620002cf565b92915050565b600080fd5b6000601f19601f8301169050919050565b7f4e487b7100000000000000000000000000000000000000000000000000000000600052604160045260246000fd5b620003508262000305565b810181811067ffffffffffffffff8211171562000372576200037162000316565b5b80604052505050565b6000620003876200024c565b905062000395828262000345565b919050565b600067ffffffffffffffff821115620003b857620003b762000316565b5b602082029050602081019050919050565b600080fd5b6000620003db826200029b565b9050919050565b620003ed81620003ce565b8114620003f957600080fd5b50565b6000815190506200040d81620003e2565b92915050565b60006200042a62000424846200039a565b6200037b565b9050808382526020820190506020840283018581111562000450576200044f620003c9565b5b835b818110156200047d5780620004688882620003fc565b84526020840193505060208101905062000452565b5050509392505050565b600082601f8301126200049f576200049e62000300565b5b8151620004b184826020860162000413565b91505092915050565b60008060008060808587031215620004d757620004d662000256565b5b6000620004e78782880162000284565b9450506020620004fa8782880162000284565b93505060406200050d87828801620002e9565b925050606085015167ffffffffffffffff8111156200053157620005306200025b565b5b6200053f8782880162000487565b91505092959194509250565b7f4e487b7100000000000000000000000000000000000000000000000000000000600052603260045260246000fd5b7f4e487b7100000000000000000000000000000000000000000000000000000000600052601160045260246000fd5b6000620005b68262000260565b91507fffffffffffffffffffffffffffffffffffffffffffffffffffffffffffffffff821415620005ec57620005eb6200057a565b5b600182019050919050565b611a6880620006076000396000f3fe6080604052600436106101025760003560e01c80638da5cb5b11610095578063c1f5138a11610064578063c1f5138a146108f1578063ccb98ffc1461091c578063ed338ff114610945578063f2fde38b14610970578063f80f5dd514610999576106c8565b80638da5cb5b146108455780639ad061b914610870578063a3f4df7e1461089b578063a4475ce4146108c6576106c8565b80633e0a322d116100d15780633e0a322d1461079d5780635130d734146107c6578063715018a614610803578063733f5e2f1461081a576106c8565b80631cbaee2d146106cd57806323548b8b146106f857806330edc0f51461072357806335c1d34914610760576106c8565b366106c857610110336109c2565b156103cd5760035442111561015a576040517f08c379a000000000000000000000000000000000000000000000000000000000815260040161015190611176565b60405180910390fd5b6001543460045461016b91906111cf565b11156101ac576040517f08c379a00000000000000000000000000000000000000000000000000000000081526004016101a390611297565b60405180910390fd5b60075434600960003373ffffffffffffffffffffffffffffffffffffffff1673ffffffffffffffffffffffffffffffffffffffff168152602001908152602001600020546101fa91906111cf565b101561023b576040517f08c379a000000000000000000000000000000000000000000000000000000000815260040161023290611303565b60405180910390fd5b60065434600960003373ffffffffffffffffffffffffffffffffffffffff1673ffffffffffffffffffffffffffffffffffffffff1681526020019081526020016000205461028991906111cf565b11156102ca576040517f08c379a00000000000000000000000000000000000000000000000000000000081526004016102c190611395565b60405180910390fd5b34600960003373ffffffffffffffffffffffffffffffffffffffff1673ffffffffffffffffffffffffffffffffffffffff168152602001908152602001600020600082825461031991906111cf565b92505081905550600a339080600181540180825580915050600190039060005260206000200160009091909190916101000a81548173ffffffffffffffffffffffffffffffffffffffff021916908373ffffffffffffffffffffffffffffffffffffffff160217905550346004600082825461039591906111cf565b925050819055506103c8600560009054906101000a900473ffffffffffffffffffffffffffffffffffffffff1647610a78565b6106c6565b600254421015610412576040517f08c379a000000000000000000000000000000000000000000000000000000000815260040161040990611401565b60405180910390fd5b600354421115610457576040517f08c379a000000000000000000000000000000000000000000000000000000000815260040161044e90611176565b60405180910390fd5b6001543460045461046891906111cf565b11156104a9576040517f08c379a00000000000000000000000000000000000000000000000000000000081526004016104a090611297565b60405180910390fd5b60075434600960003373ffffffffffffffffffffffffffffffffffffffff1673ffffffffffffffffffffffffffffffffffffffff168152602001908152602001600020546104f791906111cf565b1015610538576040517f08c379a000000000000000000000000000000000000000000000000000000000815260040161052f90611303565b60405180910390fd5b60065434600960003373ffffffffffffffffffffffffffffffffffffffff1673ffffffffffffffffffffffffffffffffffffffff1681526020019081526020016000205461058691906111cf565b11156105c7576040517f08c379a00000000000000000000000000000000000000000000000000000000081526004016105be90611493565b60405180910390fd5b34600960003373ffffffffffffffffffffffffffffffffffffffff1673ffffffffffffffffffffffffffffffffffffffff168152602001908152602001600020600082825461061691906111cf565b92505081905550600a339080600181540180825580915050600190039060005260206000200160009091909190916101000a81548173ffffffffffffffffffffffffffffffffffffffff021916908373ffffffffffffffffffffffffffffffffffffffff160217905550346004600082825461069291906111cf565b925050819055506106c5600560009054906101000a900473ffffffffffffffffffffffffffffffffffffffff1647610a78565b5b005b600080fd5b3480156106d957600080fd5b506106e2610b6c565b6040516106ef91906114c2565b60405180910390f35b34801561070457600080fd5b5061070d610b72565b60405161071a91906114c2565b60405180910390f35b34801561072f57600080fd5b5061074a60048036038101906107459190611540565b6109c2565b6040516107579190611588565b60405180910390f35b34801561076c57600080fd5b50610787600480360381019061078291906115cf565b610b78565b604051610794919061160b565b60405180910390f35b3480156107a957600080fd5b506107c460048036038101906107bf91906115cf565b610bb7565b005b3480156107d257600080fd5b506107ed60048036038101906107e89190611540565b610c3d565b6040516107fa91906114c2565b60405180910390f35b34801561080f57600080fd5b50610818610c55565b005b34801561082657600080fd5b5061082f610cdd565b60405161083c91906114c2565b60405180910390f35b34801561085157600080fd5b5061085a610ce3565b604051610867919061160b565b60405180910390f35b34801561087c57600080fd5b50610885610d0c565b60405161089291906114c2565b60405180910390f35b3480156108a757600080fd5b506108b0610d12565b6040516108bd91906116ae565b60405180910390f35b3480156108d257600080fd5b506108db610d4b565b6040516108e891906116f1565b60405180910390f35b3480156108fd57600080fd5b50610906610d71565b60405161091391906114c2565b60405180910390f35b34801561092857600080fd5b50610943600480360381019061093e91906115cf565b610d77565b005b34801561095157600080fd5b5061095a610dfd565b60405161096791906114c2565b60405180910390f35b34801561097c57600080fd5b5061099760048036038101906109929190611540565b610e03565b005b3480156109a557600080fd5b506109c060048036038101906109bb9190611540565b610efb565b005b60008060006008805490509050600091505b80821015610a6c578373ffffffffffffffffffffffffffffffffffffffff1660088381548110610a0757610a0661170c565b5b9060005260206000200160009054906101000a900473ffffffffffffffffffffffffffffffffffffffff1673ffffffffffffffffffffffffffffffffffffffff161415610a5957600192505050610a73565b8180610a649061173b565b9250506109d4565b6000925050505b919050565b80471015610abb576040517f08c379a0000000000000000000000000000000000000000000000000000000008152600401610ab2906117d0565b60405180910390fd5b60008273ffffffffffffffffffffffffffffffffffffffff1682604051610ae190611821565b60006040518083038185875af1925050503d8060008114610b1e576040519150601f19603f3d011682016040523d82523d6000602084013e610b23565b606091505b5050905080610b67576040517f08c379a0000000000000000000000000000000000000000000000000000000008152600401610b5e906118a8565b60405180910390fd5b505050565b60025481565b60015481565b600a8181548110610b8857600080fd5b906000526020600020016000915054906101000a900473ffffffffffffffffffffffffffffffffffffffff1681565b610bbf61104d565b73ffffffffffffffffffffffffffffffffffffffff16610bdd610ce3565b73ffffffffffffffffffffffffffffffffffffffff1614610c33576040517f08c379a0000000000000000000000000000000000000000000000000000000008152600401610c2a90611914565b60405180910390fd5b8060028190555050565b60096020528060005260406000206000915090505481565b610c5d61104d565b73ffffffffffffffffffffffffffffffffffffffff16610c7b610ce3565b73ffffffffffffffffffffffffffffffffffffffff1614610cd1576040517f08c379a0000000000000000000000000000000000000000000000000000000008152600401610cc890611914565b60405180910390fd5b610cdb6000611055565b565b60075481565b60008060009054906101000a900473ffffffffffffffffffffffffffffffffffffffff16905090565b60065481565b6040518060400160405280601081526020017f444d5420507269766174652053616c650000000000000000000000000000000081525081565b600560009054906101000a900473ffffffffffffffffffffffffffffffffffffffff1681565b60045481565b610d7f61104d565b73ffffffffffffffffffffffffffffffffffffffff16610d9d610ce3565b73ffffffffffffffffffffffffffffffffffffffff1614610df3576040517f08c379a0000000000000000000000000000000000000000000000000000000008152600401610dea90611914565b60405180910390fd5b8060038190555050565b60035481565b610e0b61104d565b73ffffffffffffffffffffffffffffffffffffffff16610e29610ce3565b73ffffffffffffffffffffffffffffffffffffffff1614610e7f576040517f08c379a0000000000000000000000000000000000000000000000000000000008152600401610e7690611914565b60405180910390fd5b600073ffffffffffffffffffffffffffffffffffffffff168173ffffffffffffffffffffffffffffffffffffffff161415610eef576040517f08c379a0000000000000000000000000000000000000000000000000000000008152600401610ee6906119a6565b60405180910390fd5b610ef881611055565b50565b610f0361104d565b73ffffffffffffffffffffffffffffffffffffffff16610f21610ce3565b73ffffffffffffffffffffffffffffffffffffffff1614610f77576040517f08c379a0000000000000000000000000000000000000000000000000000000008152600401610f6e90611914565b60405180910390fd5b600073ffffffffffffffffffffffffffffffffffffffff168173ffffffffffffffffffffffffffffffffffffffff161415610fe7576040517f08c379a0000000000000000000000000000000000000000000000000000000008152600401610fde90611a12565b60405180910390fd5b6008819080600181540180825580915050600190039060005260206000200160009091909190916101000a81548173ffffffffffffffffffffffffffffffffffffffff021916908373ffffffffffffffffffffffffffffffffffffffff16021790555050565b600033905090565b60008060009054906101000a900473ffffffffffffffffffffffffffffffffffffffff169050816000806101000a81548173ffffffffffffffffffffffffffffffffffffffff021916908373ffffffffffffffffffffffffffffffffffffffff1602179055508173ffffffffffffffffffffffffffffffffffffffff168173ffffffffffffffffffffffffffffffffffffffff167f8be0079c531659141344cd1fd0a4f28419497f9722a3daafe3b4186f6b6457e060405160405180910390a35050565b600082825260208201905092915050565b7f5468652073616c6520697320636c6f7365640000000000000000000000000000600082015250565b6000611160601283611119565b915061116b8261112a565b602082019050919050565b6000602082019050818103600083015261118f81611153565b9050919050565b6000819050919050565b7f4e487b7100000000000000000000000000000000000000000000000000000000600052601160045260246000fd5b60006111da82611196565b91506111e583611196565b9250827fffffffffffffffffffffffffffffffffffffffffffffffffffffffffffffffff0382111561121a576112196111a0565b5b828201905092915050565b7f627579546f6b656e733a20707572636861736520776f756c642065786365656460008201527f206d617820636170000000000000000000000000000000000000000000000000602082015250565b6000611281602883611119565b915061128c82611225565b604082019050919050565b600060208201905081810360008301526112b081611274565b9050919050565b7f796f75722070757263686173696e6720506f77657220697320736f204c6f7700600082015250565b60006112ed601f83611119565b91506112f8826112b7565b602082019050919050565b6000602082019050818103600083015261131c816112e0565b9050919050565b7f627579546f6b656e733a596f752061726520696e76657374696e67206d6f726560008201527f207468616e20796f7572206c696d697421000000000000000000000000000000602082015250565b600061137f603183611119565b915061138a82611323565b604082019050919050565b600060208201905081810360008301526113ae81611372565b9050919050565b7f5468652073616c65206973206e6f742073746172746564207965742000000000600082015250565b60006113eb601c83611119565b91506113f6826113b5565b602082019050919050565b6000602082019050818103600083015261141a816113de565b9050919050565b7f796f752061726520696e76657374696e67206d6f7265207468616e20796f757260008201527f206c696d69742100000000000000000000000000000000000000000000000000602082015250565b600061147d602783611119565b915061148882611421565b604082019050919050565b600060208201905081810360008301526114ac81611470565b9050919050565b6114bc81611196565b82525050565b60006020820190506114d760008301846114b3565b92915050565b600080fd5b600073ffffffffffffffffffffffffffffffffffffffff82169050919050565b600061150d826114e2565b9050919050565b61151d81611502565b811461152857600080fd5b50565b60008135905061153a81611514565b92915050565b600060208284031215611556576115556114dd565b5b60006115648482850161152b565b91505092915050565b60008115159050919050565b6115828161156d565b82525050565b600060208201905061159d6000830184611579565b92915050565b6115ac81611196565b81146115b757600080fd5b50565b6000813590506115c9816115a3565b92915050565b6000602082840312156115e5576115e46114dd565b5b60006115f3848285016115ba565b91505092915050565b61160581611502565b82525050565b600060208201905061162060008301846115fc565b92915050565b600081519050919050565b60005b8381101561164f578082015181840152602081019050611634565b8381111561165e576000848401525b50505050565b6000601f19601f8301169050919050565b600061168082611626565b61168a8185611119565b935061169a818560208601611631565b6116a381611664565b840191505092915050565b600060208201905081810360008301526116c88184611675565b905092915050565b60006116db826114e2565b9050919050565b6116eb816116d0565b82525050565b600060208201905061170660008301846116e2565b92915050565b7f4e487b7100000000000000000000000000000000000000000000000000000000600052603260045260246000fd5b600061174682611196565b91507fffffffffffffffffffffffffffffffffffffffffffffffffffffffffffffffff821415611779576117786111a0565b5b600182019050919050565b7f416464726573733a20696e73756666696369656e742062616c616e6365000000600082015250565b60006117ba601d83611119565b91506117c582611784565b602082019050919050565b600060208201905081810360008301526117e9816117ad565b9050919050565b600081905092915050565b50565b600061180b6000836117f0565b9150611816826117fb565b600082019050919050565b600061182c826117fe565b9150819050919050565b7f416464726573733a20756e61626c6520746f2073656e642076616c75652c207260008201527f6563697069656e74206d61792068617665207265766572746564000000000000602082015250565b6000611892603a83611119565b915061189d82611836565b604082019050919050565b600060208201905081810360008301526118c181611885565b9050919050565b7f4f776e61626c653a2063616c6c6572206973206e6f7420746865206f776e6572600082015250565b60006118fe602083611119565b9150611909826118c8565b602082019050919050565b6000602082019050818103600083015261192d816118f1565b9050919050565b7f4f776e61626c653a206e6577206f776e657220697320746865207a65726f206160008201527f6464726573730000000000000000000000000000000000000000000000000000602082015250565b6000611990602683611119565b915061199b82611934565b604082019050919050565b600060208201905081810360008301526119bf81611983565b9050919050565b7f496e76616c696420616464726573730000000000000000000000000000000000600082015250565b60006119fc600f83611119565b9150611a07826119c6565b602082019050919050565b60006020820190508181036000830152611a2b816119ef565b905091905056fea2646970667358221220b76e6b3cbbdd2d8e88954a2ddf63c8e2a3d37078f632a74cd3c4cc39e6d2a74664736f6c63430008090033",
  "immutableReferences": {},
  "source": "// SPDX-License-Identifier: MIT\npragma solidity >=0.4.22 <0.9.0;\n\n/*\n *Demetra.finance\n *Security Provider\n *Inheritance protocol eliminates concerns about loss of crypto assets even after the death with assigning backup wallet or setup a will\n *Private sale contract with 3 Tiers with different allocation\n *Tier 0.0 -> public\n *Tier 1.0 -> 0.1 - 5 BNB\n *Tier 2.0 -> 5 - 20 BNB\n */\n\nimport \"@openzeppelin/contracts/utils/Address.sol\";\nimport \"@openzeppelin/contracts/access/Ownable.sol\";\n\ncontract DemetraPrivateSale is Ownable {\n  \n    string public constant NAME = \"DMT Private Sale\"; //name of the contract\n    uint256 public  maxCap = 300 * (10**18); // Max cap in BNB\n\n    uint256 public saleStartTime; \n    uint256 public saleEndTime; \n\n    uint256 public totalBnbReceived; \n \n    address payable public projectOwner; \n\n    uint256 public maxAllocationPerUser;\n    uint256 public minAllocaPerUser;\n \n    address[] private whitelist;\n    \n    mapping(address => uint256) public totalBuy;\n    \n    address[] public participants;\n   \n    \n\n    // CONSTRUCTOR\n    constructor(\n        uint256 _saleStartTime,\n        uint256 _saleEndTime,\n        address payable _projectOwner,\n        address[] memory _whitelist\n      ) {\n\n        saleStartTime = _saleStartTime;\n        saleEndTime = _saleEndTime;\n\n        projectOwner = _projectOwner;\n        \n        minAllocaPerUser = 5 * 10 **17;\n        \n        maxAllocationPerUser = 20 * 10**18;\n        \n        for (uint256 index = 0; index < _whitelist.length; index++) {\n            whitelist.push(_whitelist[index]);\n        }\n    }\n\n    function setStartTime(uint256 start) external onlyOwner{\n        saleStartTime = start;\n    }\n    function setEndTime(uint256 end) external onlyOwner{\n        saleEndTime = end;\n    }\n    //add the address in Whitelist tier one to invest\n    function addWhitelist(address _address) external onlyOwner {\n        require(_address != address(0), \"Invalid address\");\n        whitelist.push(_address);\n    }\n\n    // check the address in whitelist tier one\n    function getWhitelist(address _address) public view returns (bool) {\n        uint256 i;\n        uint256 length = whitelist.length;\n        for (i = 0; i < length; i++) {\n            if (whitelist[i] == _address) {\n                return true;\n            }\n        }\n        return false;\n    }\n\n\n    // send bnb to the contract address\n    receive() external payable {\n        if (getWhitelist(msg.sender)){\n            require(block.timestamp <= saleEndTime, \"The sale is closed\"); \n            require(\n                totalBnbReceived + msg.value <= maxCap,\n                \"buyTokens: purchase would exceed max cap\"\n            );\n\n            require(\n                totalBuy[msg.sender] + msg.value >= minAllocaPerUser,\n                \"your purchasing Power is so Low\"\n            );\n            require(\n                totalBuy[msg.sender] + msg.value <= maxAllocationPerUser,\n                \"buyTokens:You are investing more than your limit!\"\n            );\n            \n            totalBuy[msg.sender] += msg.value;\n            participants.push(msg.sender);\n            totalBnbReceived += msg.value;\n            Address.sendValue(payable(projectOwner), address(this).balance);\n        }\n        else {\n            require(\n                block.timestamp >= saleStartTime,\n                \"The sale is not started yet \"\n            ); \n            require(block.timestamp <= saleEndTime, \"The sale is closed\"); \n            require(\n                totalBnbReceived + msg.value <= maxCap,\n                \"buyTokens: purchase would exceed max cap\"\n            );\n\n            require(\n                totalBuy[msg.sender] + msg.value >= minAllocaPerUser,\n                \"your purchasing Power is so Low\"\n            );\n            require(\n                totalBuy[msg.sender] + msg.value <= maxAllocationPerUser,\n                \"you are investing more than your limit!\"\n            );\n            \n            totalBuy[msg.sender] += msg.value;\n            participants.push(msg.sender);\n            totalBnbReceived += msg.value;\n            Address.sendValue(payable(projectOwner), address(this).balance);\n        }\n       \n        //   else {\n        //     revert();\n        // }\n    }\n}\n\n",
  "sourcePath": "/Users/home/Desktop/DemetraFinance/Contracts/PreSale Contract/contracts/DemetraPrivateSale.sol",
  "compiler": {
    "name": "solc",
    "version": "0.8.9+commit.e5eed63a.Emscripten.clang"
  },
  "schemaVersion": "3.4.7",
  "updatedAt": "2022-05-01T15:21:32.831Z",
  "networkType": "ethereum",
  "devdoc": {
    "kind": "dev",
    "methods": {
      "owner()": {
        "details": "Returns the address of the current owner."
      },
      "renounceOwnership()": {
        "details": "Leaves the contract without owner. It will not be possible to call `onlyOwner` functions anymore. Can only be called by the current owner. NOTE: Renouncing ownership will leave the contract without an owner, thereby removing any functionality that is only available to the owner."
      },
      "transferOwnership(address)": {
        "details": "Transfers ownership of the contract to a new account (`newOwner`). Can only be called by the current owner."
      }
    },
    "version": 1
  },
  "userdoc": {
    "kind": "user",
    "methods": {},
    "version": 1
  }
}